{
  "_format": "hh-sol-artifact-1",
  "contractName": "carve",
  "sourceName": "contracts/carve.sol",
  "abi": [
    {
      "anonymous": false,
      "inputs": [
        {
          "indexed": true,
          "internalType": "address",
          "name": "user",
          "type": "address"
        },
        {
          "indexed": false,
          "internalType": "string",
          "name": "newBackgroundURL",
          "type": "string"
        }
      ],
      "name": "BackgroundURLUpdated",
      "type": "event"
    },
    {
      "anonymous": false,
      "inputs": [
        {
          "indexed": true,
          "internalType": "address",
          "name": "user",
          "type": "address"
        },
        {
          "indexed": false,
          "internalType": "string",
          "name": "newBio",
          "type": "string"
        }
      ],
      "name": "BioUpdated",
      "type": "event"
    },
    {
      "anonymous": false,
      "inputs": [
        {
          "indexed": true,
          "internalType": "address",
          "name": "user",
          "type": "address"
        },
        {
          "indexed": false,
          "internalType": "CarvingId",
          "name": "carvingId",
          "type": "uint256"
        },
        {
          "indexed": false,
          "internalType": "string",
          "name": "message",
          "type": "string"
        }
      ],
      "name": "CarvingCreated",
      "type": "event"
    },
    {
      "anonymous": false,
      "inputs": [
        {
          "indexed": true,
          "internalType": "address",
          "name": "user",
          "type": "address"
        },
        {
          "indexed": false,
          "internalType": "CarvingId",
          "name": "carvingId",
          "type": "uint256"
        }
      ],
      "name": "CarvingLiked",
      "type": "event"
    },
    {
      "anonymous": false,
      "inputs": [
        {
          "indexed": true,
          "internalType": "address",
          "name": "user",
          "type": "address"
        },
        {
          "indexed": false,
          "internalType": "CarvingId",
          "name": "carvingId",
          "type": "uint256"
        }
      ],
      "name": "CarvingRecarved",
      "type": "event"
    },
    {
      "anonymous": false,
      "inputs": [
        {
          "indexed": true,
          "internalType": "address",
          "name": "user",
          "type": "address"
        },
        {
          "indexed": false,
          "internalType": "CarvingId",
          "name": "carvingId",
          "type": "uint256"
        }
      ],
      "name": "CarvingUnliked",
      "type": "event"
    },
    {
      "anonymous": false,
      "inputs": [
        {
          "indexed": true,
          "internalType": "address",
          "name": "user",
          "type": "address"
        },
        {
          "indexed": false,
          "internalType": "CarvingId",
          "name": "carvingId",
          "type": "uint256"
        },
        {
          "indexed": false,
          "internalType": "CarvingId",
          "name": "etchId",
          "type": "uint256"
        },
        {
          "indexed": false,
          "internalType": "string",
          "name": "message",
          "type": "string"
        }
      ],
      "name": "EtchAdded",
      "type": "event"
    },
    {
      "anonymous": false,
      "inputs": [
        {
          "indexed": true,
          "internalType": "address",
          "name": "user",
          "type": "address"
        },
        {
          "indexed": false,
          "internalType": "string",
          "name": "newPfpURL",
          "type": "string"
        }
      ],
      "name": "PfpURLUpdated",
      "type": "event"
    },
    {
      "anonymous": false,
      "inputs": [
        {
          "indexed": true,
          "internalType": "address",
          "name": "user",
          "type": "address"
        }
      ],
      "name": "UserCreated",
      "type": "event"
    },
    {
      "anonymous": false,
      "inputs": [
        {
          "indexed": true,
          "internalType": "address",
          "name": "follower",
          "type": "address"
        },
        {
          "indexed": true,
          "internalType": "address",
          "name": "followedUser",
          "type": "address"
        }
      ],
      "name": "UserFollowed",
      "type": "event"
    },
    {
      "anonymous": false,
      "inputs": [
        {
          "indexed": true,
          "internalType": "address",
          "name": "follower",
          "type": "address"
        },
        {
          "indexed": true,
          "internalType": "address",
          "name": "unfollowedUser",
          "type": "address"
        }
      ],
      "name": "UserUnfollowed",
      "type": "event"
    },
    {
      "anonymous": false,
      "inputs": [
        {
          "indexed": true,
          "internalType": "address",
          "name": "user",
          "type": "address"
        },
        {
          "indexed": false,
          "internalType": "string",
          "name": "newUsername",
          "type": "string"
        }
      ],
      "name": "UsernameUpdated",
      "type": "event"
    },
    {
      "inputs": [
        {
          "internalType": "CarvingId",
          "name": "",
          "type": "uint256"
        },
        {
          "internalType": "uint256",
          "name": "",
          "type": "uint256"
        }
      ],
      "name": "carvingEtches",
      "outputs": [
        {
          "internalType": "CarvingId",
          "name": "",
          "type": "uint256"
        }
      ],
      "stateMutability": "view",
      "type": "function"
    },
    {
      "inputs": [
        {
          "internalType": "CarvingId",
          "name": "",
          "type": "uint256"
        }
      ],
      "name": "carvingLikeCounts",
      "outputs": [
        {
          "internalType": "uint256",
          "name": "",
          "type": "uint256"
        }
      ],
      "stateMutability": "view",
      "type": "function"
    },
    {
      "inputs": [
        {
          "internalType": "CarvingId",
          "name": "",
          "type": "uint256"
        },
        {
          "internalType": "address",
          "name": "",
          "type": "address"
        }
      ],
      "name": "carvingLikedBy",
      "outputs": [
        {
          "internalType": "bool",
          "name": "",
          "type": "bool"
        }
      ],
      "stateMutability": "view",
      "type": "function"
    },
    {
      "inputs": [
        {
          "internalType": "CarvingId",
          "name": "",
          "type": "uint256"
        }
      ],
      "name": "carvingRecarveCounts",
      "outputs": [
        {
          "internalType": "uint256",
          "name": "",
          "type": "uint256"
        }
      ],
      "stateMutability": "view",
      "type": "function"
    },
    {
      "inputs": [
        {
          "internalType": "uint256",
          "name": "",
          "type": "uint256"
        }
      ],
      "name": "carvings",
      "outputs": [
        {
          "internalType": "CarvingId",
          "name": "id",
          "type": "uint256"
        },
        {
          "internalType": "CarvingId",
          "name": "originalCarvingId",
          "type": "uint256"
        },
        {
          "internalType": "uint256",
          "name": "sentAt",
          "type": "uint256"
        },
        {
          "internalType": "address",
          "name": "carver",
          "type": "address"
        },
        {
          "internalType": "enum carve.CarvingType",
          "name": "carvingType",
          "type": "uint8"
        },
        {
          "internalType": "bool",
          "name": "hidden",
          "type": "bool"
        },
        {
          "internalType": "string",
          "name": "message",
          "type": "string"
        }
      ],
      "stateMutability": "view",
      "type": "function"
    },
    {
      "inputs": [
        {
          "internalType": "string",
          "name": "_message",
          "type": "string"
        }
      ],
      "name": "createCarving",
      "outputs": [],
      "stateMutability": "nonpayable",
      "type": "function"
    },
    {
      "inputs": [
        {
          "internalType": "CarvingId",
          "name": "_carvingId",
          "type": "uint256"
        },
        {
          "internalType": "string",
          "name": "_message",
          "type": "string"
        }
      ],
      "name": "etchUnderCarving",
      "outputs": [],
      "stateMutability": "nonpayable",
      "type": "function"
    },
    {
      "inputs": [
        {
          "internalType": "address",
          "name": "_userToFollow",
          "type": "address"
        }
      ],
      "name": "follow",
      "outputs": [],
      "stateMutability": "nonpayable",
      "type": "function"
    },
    {
      "inputs": [
        {
          "internalType": "uint256",
          "name": "carvingIndex",
          "type": "uint256"
        }
      ],
      "name": "getCarving",
      "outputs": [
        {
          "components": [
            {
              "internalType": "CarvingId",
              "name": "id",
              "type": "uint256"
            },
            {
              "internalType": "CarvingId",
              "name": "originalCarvingId",
              "type": "uint256"
            },
            {
              "internalType": "uint256",
              "name": "sentAt",
              "type": "uint256"
            },
            {
              "internalType": "uint256",
              "name": "likeCount",
              "type": "uint256"
            },
            {
              "internalType": "uint256",
              "name": "recarveCount",
              "type": "uint256"
            },
            {
              "internalType": "uint256",
              "name": "etchCount",
              "type": "uint256"
            },
            {
              "internalType": "address",
              "name": "carver",
              "type": "address"
            },
            {
              "internalType": "enum carve.CarvingType",
              "name": "carvingType",
              "type": "uint8"
            },
            {
              "internalType": "bool",
              "name": "hidden",
              "type": "bool"
            },
            {
              "internalType": "bool",
              "name": "likedByUser",
              "type": "bool"
            },
            {
              "internalType": "string",
              "name": "message",
              "type": "string"
            }
          ],
          "internalType": "struct carve.CarvingView",
          "name": "",
          "type": "tuple"
        }
      ],
      "stateMutability": "view",
      "type": "function"
    },
    {
      "inputs": [
        {
          "internalType": "uint256",
          "name": "start",
          "type": "uint256"
        },
        {
          "internalType": "uint256",
          "name": "count",
          "type": "uint256"
        }
      ],
      "name": "getCarvings",
      "outputs": [
        {
          "components": [
            {
              "internalType": "CarvingId",
              "name": "id",
              "type": "uint256"
            },
            {
              "internalType": "CarvingId",
              "name": "originalCarvingId",
              "type": "uint256"
            },
            {
              "internalType": "uint256",
              "name": "sentAt",
              "type": "uint256"
            },
            {
              "internalType": "uint256",
              "name": "likeCount",
              "type": "uint256"
            },
            {
              "internalType": "uint256",
              "name": "recarveCount",
              "type": "uint256"
            },
            {
              "internalType": "uint256",
              "name": "etchCount",
              "type": "uint256"
            },
            {
              "internalType": "address",
              "name": "carver",
              "type": "address"
            },
            {
              "internalType": "enum carve.CarvingType",
              "name": "carvingType",
              "type": "uint8"
            },
            {
              "internalType": "bool",
              "name": "hidden",
              "type": "bool"
            },
            {
              "internalType": "bool",
              "name": "likedByUser",
              "type": "bool"
            },
            {
              "internalType": "string",
              "name": "message",
              "type": "string"
            }
          ],
          "internalType": "struct carve.CarvingView[]",
          "name": "",
          "type": "tuple[]"
        }
      ],
      "stateMutability": "view",
      "type": "function"
    },
    {
      "inputs": [],
      "name": "getCarvingsCount",
      "outputs": [
        {
          "internalType": "uint256",
          "name": "",
          "type": "uint256"
        }
      ],
      "stateMutability": "view",
      "type": "function"
    },
    {
      "inputs": [
        {
          "internalType": "CarvingId",
          "name": "_carvingId",
          "type": "uint256"
        }
      ],
      "name": "getEtchCount",
      "outputs": [
        {
          "internalType": "uint256",
          "name": "",
          "type": "uint256"
        }
      ],
      "stateMutability": "view",
      "type": "function"
    },
    {
      "inputs": [
        {
          "internalType": "CarvingId",
          "name": "_carvingId",
          "type": "uint256"
        },
        {
          "internalType": "uint256",
          "name": "start",
          "type": "uint256"
        },
        {
          "internalType": "uint256",
          "name": "count",
          "type": "uint256"
        }
      ],
      "name": "getEtches",
      "outputs": [
        {
          "components": [
            {
              "internalType": "CarvingId",
              "name": "id",
              "type": "uint256"
            },
            {
              "internalType": "CarvingId",
              "name": "originalCarvingId",
              "type": "uint256"
            },
            {
              "internalType": "uint256",
              "name": "sentAt",
              "type": "uint256"
            },
            {
              "internalType": "uint256",
              "name": "likeCount",
              "type": "uint256"
            },
            {
              "internalType": "uint256",
              "name": "recarveCount",
              "type": "uint256"
            },
            {
              "internalType": "uint256",
              "name": "etchCount",
              "type": "uint256"
            },
            {
              "internalType": "address",
              "name": "carver",
              "type": "address"
            },
            {
              "internalType": "enum carve.CarvingType",
              "name": "carvingType",
              "type": "uint8"
            },
            {
              "internalType": "bool",
              "name": "hidden",
              "type": "bool"
            },
            {
              "internalType": "bool",
              "name": "likedByUser",
              "type": "bool"
            },
            {
              "internalType": "string",
              "name": "message",
              "type": "string"
            }
          ],
          "internalType": "struct carve.CarvingView[]",
          "name": "",
          "type": "tuple[]"
        }
      ],
      "stateMutability": "view",
      "type": "function"
    },
    {
      "inputs": [
        {
          "internalType": "address",
          "name": "user",
          "type": "address"
        }
      ],
      "name": "getFollowers",
      "outputs": [
        {
          "internalType": "address[]",
          "name": "",
          "type": "address[]"
        }
      ],
      "stateMutability": "view",
      "type": "function"
    },
    {
      "inputs": [
        {
          "internalType": "address",
          "name": "user",
          "type": "address"
        }
      ],
      "name": "getFollowings",
      "outputs": [
        {
          "internalType": "address[]",
          "name": "",
          "type": "address[]"
        }
      ],
      "stateMutability": "view",
      "type": "function"
    },
    {
      "inputs": [
        {
          "internalType": "CarvingId",
          "name": "_carvingId",
          "type": "uint256"
        }
      ],
      "name": "getLikesCount",
      "outputs": [
        {
          "internalType": "uint256",
          "name": "",
          "type": "uint256"
        }
      ],
      "stateMutability": "view",
      "type": "function"
    },
    {
      "inputs": [
        {
          "internalType": "CarvingId",
          "name": "_carvingId",
          "type": "uint256"
        }
      ],
      "name": "getRecarvesCount",
      "outputs": [
        {
          "internalType": "uint256",
          "name": "",
          "type": "uint256"
        }
      ],
      "stateMutability": "view",
      "type": "function"
    },
    {
      "inputs": [
        {
          "internalType": "address",
          "name": "_user",
          "type": "address"
        },
        {
          "internalType": "uint256",
          "name": "start",
          "type": "uint256"
        },
        {
          "internalType": "uint256",
          "name": "count",
          "type": "uint256"
        }
      ],
      "name": "getUserCarvings",
      "outputs": [
        {
          "components": [
            {
              "internalType": "CarvingId",
              "name": "id",
              "type": "uint256"
            },
            {
              "internalType": "CarvingId",
              "name": "originalCarvingId",
              "type": "uint256"
            },
            {
              "internalType": "uint256",
              "name": "sentAt",
              "type": "uint256"
            },
            {
              "internalType": "uint256",
              "name": "likeCount",
              "type": "uint256"
            },
            {
              "internalType": "uint256",
              "name": "recarveCount",
              "type": "uint256"
            },
            {
              "internalType": "uint256",
              "name": "etchCount",
              "type": "uint256"
            },
            {
              "internalType": "address",
              "name": "carver",
              "type": "address"
            },
            {
              "internalType": "enum carve.CarvingType",
              "name": "carvingType",
              "type": "uint8"
            },
            {
              "internalType": "bool",
              "name": "hidden",
              "type": "bool"
            },
            {
              "internalType": "bool",
              "name": "likedByUser",
              "type": "bool"
            },
            {
              "internalType": "string",
              "name": "message",
              "type": "string"
            }
          ],
          "internalType": "struct carve.CarvingView[]",
          "name": "",
          "type": "tuple[]"
        }
      ],
      "stateMutability": "view",
      "type": "function"
    },
    {
      "inputs": [
        {
          "internalType": "address",
          "name": "_user",
          "type": "address"
        }
      ],
      "name": "getUserCarvingsCount",
      "outputs": [
        {
          "internalType": "uint256",
          "name": "",
          "type": "uint256"
        }
      ],
      "stateMutability": "view",
      "type": "function"
    },
    {
      "inputs": [
        {
          "internalType": "address",
          "name": "_user",
          "type": "address"
        }
      ],
      "name": "getUserProfile",
      "outputs": [
        {
          "internalType": "uint256",
          "name": "createdAt",
          "type": "uint256"
        },
        {
          "internalType": "string",
          "name": "username",
          "type": "string"
        },
        {
          "internalType": "string",
          "name": "bio",
          "type": "string"
        },
        {
          "internalType": "string",
          "name": "pfpURL",
          "type": "string"
        },
        {
          "internalType": "string",
          "name": "backgroundURL",
          "type": "string"
        },
        {
          "internalType": "uint256",
          "name": "followerCount",
          "type": "uint256"
        },
        {
          "internalType": "uint256",
          "name": "followingCount",
          "type": "uint256"
        },
        {
          "internalType": "uint256",
          "name": "carvingCount",
          "type": "uint256"
        }
      ],
      "stateMutability": "view",
      "type": "function"
    },
    {
      "inputs": [
        {
          "internalType": "address",
          "name": "_user",
          "type": "address"
        },
        {
          "internalType": "CarvingId",
          "name": "_carvingId",
          "type": "uint256"
        }
      ],
      "name": "hasLikedCarving",
      "outputs": [
        {
          "internalType": "bool",
          "name": "",
          "type": "bool"
        }
      ],
      "stateMutability": "view",
      "type": "function"
    },
    {
      "inputs": [
        {
          "internalType": "address",
          "name": "follower",
          "type": "address"
        },
        {
          "internalType": "address",
          "name": "followee",
          "type": "address"
        }
      ],
      "name": "isFollowing",
      "outputs": [
        {
          "internalType": "bool",
          "name": "",
          "type": "bool"
        }
      ],
      "stateMutability": "view",
      "type": "function"
    },
    {
      "inputs": [
        {
          "internalType": "CarvingId",
          "name": "_carvingId",
          "type": "uint256"
        }
      ],
      "name": "likeCarving",
      "outputs": [],
      "stateMutability": "nonpayable",
      "type": "function"
    },
    {
      "inputs": [
        {
          "internalType": "CarvingId",
          "name": "_carvingId",
          "type": "uint256"
        }
      ],
      "name": "recarve",
      "outputs": [],
      "stateMutability": "nonpayable",
      "type": "function"
    },
    {
      "inputs": [
        {
          "internalType": "string",
          "name": "_backgroundURL",
          "type": "string"
        }
      ],
      "name": "setBackgroundURL",
      "outputs": [],
      "stateMutability": "nonpayable",
      "type": "function"
    },
    {
      "inputs": [
        {
          "internalType": "string",
          "name": "_bio",
          "type": "string"
        }
      ],
      "name": "setBio",
      "outputs": [],
      "stateMutability": "nonpayable",
      "type": "function"
    },
    {
      "inputs": [
        {
          "internalType": "string",
          "name": "_pfpURL",
          "type": "string"
        }
      ],
      "name": "setPfpURL",
      "outputs": [],
      "stateMutability": "nonpayable",
      "type": "function"
    },
    {
      "inputs": [
        {
          "internalType": "string",
          "name": "_username",
          "type": "string"
        }
      ],
      "name": "setUsername",
      "outputs": [],
      "stateMutability": "nonpayable",
      "type": "function"
    },
    {
      "inputs": [
        {
          "internalType": "address",
          "name": "_userToUnfollow",
          "type": "address"
        }
      ],
      "name": "unfollow",
      "outputs": [],
      "stateMutability": "nonpayable",
      "type": "function"
    },
    {
      "inputs": [
        {
          "internalType": "CarvingId",
          "name": "_carvingId",
          "type": "uint256"
        }
      ],
      "name": "unlikeCarving",
      "outputs": [],
      "stateMutability": "nonpayable",
      "type": "function"
    },
    {
      "inputs": [
        {
          "internalType": "address",
          "name": "",
          "type": "address"
        },
        {
          "internalType": "uint256",
          "name": "",
          "type": "uint256"
        }
      ],
      "name": "userCarvings",
      "outputs": [
        {
          "internalType": "CarvingId",
          "name": "",
          "type": "uint256"
        }
      ],
      "stateMutability": "view",
      "type": "function"
    },
    {
      "inputs": [
        {
          "internalType": "address",
          "name": "",
          "type": "address"
        }
      ],
      "name": "userProfiles",
      "outputs": [
        {
          "internalType": "uint256",
          "name": "createdAt",
          "type": "uint256"
        },
        {
          "internalType": "string",
          "name": "username",
          "type": "string"
        },
        {
          "internalType": "string",
          "name": "bio",
          "type": "string"
        },
        {
          "internalType": "string",
          "name": "pfpURL",
          "type": "string"
        },
        {
          "internalType": "string",
          "name": "backgroundURL",
          "type": "string"
        }
      ],
      "stateMutability": "view",
      "type": "function"
    }
  ],
  "bytecode": "0x6080604052348015600f57600080fd5b50614f548061001f6000396000f3fe608060405234801561001057600080fd5b50600436106101f05760003560e01c8063797fc1e01161010f578063c8024b20116100a2578063e9ceb11c11610071578063e9ceb11c14610680578063ed59313a146106b0578063f58fac62146106cc578063fb7e06d8146106fc576101f0565b8063c8024b20146105d4578063cca22f79146105f0578063d773cb7b14610620578063d9903f0514610650576101f0565b80639e4eac74116100de5780639e4eac7414610514578063a160a5df14610544578063b943763d14610574578063c2fe2022146105a4576101f0565b8063797fc1e01461045f57806394be32de1461047d578063987ee156146104ad57806399ec3a42146104e4576101f0565b8063332d56d7116101875780636374fccf116101565780636374fccf146103c757806365aafe13146103f757806369b65f2c146104135780636c0afaaf14610443576101f0565b8063332d56d7146103255780633cda8636146103595780634864f7e5146103755780634dbf27cc146103ab576101f0565b8063234441ff116101c3578063234441ff146102795780632c14c815146102a9578063315a6446146102d9578063318279d1146102f5576101f0565b8063015a4ead146101f55780630390a8831461021157806309b0c7c21461022d57806310b8f5681461025d575b600080fd5b61020f600480360381019061020a9190613939565b610718565b005b61022b60048036038101906102269190613ae2565b610eaa565b005b61024760048036038101906102429190613b6a565b611038565b6040516102549190613ed8565b60405180910390f35b61027760048036038101906102729190613efa565b61120e565b005b610293600480360381019061028e9190613939565b61131f565b6040516102a09190613f36565b60405180910390f35b6102c360048036038101906102be9190613f51565b61136b565b6040516102d09190613fa0565b60405180910390f35b6102f360048036038101906102ee9190613fbb565b61139c565b005b61030f600480360381019061030a9190613efa565b611484565b60405161031c9190613f36565b60405180910390f35b61033f600480360381019061033a9190613939565b61149c565b60405161035095949392919061404e565b60405180910390f35b610373600480360381019061036e9190613efa565b6116f2565b005b61038f600480360381019061038a91906140bd565b611917565b6040516103a29796959493929190614117565b60405180910390f35b6103c560048036038101906103c09190613939565b611a2b565b005b6103e160048036038101906103dc9190613efa565b611e1e565b6040516103ee9190613f36565b60405180910390f35b610411600480360381019061040c9190613efa565b611e36565b005b61042d600480360381019061042891906140bd565b612006565b60405161043a919061427c565b60405180910390f35b61045d60048036038101906104589190613fbb565b6123a4565b005b61046761248c565b6040516104749190613f36565b60405180910390f35b61049760048036038101906104929190613efa565b612499565b6040516104a49190613f36565b60405180910390f35b6104c760048036038101906104c29190613939565b612505565b6040516104db98979695949392919061429e565b60405180910390f35b6104fe60048036038101906104f99190614338565b6128c0565b60405161050b9190614378565b60405180910390f35b61052e60048036038101906105299190614393565b612a5d565b60405161053b9190614378565b60405180910390f35b61055e60048036038101906105599190613efa565b612b11565b60405161056b9190613f36565b60405180910390f35b61058e60048036038101906105899190613efa565b612b7a565b60405161059b9190613f36565b60405180910390f35b6105be60048036038101906105b99190613939565b612be3565b6040516105cb9190614482565b60405180910390f35b6105ee60048036038101906105e99190613fbb565b612cb0565b005b61060a60048036038101906106059190613939565b612d69565b6040516106179190614482565b60405180910390f35b61063a600480360381019061063591906144a4565b612e36565b6040516106479190613fa0565b60405180910390f35b61066a600480360381019061066591906144e4565b612e67565b6040516106779190613ed8565b60405180910390f35b61069a60048036038101906106959190614524565b612f95565b6040516106a79190613ed8565b60405180910390f35b6106ca60048036038101906106c59190613fbb565b61318c565b005b6106e660048036038101906106e19190614577565b61338c565b6040516106f39190614378565b60405180910390f35b61071660048036038101906107119190613fbb565b6133bb565b005b61072233826128c0565b610761576040517f08c379a000000000000000000000000000000000000000000000000000000000815260040161075890614603565b60405180910390fd5b6000600860003373ffffffffffffffffffffffffffffffffffffffff1673ffffffffffffffffffffffffffffffffffffffff16815260200190815260200160002060008373ffffffffffffffffffffffffffffffffffffffff1673ffffffffffffffffffffffffffffffffffffffff16815260200190815260200160002054905060006001600760003373ffffffffffffffffffffffffffffffffffffffff1673ffffffffffffffffffffffffffffffffffffffff168152602001908152602001600020805490506108339190614652565b90506000600760003373ffffffffffffffffffffffffffffffffffffffff1673ffffffffffffffffffffffffffffffffffffffff168152602001908152602001600020828154811061088857610887614686565b5b9060005260206000200160009054906101000a900473ffffffffffffffffffffffffffffffffffffffff16905080600760003373ffffffffffffffffffffffffffffffffffffffff1673ffffffffffffffffffffffffffffffffffffffff168152602001908152602001600020848154811061090757610906614686565b5b9060005260206000200160006101000a81548173ffffffffffffffffffffffffffffffffffffffff021916908373ffffffffffffffffffffffffffffffffffffffff160217905550600760003373ffffffffffffffffffffffffffffffffffffffff1673ffffffffffffffffffffffffffffffffffffffff16815260200190815260200160002080548061099e5761099d6146b5565b5b6001900381819060005260206000200160006101000a81549073ffffffffffffffffffffffffffffffffffffffff0219169055905582600860003373ffffffffffffffffffffffffffffffffffffffff1673ffffffffffffffffffffffffffffffffffffffff16815260200190815260200160002060008373ffffffffffffffffffffffffffffffffffffffff1673ffffffffffffffffffffffffffffffffffffffff16815260200190815260200160002081905550600860003373ffffffffffffffffffffffffffffffffffffffff1673ffffffffffffffffffffffffffffffffffffffff16815260200190815260200160002060008573ffffffffffffffffffffffffffffffffffffffff1673ffffffffffffffffffffffffffffffffffffffff168152602001908152602001600020600090556000600a60008673ffffffffffffffffffffffffffffffffffffffff1673ffffffffffffffffffffffffffffffffffffffff16815260200190815260200160002060003373ffffffffffffffffffffffffffffffffffffffff1673ffffffffffffffffffffffffffffffffffffffff16815260200190815260200160002054905060006001600960008873ffffffffffffffffffffffffffffffffffffffff1673ffffffffffffffffffffffffffffffffffffffff16815260200190815260200160002080549050610ba69190614652565b90506000600960008873ffffffffffffffffffffffffffffffffffffffff1673ffffffffffffffffffffffffffffffffffffffff1681526020019081526020016000208281548110610bfb57610bfa614686565b5b9060005260206000200160009054906101000a900473ffffffffffffffffffffffffffffffffffffffff16905080600960008973ffffffffffffffffffffffffffffffffffffffff1673ffffffffffffffffffffffffffffffffffffffff1681526020019081526020016000208481548110610c7a57610c79614686565b5b9060005260206000200160006101000a81548173ffffffffffffffffffffffffffffffffffffffff021916908373ffffffffffffffffffffffffffffffffffffffff160217905550600960008873ffffffffffffffffffffffffffffffffffffffff1673ffffffffffffffffffffffffffffffffffffffff168152602001908152602001600020805480610d1157610d106146b5565b5b6001900381819060005260206000200160006101000a81549073ffffffffffffffffffffffffffffffffffffffff0219169055905582600a60008973ffffffffffffffffffffffffffffffffffffffff1673ffffffffffffffffffffffffffffffffffffffff16815260200190815260200160002060008373ffffffffffffffffffffffffffffffffffffffff1673ffffffffffffffffffffffffffffffffffffffff16815260200190815260200160002081905550600a60008873ffffffffffffffffffffffffffffffffffffffff1673ffffffffffffffffffffffffffffffffffffffff16815260200190815260200160002060003373ffffffffffffffffffffffffffffffffffffffff1673ffffffffffffffffffffffffffffffffffffffff168152602001908152602001600020600090558673ffffffffffffffffffffffffffffffffffffffff163373ffffffffffffffffffffffffffffffffffffffff167fe7339343c6edff57f2d15278c419523844cea30ae5ee2146aa22cb9e3107dab760405160405180910390a350505050505050565b60008290506001805490508110610ef6576040517f08c379a0000000000000000000000000000000000000000000000000000000008152600401610eed90614730565b60405180910390fd5b6000825111610f3a576040517f08c379a0000000000000000000000000000000000000000000000000000000008152600401610f319061479c565b60405180910390fd5b610f43336134a3565b610f82576040517f08c379a0000000000000000000000000000000000000000000000000000000008152600401610f7990614808565b60405180910390fd5b6000610f90600384866134b6565b90506006600085815260200190815260200160002081600001519080600181540180825580915050600190039060005260206000200160009091909190915055806060015173ffffffffffffffffffffffffffffffffffffffff167f949d956e521b9458935a243e9f4dbec94f18632d25c6d3495be1a8838ac13af1826020015183600001518460c0015160405161102a93929190614828565b60405180910390a250505050565b60606000600260008673ffffffffffffffffffffffffffffffffffffffff1673ffffffffffffffffffffffffffffffffffffffff1681526020019081526020016000208054806020026020016040519081016040528092919081815260200182805480156110c557602002820191906000526020600020905b8154815260200190600101908083116110b1575b505050505090508051841061110f576040517f08c379a0000000000000000000000000000000000000000000000000000000008152600401611106906148b2565b60405180910390fd5b6000838561111d91906148d2565b9050815181111561112d57815190505b6000858261113b9190614652565b905060008167ffffffffffffffff811115611159576111586139b7565b5b60405190808252806020026020018201604052801561119257816020015b61117f6137d0565b8152602001906001900390816111775790505b50905060005b828110156111ff57600085828a6111af91906148d2565b815181106111c0576111bf614686565b5b602002602001015190506111d381612006565b8383815181106111e6576111e5614686565b5b6020026020010181905250508080600101915050611198565b50809450505050509392505050565b6000819050600180549050811061125a576040517f08c379a000000000000000000000000000000000000000000000000000000000815260040161125190614730565b60405180910390fd5b611263336134a3565b6112a2576040517f08c379a000000000000000000000000000000000000000000000000000000000815260040161129990614808565b60405180910390fd5b60016005600084815260200190815260200160002060008282546112c691906148d2565b925050819055503373ffffffffffffffffffffffffffffffffffffffff167fc6f05f73e1566e0afb9211badaef43d9f5e9b1add102080584cb8f0e1149308f836040516113139190613fa0565b60405180910390a25050565b6000600260008373ffffffffffffffffffffffffffffffffffffffff1673ffffffffffffffffffffffffffffffffffffffff168152602001908152602001600020805490509050919050565b6006602052816000526040600020818154811061138757600080fd5b90600052602060002001600091509150505481565b6113a5336134a3565b6113e4576040517f08c379a00000000000000000000000000000000000000000000000000000000081526004016113db90614808565b60405180910390fd5b3373ffffffffffffffffffffffffffffffffffffffff167f25ba221a050a88ea7a5ee0fb3f5a111256700f9c5d334da25a14f986cd646f2a8260405161142a9190614906565b60405180910390a2806000803373ffffffffffffffffffffffffffffffffffffffff1673ffffffffffffffffffffffffffffffffffffffff16815260200190815260200160002060030190816114809190614b08565b5050565b60056020528060005260406000206000915090505481565b60006020528060005260406000206000915090508060000154908060010180546114c590614957565b80601f01602080910402602001604051908101604052809291908181526020018280546114f190614957565b801561153e5780601f106115135761010080835404028352916020019161153e565b820191906000526020600020905b81548152906001019060200180831161152157829003601f168201915b50505050509080600201805461155390614957565b80601f016020809104026020016040519081016040528092919081815260200182805461157f90614957565b80156115cc5780601f106115a1576101008083540402835291602001916115cc565b820191906000526020600020905b8154815290600101906020018083116115af57829003601f168201915b5050505050908060030180546115e190614957565b80601f016020809104026020016040519081016040528092919081815260200182805461160d90614957565b801561165a5780601f1061162f5761010080835404028352916020019161165a565b820191906000526020600020905b81548152906001019060200180831161163d57829003601f168201915b50505050509080600401805461166f90614957565b80601f016020809104026020016040519081016040528092919081815260200182805461169b90614957565b80156116e85780601f106116bd576101008083540402835291602001916116e8565b820191906000526020600020905b8154815290600101906020018083116116cb57829003601f168201915b5050505050905085565b6000819050600180549050811061173e576040517f08c379a000000000000000000000000000000000000000000000000000000000815260040161173590614730565b60405180910390fd5b6004600083815260200190815260200160002060003373ffffffffffffffffffffffffffffffffffffffff1673ffffffffffffffffffffffffffffffffffffffff16815260200190815260200160002060009054906101000a900460ff166117db576040517f08c379a00000000000000000000000000000000000000000000000000000000081526004016117d290614c26565b60405180910390fd5b6000600360008481526020019081526020016000205411611831576040517f08c379a000000000000000000000000000000000000000000000000000000000815260040161182890614c92565b60405180910390fd5b60016003600084815260200190815260200160002060008282546118559190614652565b9250508190555060006004600084815260200190815260200160002060003373ffffffffffffffffffffffffffffffffffffffff1673ffffffffffffffffffffffffffffffffffffffff16815260200190815260200160002060006101000a81548160ff0219169083151502179055503373ffffffffffffffffffffffffffffffffffffffff167f0dce267b7394146bcd9440db5b2b81d45e7c43ee4667daba50d2c096afa9b8d08360405161190b9190613fa0565b60405180910390a25050565b6001818154811061192757600080fd5b90600052602060002090600502016000915090508060000154908060010154908060020154908060030160009054906101000a900473ffffffffffffffffffffffffffffffffffffffff16908060030160149054906101000a900460ff16908060030160159054906101000a900460ff16908060040180546119a890614957565b80601f01602080910402602001604051908101604052809291908181526020018280546119d490614957565b8015611a215780601f106119f657610100808354040283529160200191611a21565b820191906000526020600020905b815481529060010190602001808311611a0457829003601f168201915b5050505050905087565b3373ffffffffffffffffffffffffffffffffffffffff168173ffffffffffffffffffffffffffffffffffffffff1603611a99576040517f08c379a0000000000000000000000000000000000000000000000000000000008152600401611a9090614cfe565b60405180910390fd5b611aa333826128c0565b15611ae3576040517f08c379a0000000000000000000000000000000000000000000000000000000008152600401611ada90614d6a565b60405180910390fd5b600760003373ffffffffffffffffffffffffffffffffffffffff1673ffffffffffffffffffffffffffffffffffffffff168152602001908152602001600020819080600181540180825580915050600190039060005260206000200160009091909190916101000a81548173ffffffffffffffffffffffffffffffffffffffff021916908373ffffffffffffffffffffffffffffffffffffffff1602179055506001600760003373ffffffffffffffffffffffffffffffffffffffff1673ffffffffffffffffffffffffffffffffffffffff16815260200190815260200160002080549050611bd29190614652565b600860003373ffffffffffffffffffffffffffffffffffffffff1673ffffffffffffffffffffffffffffffffffffffff16815260200190815260200160002060008373ffffffffffffffffffffffffffffffffffffffff1673ffffffffffffffffffffffffffffffffffffffff16815260200190815260200160002081905550600960008273ffffffffffffffffffffffffffffffffffffffff1673ffffffffffffffffffffffffffffffffffffffff168152602001908152602001600020339080600181540180825580915050600190039060005260206000200160009091909190916101000a81548173ffffffffffffffffffffffffffffffffffffffff021916908373ffffffffffffffffffffffffffffffffffffffff1602179055506001600960008373ffffffffffffffffffffffffffffffffffffffff1673ffffffffffffffffffffffffffffffffffffffff16815260200190815260200160002080549050611d419190614652565b600a60008373ffffffffffffffffffffffffffffffffffffffff1673ffffffffffffffffffffffffffffffffffffffff16815260200190815260200160002060003373ffffffffffffffffffffffffffffffffffffffff1673ffffffffffffffffffffffffffffffffffffffff168152602001908152602001600020819055508073ffffffffffffffffffffffffffffffffffffffff163373ffffffffffffffffffffffffffffffffffffffff167f30b3435b456f45779984ddfa456115ee4c20d9e446979b1b9e90dbb7e12b90b760405160405180910390a350565b60036020528060005260406000206000915090505481565b60008190506001805490508110611e82576040517f08c379a0000000000000000000000000000000000000000000000000000000008152600401611e7990614730565b60405180910390fd5b6004600083815260200190815260200160002060003373ffffffffffffffffffffffffffffffffffffffff1673ffffffffffffffffffffffffffffffffffffffff16815260200190815260200160002060009054906101000a900460ff1615611f20576040517f08c379a0000000000000000000000000000000000000000000000000000000008152600401611f1790614dd6565b60405180910390fd5b6001600360008481526020019081526020016000206000828254611f4491906148d2565b9250508190555060016004600084815260200190815260200160002060003373ffffffffffffffffffffffffffffffffffffffff1673ffffffffffffffffffffffffffffffffffffffff16815260200190815260200160002060006101000a81548160ff0219169083151502179055503373ffffffffffffffffffffffffffffffffffffffff167fc9b5b9db000d21d664ad6f78f6252c1bf358d53e66def587def640c86a5cbf5883604051611ffa9190613fa0565b60405180910390a25050565b61200e6137d0565b6001805490508210612055576040517f08c379a000000000000000000000000000000000000000000000000000000000815260040161204c90614730565b60405180910390fd5b61205d6137d0565b6001838154811061207157612070614686565b5b906000526020600020906005020160000154816000018181525050600183815481106120a05761209f614686565b5b906000526020600020906005020160010154816020018181525050600183815481106120cf576120ce614686565b5b906000526020600020906005020160020154816040018181525050600183815481106120fe576120fd614686565b5b906000526020600020906005020160030160009054906101000a900473ffffffffffffffffffffffffffffffffffffffff168160c0019073ffffffffffffffffffffffffffffffffffffffff16908173ffffffffffffffffffffffffffffffffffffffff16815250506001838154811061217b5761217a614686565b5b906000526020600020906005020160030160149054906101000a900460ff168160e0019060038111156121b1576121b0613c42565b5b908160038111156121c5576121c4613c42565b5b81525050600183815481106121dd576121dc614686565b5b906000526020600020906005020160030160159054906101000a900460ff1681610100019015159081151581525050600183815481106122205761221f614686565b5b9060005260206000209060050201600401805461223c90614957565b80601f016020809104026020016040519081016040528092919081815260200182805461226890614957565b80156122b55780601f1061228a576101008083540402835291602001916122b5565b820191906000526020600020905b81548152906001019060200180831161229857829003601f168201915b50505050508161014001819052506003600082600001518152602001908152602001600020548160600181815250506005600082600001518152602001908152602001600020548160800181815250506006600082600001518152602001908152602001600020805490508160a0018181525050600460008260000151815260200190815260200160002060003373ffffffffffffffffffffffffffffffffffffffff1673ffffffffffffffffffffffffffffffffffffffff16815260200190815260200160002060009054906101000a900460ff168161012001901515908115158152505080915050919050565b6123ad336134a3565b6123ec576040517f08c379a00000000000000000000000000000000000000000000000000000000081526004016123e390614808565b60405180910390fd5b3373ffffffffffffffffffffffffffffffffffffffff167fd9def9f574ceaca8c534179909ee60097126329fae5cd88460ed7b53176991e9826040516124329190614906565b60405180910390a2806000803373ffffffffffffffffffffffffffffffffffffffff1673ffffffffffffffffffffffffffffffffffffffff16815260200190815260200160002060040190816124889190614b08565b5050565b6000600180549050905090565b60008082905060018054905081106124e6576040517f08c379a00000000000000000000000000000000000000000000000000000000081526004016124dd90614730565b60405180910390fd5b6006600084815260200190815260200160002080549050915050919050565b60006060806060806000806000806000808b73ffffffffffffffffffffffffffffffffffffffff1673ffffffffffffffffffffffffffffffffffffffff1681526020019081526020016000206040518060a00160405290816000820154815260200160018201805461257690614957565b80601f01602080910402602001604051908101604052809291908181526020018280546125a290614957565b80156125ef5780601f106125c4576101008083540402835291602001916125ef565b820191906000526020600020905b8154815290600101906020018083116125d257829003601f168201915b5050505050815260200160028201805461260890614957565b80601f016020809104026020016040519081016040528092919081815260200182805461263490614957565b80156126815780601f1061265657610100808354040283529160200191612681565b820191906000526020600020905b81548152906001019060200180831161266457829003601f168201915b5050505050815260200160038201805461269a90614957565b80601f01602080910402602001604051908101604052809291908181526020018280546126c690614957565b80156127135780601f106126e857610100808354040283529160200191612713565b820191906000526020600020905b8154815290600101906020018083116126f657829003601f168201915b5050505050815260200160048201805461272c90614957565b80601f016020809104026020016040519081016040528092919081815260200182805461275890614957565b80156127a55780601f1061277a576101008083540402835291602001916127a5565b820191906000526020600020905b81548152906001019060200180831161278857829003601f168201915b50505050508152505090506000600960008c73ffffffffffffffffffffffffffffffffffffffff1673ffffffffffffffffffffffffffffffffffffffff1681526020019081526020016000208054905090506000600760008d73ffffffffffffffffffffffffffffffffffffffff1673ffffffffffffffffffffffffffffffffffffffff1681526020019081526020016000208054905090506000600260008e73ffffffffffffffffffffffffffffffffffffffff1673ffffffffffffffffffffffffffffffffffffffff168152602001908152602001600020805490509050836000015184602001518560400151866060015187608001518787879b509b509b509b509b509b509b509b5050505050919395975091939597565b600080600860008573ffffffffffffffffffffffffffffffffffffffff1673ffffffffffffffffffffffffffffffffffffffff16815260200190815260200160002060008473ffffffffffffffffffffffffffffffffffffffff1673ffffffffffffffffffffffffffffffffffffffff16815260200190815260200160002054905060008103612a51576000600760008673ffffffffffffffffffffffffffffffffffffffff1673ffffffffffffffffffffffffffffffffffffffff168152602001908152602001600020805490500361299e576000915050612a57565b8273ffffffffffffffffffffffffffffffffffffffff16600760008673ffffffffffffffffffffffffffffffffffffffff1673ffffffffffffffffffffffffffffffffffffffff168152602001908152602001600020600081548110612a0757612a06614686565b5b9060005260206000200160009054906101000a900473ffffffffffffffffffffffffffffffffffffffff1673ffffffffffffffffffffffffffffffffffffffff1614915050612a57565b60019150505b92915050565b6000808290506001805490508110612aaa576040517f08c379a0000000000000000000000000000000000000000000000000000000008152600401612aa190614730565b60405180910390fd5b6004600084815260200190815260200160002060008573ffffffffffffffffffffffffffffffffffffffff1673ffffffffffffffffffffffffffffffffffffffff16815260200190815260200160002060009054906101000a900460ff1691505092915050565b6000808290506001805490508110612b5e576040517f08c379a0000000000000000000000000000000000000000000000000000000008152600401612b5590614730565b60405180910390fd5b6003600084815260200190815260200160002054915050919050565b6000808290506001805490508110612bc7576040517f08c379a0000000000000000000000000000000000000000000000000000000008152600401612bbe90614730565b60405180910390fd5b6005600084815260200190815260200160002054915050919050565b6060600960008373ffffffffffffffffffffffffffffffffffffffff1673ffffffffffffffffffffffffffffffffffffffff168152602001908152602001600020805480602002602001604051908101604052809291908181526020018280548015612ca457602002820191906000526020600020905b8160009054906101000a900473ffffffffffffffffffffffffffffffffffffffff1673ffffffffffffffffffffffffffffffffffffffff1681526020019060010190808311612c5a575b50505050509050919050565b612cb9336134a3565b612cf8576040517f08c379a0000000000000000000000000000000000000000000000000000000008152600401612cef90614808565b60405180910390fd5b6000612d0760008360006134b6565b9050806060015173ffffffffffffffffffffffffffffffffffffffff167f5d3ca796c8e5fe75c8a7747dec3a5855fceee05ba3a1cc0a7f55a432428be6d582600001518360c00151604051612d5d929190614df6565b60405180910390a25050565b6060600760008373ffffffffffffffffffffffffffffffffffffffff1673ffffffffffffffffffffffffffffffffffffffff168152602001908152602001600020805480602002602001604051908101604052809291908181526020018280548015612e2a57602002820191906000526020600020905b8160009054906101000a900473ffffffffffffffffffffffffffffffffffffffff1673ffffffffffffffffffffffffffffffffffffffff1681526020019060010190808311612de0575b50505050509050919050565b60026020528160005260406000208181548110612e5257600080fd5b90600052602060002001600091509150505481565b60606001805490508310612eb0576040517f08c379a0000000000000000000000000000000000000000000000000000000008152600401612ea7906148b2565b60405180910390fd5b60008284612ebe91906148d2565b9050600180549050811115612ed65760018054905090505b60008482612ee49190614652565b905060008167ffffffffffffffff811115612f0257612f016139b7565b5b604051908082528060200260200182016040528015612f3b57816020015b612f286137d0565b815260200190600190039081612f205790505b50905060005b82811015612f8857612f5d8188612f5891906148d2565b612006565b828281518110612f7057612f6f614686565b5b60200260200101819052508080600101915050612f41565b5080935050505092915050565b606060008490506001805490508110612fe3576040517f08c379a0000000000000000000000000000000000000000000000000000000008152600401612fda90614730565b60405180910390fd5b60006006600087815260200190815260200160002080548060200260200160405190810160405280929190818152602001828054801561304257602002820191906000526020600020905b81548152602001906001019080831161302e575b505050505090508051851061308c576040517f08c379a0000000000000000000000000000000000000000000000000000000008152600401613083906148b2565b60405180910390fd5b6000848661309a91906148d2565b905081518111156130aa57815190505b600086826130b89190614652565b905060008167ffffffffffffffff8111156130d6576130d56139b7565b5b60405190808252806020026020018201604052801561310f57816020015b6130fc6137d0565b8152602001906001900390816130f45790505b50905060005b8281101561317c57600085828b61312c91906148d2565b8151811061313d5761313c614686565b5b6020026020010151905061315081612006565b83838151811061316357613162614686565b5b6020026020010181905250508080600101915050613115565b5080955050505050509392505050565b6131cb6040518060400160405280601881526020017f736574557365726e616d652063616c6c656420776974683a000000000000000081525082613695565b602081511115613210576040517f08c379a000000000000000000000000000000000000000000000000000000000815260040161320790614e98565b60405180910390fd5b61321933613731565b156132ac57426000803373ffffffffffffffffffffffffffffffffffffffff1673ffffffffffffffffffffffffffffffffffffffff168152602001908152602001600020600001819055503373ffffffffffffffffffffffffffffffffffffffff167f0b0376a109cbb578b709f85f6a7befcdac3ac1ab251c99ede87f30c9572ac4d360405160405180910390a26132fb565b3373ffffffffffffffffffffffffffffffffffffffff167f1af4cc3acb57f067d1d582e3932be6692a4c9a31d8b3a8567dfc1c340a02d534826040516132f29190614906565b60405180910390a25b806000803373ffffffffffffffffffffffffffffffffffffffff1673ffffffffffffffffffffffffffffffffffffffff16815260200190815260200160002060010190816133499190614b08565b506133896040518060400160405280601081526020017f557365726e616d652073657420746f3a0000000000000000000000000000000081525082613695565b50565b60046020528160005260406000206020528060005260406000206000915091509054906101000a900460ff1681565b6133c4336134a3565b613403576040517f08c379a00000000000000000000000000000000000000000000000000000000081526004016133fa90614808565b60405180910390fd5b3373ffffffffffffffffffffffffffffffffffffffff167f3f838a7d0889a59b2445af5389196b3948170278848eb90d8d256ab14aaf4cf0826040516134499190614906565b60405180910390a2806000803373ffffffffffffffffffffffffffffffffffffffff1673ffffffffffffffffffffffffffffffffffffffff168152602001908152602001600020600201908161349f9190614b08565b5050565b60006134ae82613731565b159050919050565b6134be613856565b6000600180549050905060006040518060e001604052808381526020018581526020014281526020013373ffffffffffffffffffffffffffffffffffffffff16815260200187600381111561351657613515613c42565b5b8152602001600015158152602001868152509050600181908060018154018082558091505060019003906000526020600020906005020160009091909190915060008201518160000155602082015181600101556040820151816002015560608201518160030160006101000a81548173ffffffffffffffffffffffffffffffffffffffff021916908373ffffffffffffffffffffffffffffffffffffffff16021790555060808201518160030160146101000a81548160ff021916908360038111156135e6576135e5613c42565b5b021790555060a08201518160030160156101000a81548160ff02191690831515021790555060c08201518160040190816136209190614b08565b505050600260003373ffffffffffffffffffffffffffffffffffffffff1673ffffffffffffffffffffffffffffffffffffffff16815260200190815260200160002082908060018154018082558091505060019003906000526020600020016000909190919091505580925050509392505050565b61372d82826040516024016136ab929190614eb8565b6040516020818303038152906040527f4b5c4277000000000000000000000000000000000000000000000000000000007bffffffffffffffffffffffffffffffffffffffffffffffffffffffff19166020820180517bffffffffffffffffffffffffffffffffffffffffffffffffffffffff838183161783525050505061378a565b5050565b6000806000808473ffffffffffffffffffffffffffffffffffffffff1673ffffffffffffffffffffffffffffffffffffffff168152602001908152602001600020600101805461378090614957565b9050149050919050565b6137a1816137996137a46137c5565b63ffffffff16565b50565b60006a636f6e736f6c652e6c6f679050600080835160208501845afa505050565b6138bd819050919050565b604051806101600160405280600081526020016000815260200160008152602001600081526020016000815260200160008152602001600073ffffffffffffffffffffffffffffffffffffffff1681526020016000600381111561383757613836613c42565b5b8152602001600015158152602001600015158152602001606081525090565b6040518060e00160405280600081526020016000815260200160008152602001600073ffffffffffffffffffffffffffffffffffffffff168152602001600060038111156138a7576138a6613c42565b5b8152602001600015158152602001606081525090565b6138c5614eef565b565b6000604051905090565b600080fd5b600080fd5b600073ffffffffffffffffffffffffffffffffffffffff82169050919050565b6000613906826138db565b9050919050565b613916816138fb565b811461392157600080fd5b50565b6000813590506139338161390d565b92915050565b60006020828403121561394f5761394e6138d1565b5b600061395d84828501613924565b91505092915050565b6000819050919050565b61397981613966565b811461398457600080fd5b50565b60008135905061399681613970565b92915050565b600080fd5b600080fd5b6000601f19601f8301169050919050565b7f4e487b7100000000000000000000000000000000000000000000000000000000600052604160045260246000fd5b6139ef826139a6565b810181811067ffffffffffffffff82111715613a0e57613a0d6139b7565b5b80604052505050565b6000613a216138c7565b9050613a2d82826139e6565b919050565b600067ffffffffffffffff821115613a4d57613a4c6139b7565b5b613a56826139a6565b9050602081019050919050565b82818337600083830152505050565b6000613a85613a8084613a32565b613a17565b905082815260208101848484011115613aa157613aa06139a1565b5b613aac848285613a63565b509392505050565b600082601f830112613ac957613ac861399c565b5b8135613ad9848260208601613a72565b91505092915050565b60008060408385031215613af957613af86138d1565b5b6000613b0785828601613987565b925050602083013567ffffffffffffffff811115613b2857613b276138d6565b5b613b3485828601613ab4565b9150509250929050565b613b4781613966565b8114613b5257600080fd5b50565b600081359050613b6481613b3e565b92915050565b600080600060608486031215613b8357613b826138d1565b5b6000613b9186828701613924565b9350506020613ba286828701613b55565b9250506040613bb386828701613b55565b9150509250925092565b600081519050919050565b600082825260208201905092915050565b6000819050602082019050919050565b6000819050919050565b6000613c0e613c09613c0484613966565b613be9565b613966565b9050919050565b613c1e81613bf3565b82525050565b613c2d81613966565b82525050565b613c3c816138fb565b82525050565b7f4e487b7100000000000000000000000000000000000000000000000000000000600052602160045260246000fd5b60048110613c8257613c81613c42565b5b50565b6000819050613c9382613c71565b919050565b6000613ca382613c85565b9050919050565b613cb381613c98565b82525050565b60008115159050919050565b613cce81613cb9565b82525050565b600081519050919050565b600082825260208201905092915050565b60005b83811015613d0e578082015181840152602081019050613cf3565b60008484015250505050565b6000613d2582613cd4565b613d2f8185613cdf565b9350613d3f818560208601613cf0565b613d48816139a6565b840191505092915050565b600061016083016000830151613d6c6000860182613c15565b506020830151613d7f6020860182613c15565b506040830151613d926040860182613c24565b506060830151613da56060860182613c24565b506080830151613db86080860182613c24565b5060a0830151613dcb60a0860182613c24565b5060c0830151613dde60c0860182613c33565b5060e0830151613df160e0860182613caa565b50610100830151613e06610100860182613cc5565b50610120830151613e1b610120860182613cc5565b50610140830151848203610140860152613e358282613d1a565b9150508091505092915050565b6000613e4e8383613d53565b905092915050565b6000602082019050919050565b6000613e6e82613bbd565b613e788185613bc8565b935083602082028501613e8a85613bd9565b8060005b85811015613ec65784840389528151613ea78582613e42565b9450613eb283613e56565b925060208a01995050600181019050613e8e565b50829750879550505050505092915050565b60006020820190508181036000830152613ef28184613e63565b905092915050565b600060208284031215613f1057613f0f6138d1565b5b6000613f1e84828501613987565b91505092915050565b613f3081613966565b82525050565b6000602082019050613f4b6000830184613f27565b92915050565b60008060408385031215613f6857613f676138d1565b5b6000613f7685828601613987565b9250506020613f8785828601613b55565b9150509250929050565b613f9a81613bf3565b82525050565b6000602082019050613fb56000830184613f91565b92915050565b600060208284031215613fd157613fd06138d1565b5b600082013567ffffffffffffffff811115613fef57613fee6138d6565b5b613ffb84828501613ab4565b91505092915050565b600082825260208201905092915050565b600061402082613cd4565b61402a8185614004565b935061403a818560208601613cf0565b614043816139a6565b840191505092915050565b600060a0820190506140636000830188613f27565b81810360208301526140758187614015565b905081810360408301526140898186614015565b9050818103606083015261409d8185614015565b905081810360808301526140b18184614015565b90509695505050505050565b6000602082840312156140d3576140d26138d1565b5b60006140e184828501613b55565b91505092915050565b6140f3816138fb565b82525050565b61410281613c98565b82525050565b61411181613cb9565b82525050565b600060e08201905061412c600083018a613f91565b6141396020830189613f91565b6141466040830188613f27565b61415360608301876140ea565b61416060808301866140f9565b61416d60a0830185614108565b81810360c083015261417f8184614015565b905098975050505050505050565b6000610160830160008301516141a66000860182613c15565b5060208301516141b96020860182613c15565b5060408301516141cc6040860182613c24565b5060608301516141df6060860182613c24565b5060808301516141f26080860182613c24565b5060a083015161420560a0860182613c24565b5060c083015161421860c0860182613c33565b5060e083015161422b60e0860182613caa565b50610100830151614240610100860182613cc5565b50610120830151614255610120860182613cc5565b5061014083015184820361014086015261426f8282613d1a565b9150508091505092915050565b60006020820190508181036000830152614296818461418d565b905092915050565b6000610100820190506142b4600083018b613f27565b81810360208301526142c6818a614015565b905081810360408301526142da8189614015565b905081810360608301526142ee8188614015565b905081810360808301526143028187614015565b905061431160a0830186613f27565b61431e60c0830185613f27565b61432b60e0830184613f27565b9998505050505050505050565b6000806040838503121561434f5761434e6138d1565b5b600061435d85828601613924565b925050602061436e85828601613924565b9150509250929050565b600060208201905061438d6000830184614108565b92915050565b600080604083850312156143aa576143a96138d1565b5b60006143b885828601613924565b92505060206143c985828601613987565b9150509250929050565b600081519050919050565b600082825260208201905092915050565b6000819050602082019050919050565b600061440b8383613c33565b60208301905092915050565b6000602082019050919050565b600061442f826143d3565b61443981856143de565b9350614444836143ef565b8060005b8381101561447557815161445c88826143ff565b975061446783614417565b925050600181019050614448565b5085935050505092915050565b6000602082019050818103600083015261449c8184614424565b905092915050565b600080604083850312156144bb576144ba6138d1565b5b60006144c985828601613924565b92505060206144da85828601613b55565b9150509250929050565b600080604083850312156144fb576144fa6138d1565b5b600061450985828601613b55565b925050602061451a85828601613b55565b9150509250929050565b60008060006060848603121561453d5761453c6138d1565b5b600061454b86828701613987565b935050602061455c86828701613b55565b925050604061456d86828701613b55565b9150509250925092565b6000806040838503121561458e5761458d6138d1565b5b600061459c85828601613987565b92505060206145ad85828601613924565b9150509250929050565b7f4e6f7420666f6c6c6f77696e6700000000000000000000000000000000000000600082015250565b60006145ed600d83614004565b91506145f8826145b7565b602082019050919050565b6000602082019050818103600083015261461c816145e0565b9050919050565b7f4e487b7100000000000000000000000000000000000000000000000000000000600052601160045260246000fd5b600061465d82613966565b915061466883613966565b92508282039050818111156146805761467f614623565b5b92915050565b7f4e487b7100000000000000000000000000000000000000000000000000000000600052603260045260246000fd5b7f4e487b7100000000000000000000000000000000000000000000000000000000600052603160045260246000fd5b7f496e76616c69642063617276696e672049440000000000000000000000000000600082015250565b600061471a601283614004565b9150614725826146e4565b602082019050919050565b600060208201905081810360008301526147498161470d565b9050919050565b7f45746368206d6573736167652063616e6e6f7420626520656d70747900000000600082015250565b6000614786601c83614004565b915061479182614750565b602082019050919050565b600060208201905081810360008301526147b581614779565b9050919050565b7f50726f66696c6520646f6573206e6f7420657869737400000000000000000000600082015250565b60006147f2601683614004565b91506147fd826147bc565b602082019050919050565b60006020820190508181036000830152614821816147e5565b9050919050565b600060608201905061483d6000830186613f91565b61484a6020830185613f91565b818103604083015261485c8184614015565b9050949350505050565b7f537461727420696e646578206f7574206f6620626f756e647300000000000000600082015250565b600061489c601983614004565b91506148a782614866565b602082019050919050565b600060208201905081810360008301526148cb8161488f565b9050919050565b60006148dd82613966565b91506148e883613966565b9250828201905080821115614900576148ff614623565b5b92915050565b600060208201905081810360008301526149208184614015565b905092915050565b7f4e487b7100000000000000000000000000000000000000000000000000000000600052602260045260246000fd5b6000600282049050600182168061496f57607f821691505b60208210810361498257614981614928565b5b50919050565b60008190508160005260206000209050919050565b60006020601f8301049050919050565b600082821b905092915050565b6000600883026149ea7fffffffffffffffffffffffffffffffffffffffffffffffffffffffffffffffff826149ad565b6149f486836149ad565b95508019841693508086168417925050509392505050565b6000819050919050565b614a1f83613bf3565b614a33614a2b82614a0c565b8484546149ba565b825550505050565b600090565b614a48614a3b565b614a53818484614a16565b505050565b5b81811015614a7757614a6c600082614a40565b600181019050614a59565b5050565b601f821115614abc57614a8d81614988565b614a968461499d565b81016020851015614aa5578190505b614ab9614ab18561499d565b830182614a58565b50505b505050565b600082821c905092915050565b6000614adf60001984600802614ac1565b1980831691505092915050565b6000614af88383614ace565b9150826002028217905092915050565b614b1182613cd4565b67ffffffffffffffff811115614b2a57614b296139b7565b5b614b348254614957565b614b3f828285614a7b565b600060209050601f831160018114614b725760008415614b60578287015190505b614b6a8582614aec565b865550614bd2565b601f198416614b8086614988565b60005b82811015614ba857848901518255600182019150602085019450602081019050614b83565b86831015614bc55784890151614bc1601f891682614ace565b8355505b6001600288020188555050505b505050505050565b7f4e6f74206c696b65642079657400000000000000000000000000000000000000600082015250565b6000614c10600d83614004565b9150614c1b82614bda565b602082019050919050565b60006020820190508181036000830152614c3f81614c03565b9050919050565b7f4c696b6520636f756e7420616c7265616479207a65726f000000000000000000600082015250565b6000614c7c601783614004565b9150614c8782614c46565b602082019050919050565b60006020820190508181036000830152614cab81614c6f565b9050919050565b7f43616e6e6f7420666f6c6c6f772073656c660000000000000000000000000000600082015250565b6000614ce8601283614004565b9150614cf382614cb2565b602082019050919050565b60006020820190508181036000830152614d1781614cdb565b9050919050565b7f416c726561647920666f6c6c6f77696e67000000000000000000000000000000600082015250565b6000614d54601183614004565b9150614d5f82614d1e565b602082019050919050565b60006020820190508181036000830152614d8381614d47565b9050919050565b7f416c7265616479206c696b656400000000000000000000000000000000000000600082015250565b6000614dc0600d83614004565b9150614dcb82614d8a565b602082019050919050565b60006020820190508181036000830152614def81614db3565b9050919050565b6000604082019050614e0b6000830185613f91565b8181036020830152614e1d8184614015565b90509392505050565b7f557365726e616d65206d7573742062652033322063686172616374657273206f60008201527f72206c6573730000000000000000000000000000000000000000000000000000602082015250565b6000614e82602683614004565b9150614e8d82614e26565b604082019050919050565b60006020820190508181036000830152614eb181614e75565b9050919050565b60006040820190508181036000830152614ed28185614015565b90508181036020830152614ee68184614015565b90509392505050565b7f4e487b7100000000000000000000000000000000000000000000000000000000600052605160045260246000fdfea264697066735822122074d260818683070e5036fef89aee3c8878a835306de1834bdd57d24e17d8ec5464736f6c634300081c0033",
  "linkReferences": {},
  "deployedLinkReferences": {}
}