{
  "_format": "hh-sol-artifact-1",
  "contractName": "carve",
  "sourceName": "contracts/carve.sol",
  "abi": [
    {
      "anonymous": false,
      "inputs": [
        {
          "indexed": true,
          "internalType": "address",
          "name": "user",
          "type": "address"
        },
        {
          "indexed": false,
          "internalType": "string",
          "name": "newBackgroundURL",
          "type": "string"
        }
      ],
      "name": "BackgroundURLUpdated",
      "type": "event"
    },
    {
      "anonymous": false,
      "inputs": [
        {
          "indexed": true,
          "internalType": "address",
          "name": "user",
          "type": "address"
        },
        {
          "indexed": false,
          "internalType": "string",
          "name": "newBio",
          "type": "string"
        }
      ],
      "name": "BioUpdated",
      "type": "event"
    },
    {
      "anonymous": false,
      "inputs": [
        {
          "indexed": true,
          "internalType": "address",
          "name": "user",
          "type": "address"
        },
        {
          "indexed": false,
          "internalType": "CarvingId",
          "name": "carvingId",
          "type": "uint256"
        },
        {
          "indexed": false,
          "internalType": "string",
          "name": "message",
          "type": "string"
        }
      ],
      "name": "CarvingCreated",
      "type": "event"
    },
    {
      "anonymous": false,
      "inputs": [
        {
          "indexed": true,
          "internalType": "address",
          "name": "user",
          "type": "address"
        },
        {
          "indexed": false,
          "internalType": "CarvingId",
          "name": "carvingId",
          "type": "uint256"
        }
      ],
      "name": "CarvingLiked",
      "type": "event"
    },
    {
      "anonymous": false,
      "inputs": [
        {
          "indexed": true,
          "internalType": "address",
          "name": "user",
          "type": "address"
        },
        {
          "indexed": false,
          "internalType": "CarvingId",
          "name": "carvingId",
          "type": "uint256"
        }
      ],
      "name": "CarvingRecarved",
      "type": "event"
    },
    {
      "anonymous": false,
      "inputs": [
        {
          "indexed": true,
          "internalType": "address",
          "name": "user",
          "type": "address"
        },
        {
          "indexed": false,
          "internalType": "CarvingId",
          "name": "carvingId",
          "type": "uint256"
        }
      ],
      "name": "CarvingUnliked",
      "type": "event"
    },
    {
      "anonymous": false,
      "inputs": [
        {
          "indexed": true,
          "internalType": "address",
          "name": "user",
          "type": "address"
        },
        {
          "indexed": false,
          "internalType": "CarvingId",
          "name": "carvingId",
          "type": "uint256"
        },
        {
          "indexed": false,
          "internalType": "CarvingId",
          "name": "etchId",
          "type": "uint256"
        },
        {
          "indexed": false,
          "internalType": "string",
          "name": "message",
          "type": "string"
        }
      ],
      "name": "EtchAdded",
      "type": "event"
    },
    {
      "anonymous": false,
      "inputs": [
        {
          "indexed": true,
          "internalType": "address",
          "name": "user",
          "type": "address"
        },
        {
          "indexed": false,
          "internalType": "string",
          "name": "newPfpURL",
          "type": "string"
        }
      ],
      "name": "PfpURLUpdated",
      "type": "event"
    },
    {
      "anonymous": false,
      "inputs": [
        {
          "indexed": true,
          "internalType": "address",
          "name": "user",
          "type": "address"
        }
      ],
      "name": "UserCreated",
      "type": "event"
    },
    {
      "anonymous": false,
      "inputs": [
        {
          "indexed": true,
          "internalType": "address",
          "name": "follower",
          "type": "address"
        },
        {
          "indexed": true,
          "internalType": "address",
          "name": "followedUser",
          "type": "address"
        }
      ],
      "name": "UserFollowed",
      "type": "event"
    },
    {
      "anonymous": false,
      "inputs": [
        {
          "indexed": true,
          "internalType": "address",
          "name": "follower",
          "type": "address"
        },
        {
          "indexed": true,
          "internalType": "address",
          "name": "unfollowedUser",
          "type": "address"
        }
      ],
      "name": "UserUnfollowed",
      "type": "event"
    },
    {
      "anonymous": false,
      "inputs": [
        {
          "indexed": true,
          "internalType": "address",
          "name": "user",
          "type": "address"
        },
        {
          "indexed": false,
          "internalType": "string",
          "name": "newUsername",
          "type": "string"
        }
      ],
      "name": "UsernameUpdated",
      "type": "event"
    },
    {
      "inputs": [
        {
          "internalType": "CarvingId",
          "name": "",
          "type": "uint256"
        },
        {
          "internalType": "uint256",
          "name": "",
          "type": "uint256"
        }
      ],
      "name": "carvingEtches",
      "outputs": [
        {
          "internalType": "CarvingId",
          "name": "",
          "type": "uint256"
        }
      ],
      "stateMutability": "view",
      "type": "function"
    },
    {
      "inputs": [
        {
          "internalType": "CarvingId",
          "name": "",
          "type": "uint256"
        }
      ],
      "name": "carvingLikeCounts",
      "outputs": [
        {
          "internalType": "uint256",
          "name": "",
          "type": "uint256"
        }
      ],
      "stateMutability": "view",
      "type": "function"
    },
    {
      "inputs": [
        {
          "internalType": "CarvingId",
          "name": "",
          "type": "uint256"
        },
        {
          "internalType": "address",
          "name": "",
          "type": "address"
        }
      ],
      "name": "carvingLikedBy",
      "outputs": [
        {
          "internalType": "bool",
          "name": "",
          "type": "bool"
        }
      ],
      "stateMutability": "view",
      "type": "function"
    },
    {
      "inputs": [
        {
          "internalType": "CarvingId",
          "name": "",
          "type": "uint256"
        }
      ],
      "name": "carvingRecarveCounts",
      "outputs": [
        {
          "internalType": "uint256",
          "name": "",
          "type": "uint256"
        }
      ],
      "stateMutability": "view",
      "type": "function"
    },
    {
      "inputs": [
        {
          "internalType": "uint256",
          "name": "",
          "type": "uint256"
        }
      ],
      "name": "carvings",
      "outputs": [
        {
          "internalType": "CarvingId",
          "name": "id",
          "type": "uint256"
        },
        {
          "internalType": "enum carve.CarvingType",
          "name": "carvingType",
          "type": "uint8"
        },
        {
          "internalType": "address",
          "name": "carver",
          "type": "address"
        },
        {
          "internalType": "string",
          "name": "message",
          "type": "string"
        },
        {
          "internalType": "uint256",
          "name": "sentAt",
          "type": "uint256"
        },
        {
          "internalType": "CarvingId",
          "name": "originalCarvingId",
          "type": "uint256"
        },
        {
          "internalType": "bool",
          "name": "hidden",
          "type": "bool"
        }
      ],
      "stateMutability": "view",
      "type": "function"
    },
    {
      "inputs": [
        {
          "internalType": "string",
          "name": "_message",
          "type": "string"
        }
      ],
      "name": "createCarving",
      "outputs": [],
      "stateMutability": "nonpayable",
      "type": "function"
    },
    {
      "inputs": [
        {
          "internalType": "CarvingId",
          "name": "_carvingId",
          "type": "uint256"
        },
        {
          "internalType": "string",
          "name": "_message",
          "type": "string"
        }
      ],
      "name": "etchUnderCarving",
      "outputs": [],
      "stateMutability": "nonpayable",
      "type": "function"
    },
    {
      "inputs": [
        {
          "internalType": "address",
          "name": "_userToFollow",
          "type": "address"
        }
      ],
      "name": "follow",
      "outputs": [],
      "stateMutability": "nonpayable",
      "type": "function"
    },
    {
      "inputs": [
        {
          "internalType": "uint256",
          "name": "start",
          "type": "uint256"
        },
        {
          "internalType": "uint256",
          "name": "count",
          "type": "uint256"
        }
      ],
      "name": "getCarvings",
      "outputs": [
        {
          "components": [
            {
              "internalType": "CarvingId",
              "name": "id",
              "type": "uint256"
            },
            {
              "internalType": "enum carve.CarvingType",
              "name": "carvingType",
              "type": "uint8"
            },
            {
              "internalType": "address",
              "name": "carver",
              "type": "address"
            },
            {
              "internalType": "string",
              "name": "message",
              "type": "string"
            },
            {
              "internalType": "uint256",
              "name": "sentAt",
              "type": "uint256"
            },
            {
              "internalType": "CarvingId",
              "name": "originalCarvingId",
              "type": "uint256"
            },
            {
              "internalType": "bool",
              "name": "hidden",
              "type": "bool"
            }
          ],
          "internalType": "struct carve.Carving[]",
          "name": "",
          "type": "tuple[]"
        }
      ],
      "stateMutability": "view",
      "type": "function"
    },
    {
      "inputs": [],
      "name": "getCarvingsCount",
      "outputs": [
        {
          "internalType": "uint256",
          "name": "",
          "type": "uint256"
        }
      ],
      "stateMutability": "view",
      "type": "function"
    },
    {
      "inputs": [
        {
          "internalType": "CarvingId",
          "name": "_carvingId",
          "type": "uint256"
        }
      ],
      "name": "getEtchCount",
      "outputs": [
        {
          "internalType": "uint256",
          "name": "",
          "type": "uint256"
        }
      ],
      "stateMutability": "view",
      "type": "function"
    },
    {
      "inputs": [
        {
          "internalType": "CarvingId",
          "name": "_carvingId",
          "type": "uint256"
        },
        {
          "internalType": "uint256",
          "name": "start",
          "type": "uint256"
        },
        {
          "internalType": "uint256",
          "name": "count",
          "type": "uint256"
        }
      ],
      "name": "getEtches",
      "outputs": [
        {
          "components": [
            {
              "internalType": "CarvingId",
              "name": "id",
              "type": "uint256"
            },
            {
              "internalType": "enum carve.CarvingType",
              "name": "carvingType",
              "type": "uint8"
            },
            {
              "internalType": "address",
              "name": "carver",
              "type": "address"
            },
            {
              "internalType": "string",
              "name": "message",
              "type": "string"
            },
            {
              "internalType": "uint256",
              "name": "sentAt",
              "type": "uint256"
            },
            {
              "internalType": "CarvingId",
              "name": "originalCarvingId",
              "type": "uint256"
            },
            {
              "internalType": "bool",
              "name": "hidden",
              "type": "bool"
            }
          ],
          "internalType": "struct carve.Carving[]",
          "name": "",
          "type": "tuple[]"
        }
      ],
      "stateMutability": "view",
      "type": "function"
    },
    {
      "inputs": [
        {
          "internalType": "address",
          "name": "user",
          "type": "address"
        }
      ],
      "name": "getFollowers",
      "outputs": [
        {
          "internalType": "address[]",
          "name": "",
          "type": "address[]"
        }
      ],
      "stateMutability": "view",
      "type": "function"
    },
    {
      "inputs": [
        {
          "internalType": "address",
          "name": "user",
          "type": "address"
        }
      ],
      "name": "getFollowings",
      "outputs": [
        {
          "internalType": "address[]",
          "name": "",
          "type": "address[]"
        }
      ],
      "stateMutability": "view",
      "type": "function"
    },
    {
      "inputs": [
        {
          "internalType": "CarvingId",
          "name": "_carvingId",
          "type": "uint256"
        }
      ],
      "name": "getLikesCount",
      "outputs": [
        {
          "internalType": "uint256",
          "name": "",
          "type": "uint256"
        }
      ],
      "stateMutability": "view",
      "type": "function"
    },
    {
      "inputs": [
        {
          "internalType": "CarvingId",
          "name": "_carvingId",
          "type": "uint256"
        }
      ],
      "name": "getRecarvesCount",
      "outputs": [
        {
          "internalType": "uint256",
          "name": "",
          "type": "uint256"
        }
      ],
      "stateMutability": "view",
      "type": "function"
    },
    {
      "inputs": [
        {
          "internalType": "address",
          "name": "_user",
          "type": "address"
        },
        {
          "internalType": "uint256",
          "name": "start",
          "type": "uint256"
        },
        {
          "internalType": "uint256",
          "name": "count",
          "type": "uint256"
        }
      ],
      "name": "getUserCarvings",
      "outputs": [
        {
          "components": [
            {
              "internalType": "CarvingId",
              "name": "id",
              "type": "uint256"
            },
            {
              "internalType": "enum carve.CarvingType",
              "name": "carvingType",
              "type": "uint8"
            },
            {
              "internalType": "address",
              "name": "carver",
              "type": "address"
            },
            {
              "internalType": "string",
              "name": "message",
              "type": "string"
            },
            {
              "internalType": "uint256",
              "name": "sentAt",
              "type": "uint256"
            },
            {
              "internalType": "CarvingId",
              "name": "originalCarvingId",
              "type": "uint256"
            },
            {
              "internalType": "bool",
              "name": "hidden",
              "type": "bool"
            }
          ],
          "internalType": "struct carve.Carving[]",
          "name": "",
          "type": "tuple[]"
        }
      ],
      "stateMutability": "view",
      "type": "function"
    },
    {
      "inputs": [
        {
          "internalType": "address",
          "name": "_user",
          "type": "address"
        }
      ],
      "name": "getUserProfile",
      "outputs": [
        {
          "internalType": "uint256",
          "name": "createdAt",
          "type": "uint256"
        },
        {
          "internalType": "string",
          "name": "username",
          "type": "string"
        },
        {
          "internalType": "string",
          "name": "bio",
          "type": "string"
        },
        {
          "internalType": "string",
          "name": "pfpURL",
          "type": "string"
        },
        {
          "internalType": "string",
          "name": "backgroundURL",
          "type": "string"
        }
      ],
      "stateMutability": "view",
      "type": "function"
    },
    {
      "inputs": [
        {
          "internalType": "address",
          "name": "_user",
          "type": "address"
        },
        {
          "internalType": "CarvingId",
          "name": "_carvingId",
          "type": "uint256"
        }
      ],
      "name": "hasLikedCarving",
      "outputs": [
        {
          "internalType": "bool",
          "name": "",
          "type": "bool"
        }
      ],
      "stateMutability": "view",
      "type": "function"
    },
    {
      "inputs": [
        {
          "internalType": "address",
          "name": "follower",
          "type": "address"
        },
        {
          "internalType": "address",
          "name": "followee",
          "type": "address"
        }
      ],
      "name": "isFollowing",
      "outputs": [
        {
          "internalType": "bool",
          "name": "",
          "type": "bool"
        }
      ],
      "stateMutability": "view",
      "type": "function"
    },
    {
      "inputs": [
        {
          "internalType": "CarvingId",
          "name": "_carvingId",
          "type": "uint256"
        }
      ],
      "name": "likeCarving",
      "outputs": [],
      "stateMutability": "nonpayable",
      "type": "function"
    },
    {
      "inputs": [
        {
          "internalType": "CarvingId",
          "name": "_carvingId",
          "type": "uint256"
        }
      ],
      "name": "recarve",
      "outputs": [],
      "stateMutability": "nonpayable",
      "type": "function"
    },
    {
      "inputs": [
        {
          "internalType": "string",
          "name": "_backgroundURL",
          "type": "string"
        }
      ],
      "name": "setBackgroundURL",
      "outputs": [],
      "stateMutability": "nonpayable",
      "type": "function"
    },
    {
      "inputs": [
        {
          "internalType": "string",
          "name": "_bio",
          "type": "string"
        }
      ],
      "name": "setBio",
      "outputs": [],
      "stateMutability": "nonpayable",
      "type": "function"
    },
    {
      "inputs": [
        {
          "internalType": "string",
          "name": "_pfpURL",
          "type": "string"
        }
      ],
      "name": "setPfpURL",
      "outputs": [],
      "stateMutability": "nonpayable",
      "type": "function"
    },
    {
      "inputs": [
        {
          "internalType": "string",
          "name": "_username",
          "type": "string"
        }
      ],
      "name": "setUsername",
      "outputs": [],
      "stateMutability": "nonpayable",
      "type": "function"
    },
    {
      "inputs": [
        {
          "internalType": "address",
          "name": "_userToUnfollow",
          "type": "address"
        }
      ],
      "name": "unfollow",
      "outputs": [],
      "stateMutability": "nonpayable",
      "type": "function"
    },
    {
      "inputs": [
        {
          "internalType": "CarvingId",
          "name": "_carvingId",
          "type": "uint256"
        }
      ],
      "name": "unlikeCarving",
      "outputs": [],
      "stateMutability": "nonpayable",
      "type": "function"
    },
    {
      "inputs": [
        {
          "internalType": "address",
          "name": "",
          "type": "address"
        },
        {
          "internalType": "uint256",
          "name": "",
          "type": "uint256"
        }
      ],
      "name": "userCarvings",
      "outputs": [
        {
          "internalType": "CarvingId",
          "name": "",
          "type": "uint256"
        }
      ],
      "stateMutability": "view",
      "type": "function"
    },
    {
      "inputs": [
        {
          "internalType": "address",
          "name": "",
          "type": "address"
        }
      ],
      "name": "userProfiles",
      "outputs": [
        {
          "internalType": "uint256",
          "name": "createdAt",
          "type": "uint256"
        },
        {
          "internalType": "string",
          "name": "username",
          "type": "string"
        },
        {
          "internalType": "string",
          "name": "bio",
          "type": "string"
        },
        {
          "internalType": "string",
          "name": "pfpURL",
          "type": "string"
        },
        {
          "internalType": "string",
          "name": "backgroundURL",
          "type": "string"
        }
      ],
      "stateMutability": "view",
      "type": "function"
    }
  ],
  "bytecode": "0x6080604052348015600f57600080fd5b50614c068061001f6000396000f3fe608060405234801561001057600080fd5b50600436106101da5760003560e01c806394be32de11610104578063c8024b20116100a2578063e9ceb11c11610071578063e9ceb11c14610607578063ed59313a14610637578063f58fac6214610653578063fb7e06d814610683576101da565b8063c8024b201461055b578063cca22f7914610577578063d773cb7b146105a7578063d9903f05146105d7576101da565b80639e4eac74116100de5780639e4eac741461049b578063a160a5df146104cb578063b943763d146104fb578063c2fe20221461052b576101da565b806394be32de14610407578063987ee1561461043757806399ec3a421461046b576101da565b8063332d56d71161017c5780636374fccf1161014b5780636374fccf1461038157806365aafe13146103b15780636c0afaaf146103cd578063797fc1e0146103e9576101da565b8063332d56d7146102df5780633cda8636146103135780634864f7e51461032f5780634dbf27cc14610365576101da565b806310b8f568116101b857806310b8f568146102475780632c14c81514610263578063315a644614610293578063318279d1146102af576101da565b8063015a4ead146101df5780630390a883146101fb57806309b0c7c214610217575b600080fd5b6101f960048036038101906101f491906137e9565b61069f565b005b61021560048036038101906102109190613992565b610e31565b005b610231600480360381019061022c9190613a1a565b610fbf565b60405161023e9190613d35565b60405180910390f35b610261600480360381019061025c9190613d57565b611315565b005b61027d60048036038101906102789190613d84565b611426565b60405161028a9190613dd3565b60405180910390f35b6102ad60048036038101906102a89190613dee565b611457565b005b6102c960048036038101906102c49190613d57565b61153f565b6040516102d69190613e46565b60405180910390f35b6102f960048036038101906102f491906137e9565b611557565b60405161030a959493929190613eab565b60405180910390f35b61032d60048036038101906103289190613d57565b6117ad565b005b61034960048036038101906103449190613f1a565b6119d2565b60405161035c9796959493929190613f74565b60405180910390f35b61037f600480360381019061037a91906137e9565b611ae6565b005b61039b60048036038101906103969190613d57565b611ed9565b6040516103a89190613e46565b60405180910390f35b6103cb60048036038101906103c69190613d57565b611ef1565b005b6103e760048036038101906103e29190613dee565b6120c1565b005b6103f16121a9565b6040516103fe9190613e46565b60405180910390f35b610421600480360381019061041c9190613d57565b6121b6565b60405161042e9190613e46565b60405180910390f35b610451600480360381019061044c91906137e9565b612222565b604051610462959493929190613eab565b60405180910390f35b61048560048036038101906104809190613fea565b6124f6565b604051610492919061402a565b60405180910390f35b6104b560048036038101906104b09190614045565b612693565b6040516104c2919061402a565b60405180910390f35b6104e560048036038101906104e09190613d57565b612747565b6040516104f29190613e46565b60405180910390f35b61051560048036038101906105109190613d57565b6127b0565b6040516105229190613e46565b60405180910390f35b610545600480360381019061054091906137e9565b612819565b6040516105529190614134565b60405180910390f35b61057560048036038101906105709190613dee565b6128e6565b005b610591600480360381019061058c91906137e9565b61299f565b60405161059e9190614134565b60405180910390f35b6105c160048036038101906105bc9190614156565b612a6c565b6040516105ce9190613dd3565b60405180910390f35b6105f160048036038101906105ec9190614196565b612a9d565b6040516105fe9190613d35565b60405180910390f35b610621600480360381019061061c91906141d6565b612d4b565b60405161062e9190613d35565b60405180910390f35b610651600480360381019061064c9190613dee565b6130c2565b005b61066d60048036038101906106689190614229565b6132c2565b60405161067a919061402a565b60405180910390f35b61069d60048036038101906106989190613dee565b6132f1565b005b6106a933826124f6565b6106e8576040517f08c379a00000000000000000000000000000000000000000000000000000000081526004016106df906142b5565b60405180910390fd5b6000600860003373ffffffffffffffffffffffffffffffffffffffff1673ffffffffffffffffffffffffffffffffffffffff16815260200190815260200160002060008373ffffffffffffffffffffffffffffffffffffffff1673ffffffffffffffffffffffffffffffffffffffff16815260200190815260200160002054905060006001600760003373ffffffffffffffffffffffffffffffffffffffff1673ffffffffffffffffffffffffffffffffffffffff168152602001908152602001600020805490506107ba9190614304565b90506000600760003373ffffffffffffffffffffffffffffffffffffffff1673ffffffffffffffffffffffffffffffffffffffff168152602001908152602001600020828154811061080f5761080e614338565b5b9060005260206000200160009054906101000a900473ffffffffffffffffffffffffffffffffffffffff16905080600760003373ffffffffffffffffffffffffffffffffffffffff1673ffffffffffffffffffffffffffffffffffffffff168152602001908152602001600020848154811061088e5761088d614338565b5b9060005260206000200160006101000a81548173ffffffffffffffffffffffffffffffffffffffff021916908373ffffffffffffffffffffffffffffffffffffffff160217905550600760003373ffffffffffffffffffffffffffffffffffffffff1673ffffffffffffffffffffffffffffffffffffffff16815260200190815260200160002080548061092557610924614367565b5b6001900381819060005260206000200160006101000a81549073ffffffffffffffffffffffffffffffffffffffff0219169055905582600860003373ffffffffffffffffffffffffffffffffffffffff1673ffffffffffffffffffffffffffffffffffffffff16815260200190815260200160002060008373ffffffffffffffffffffffffffffffffffffffff1673ffffffffffffffffffffffffffffffffffffffff16815260200190815260200160002081905550600860003373ffffffffffffffffffffffffffffffffffffffff1673ffffffffffffffffffffffffffffffffffffffff16815260200190815260200160002060008573ffffffffffffffffffffffffffffffffffffffff1673ffffffffffffffffffffffffffffffffffffffff168152602001908152602001600020600090556000600a60008673ffffffffffffffffffffffffffffffffffffffff1673ffffffffffffffffffffffffffffffffffffffff16815260200190815260200160002060003373ffffffffffffffffffffffffffffffffffffffff1673ffffffffffffffffffffffffffffffffffffffff16815260200190815260200160002054905060006001600960008873ffffffffffffffffffffffffffffffffffffffff1673ffffffffffffffffffffffffffffffffffffffff16815260200190815260200160002080549050610b2d9190614304565b90506000600960008873ffffffffffffffffffffffffffffffffffffffff1673ffffffffffffffffffffffffffffffffffffffff1681526020019081526020016000208281548110610b8257610b81614338565b5b9060005260206000200160009054906101000a900473ffffffffffffffffffffffffffffffffffffffff16905080600960008973ffffffffffffffffffffffffffffffffffffffff1673ffffffffffffffffffffffffffffffffffffffff1681526020019081526020016000208481548110610c0157610c00614338565b5b9060005260206000200160006101000a81548173ffffffffffffffffffffffffffffffffffffffff021916908373ffffffffffffffffffffffffffffffffffffffff160217905550600960008873ffffffffffffffffffffffffffffffffffffffff1673ffffffffffffffffffffffffffffffffffffffff168152602001908152602001600020805480610c9857610c97614367565b5b6001900381819060005260206000200160006101000a81549073ffffffffffffffffffffffffffffffffffffffff0219169055905582600a60008973ffffffffffffffffffffffffffffffffffffffff1673ffffffffffffffffffffffffffffffffffffffff16815260200190815260200160002060008373ffffffffffffffffffffffffffffffffffffffff1673ffffffffffffffffffffffffffffffffffffffff16815260200190815260200160002081905550600a60008873ffffffffffffffffffffffffffffffffffffffff1673ffffffffffffffffffffffffffffffffffffffff16815260200190815260200160002060003373ffffffffffffffffffffffffffffffffffffffff1673ffffffffffffffffffffffffffffffffffffffff168152602001908152602001600020600090558673ffffffffffffffffffffffffffffffffffffffff163373ffffffffffffffffffffffffffffffffffffffff167fe7339343c6edff57f2d15278c419523844cea30ae5ee2146aa22cb9e3107dab760405160405180910390a350505050505050565b60008290506001805490508110610e7d576040517f08c379a0000000000000000000000000000000000000000000000000000000008152600401610e74906143e2565b60405180910390fd5b6000825111610ec1576040517f08c379a0000000000000000000000000000000000000000000000000000000008152600401610eb89061444e565b60405180910390fd5b610eca336133d9565b610f09576040517f08c379a0000000000000000000000000000000000000000000000000000000008152600401610f00906144ba565b60405180910390fd5b6000610f17600384866133ec565b90506006600085815260200190815260200160002081600001519080600181540180825580915050600190039060005260206000200160009091909190915055806040015173ffffffffffffffffffffffffffffffffffffffff167f949d956e521b9458935a243e9f4dbec94f18632d25c6d3495be1a8838ac13af18260a0015183600001518460600151604051610fb1939291906144da565b60405180910390a250505050565b60606000600260008673ffffffffffffffffffffffffffffffffffffffff1673ffffffffffffffffffffffffffffffffffffffff16815260200190815260200160002080548060200260200160405190810160405280929190818152602001828054801561104c57602002820191906000526020600020905b815481526020019060010190808311611038575b5050505050905080518410611096576040517f08c379a000000000000000000000000000000000000000000000000000000000815260040161108d90614564565b60405180910390fd5b600083856110a49190614584565b905081518111156110b457815190505b600085826110c29190614304565b905060008167ffffffffffffffff8111156110e0576110df613867565b5b60405190808252806020026020018201604052801561111957816020015b611106613706565b8152602001906001900390816110fe5790505b50905060005b8281101561130657600085828a6111369190614584565b8151811061114757611146614338565b5b602002602001015190506001818154811061116557611164614338565b5b90600052602060002090600602016040518060e0016040529081600082015481526020016001820160009054906101000a900460ff1660038111156111ad576111ac613ad4565b5b60038111156111bf576111be613ad4565b5b81526020016001820160019054906101000a900473ffffffffffffffffffffffffffffffffffffffff1673ffffffffffffffffffffffffffffffffffffffff1673ffffffffffffffffffffffffffffffffffffffff168152602001600282018054611229906145e7565b80601f0160208091040260200160405190810160405280929190818152602001828054611255906145e7565b80156112a25780601f10611277576101008083540402835291602001916112a2565b820191906000526020600020905b81548152906001019060200180831161128557829003601f168201915b5050505050815260200160038201548152602001600482015481526020016005820160009054906101000a900460ff1615151515815250508383815181106112ed576112ec614338565b5b602002602001018190525050808060010191505061111f565b50809450505050509392505050565b60008190506001805490508110611361576040517f08c379a0000000000000000000000000000000000000000000000000000000008152600401611358906143e2565b60405180910390fd5b61136a336133d9565b6113a9576040517f08c379a00000000000000000000000000000000000000000000000000000000081526004016113a0906144ba565b60405180910390fd5b60016005600084815260200190815260200160002060008282546113cd9190614584565b925050819055503373ffffffffffffffffffffffffffffffffffffffff167fc6f05f73e1566e0afb9211badaef43d9f5e9b1add102080584cb8f0e1149308f8360405161141a9190613dd3565b60405180910390a25050565b6006602052816000526040600020818154811061144257600080fd5b90600052602060002001600091509150505481565b611460336133d9565b61149f576040517f08c379a0000000000000000000000000000000000000000000000000000000008152600401611496906144ba565b60405180910390fd5b3373ffffffffffffffffffffffffffffffffffffffff167f25ba221a050a88ea7a5ee0fb3f5a111256700f9c5d334da25a14f986cd646f2a826040516114e59190614618565b60405180910390a2806000803373ffffffffffffffffffffffffffffffffffffffff1673ffffffffffffffffffffffffffffffffffffffff168152602001908152602001600020600301908161153b91906147ba565b5050565b60056020528060005260406000206000915090505481565b6000602052806000526040600020600091509050806000015490806001018054611580906145e7565b80601f01602080910402602001604051908101604052809291908181526020018280546115ac906145e7565b80156115f95780601f106115ce576101008083540402835291602001916115f9565b820191906000526020600020905b8154815290600101906020018083116115dc57829003601f168201915b50505050509080600201805461160e906145e7565b80601f016020809104026020016040519081016040528092919081815260200182805461163a906145e7565b80156116875780601f1061165c57610100808354040283529160200191611687565b820191906000526020600020905b81548152906001019060200180831161166a57829003601f168201915b50505050509080600301805461169c906145e7565b80601f01602080910402602001604051908101604052809291908181526020018280546116c8906145e7565b80156117155780601f106116ea57610100808354040283529160200191611715565b820191906000526020600020905b8154815290600101906020018083116116f857829003601f168201915b50505050509080600401805461172a906145e7565b80601f0160208091040260200160405190810160405280929190818152602001828054611756906145e7565b80156117a35780601f10611778576101008083540402835291602001916117a3565b820191906000526020600020905b81548152906001019060200180831161178657829003601f168201915b5050505050905085565b600081905060018054905081106117f9576040517f08c379a00000000000000000000000000000000000000000000000000000000081526004016117f0906143e2565b60405180910390fd5b6004600083815260200190815260200160002060003373ffffffffffffffffffffffffffffffffffffffff1673ffffffffffffffffffffffffffffffffffffffff16815260200190815260200160002060009054906101000a900460ff16611896576040517f08c379a000000000000000000000000000000000000000000000000000000000815260040161188d906148d8565b60405180910390fd5b60006003600084815260200190815260200160002054116118ec576040517f08c379a00000000000000000000000000000000000000000000000000000000081526004016118e390614944565b60405180910390fd5b60016003600084815260200190815260200160002060008282546119109190614304565b9250508190555060006004600084815260200190815260200160002060003373ffffffffffffffffffffffffffffffffffffffff1673ffffffffffffffffffffffffffffffffffffffff16815260200190815260200160002060006101000a81548160ff0219169083151502179055503373ffffffffffffffffffffffffffffffffffffffff167f0dce267b7394146bcd9440db5b2b81d45e7c43ee4667daba50d2c096afa9b8d0836040516119c69190613dd3565b60405180910390a25050565b600181815481106119e257600080fd5b90600052602060002090600602016000915090508060000154908060010160009054906101000a900460ff16908060010160019054906101000a900473ffffffffffffffffffffffffffffffffffffffff1690806002018054611a44906145e7565b80601f0160208091040260200160405190810160405280929190818152602001828054611a70906145e7565b8015611abd5780601f10611a9257610100808354040283529160200191611abd565b820191906000526020600020905b815481529060010190602001808311611aa057829003601f168201915b5050505050908060030154908060040154908060050160009054906101000a900460ff16905087565b3373ffffffffffffffffffffffffffffffffffffffff168173ffffffffffffffffffffffffffffffffffffffff1603611b54576040517f08c379a0000000000000000000000000000000000000000000000000000000008152600401611b4b906149b0565b60405180910390fd5b611b5e33826124f6565b15611b9e576040517f08c379a0000000000000000000000000000000000000000000000000000000008152600401611b9590614a1c565b60405180910390fd5b600760003373ffffffffffffffffffffffffffffffffffffffff1673ffffffffffffffffffffffffffffffffffffffff168152602001908152602001600020819080600181540180825580915050600190039060005260206000200160009091909190916101000a81548173ffffffffffffffffffffffffffffffffffffffff021916908373ffffffffffffffffffffffffffffffffffffffff1602179055506001600760003373ffffffffffffffffffffffffffffffffffffffff1673ffffffffffffffffffffffffffffffffffffffff16815260200190815260200160002080549050611c8d9190614304565b600860003373ffffffffffffffffffffffffffffffffffffffff1673ffffffffffffffffffffffffffffffffffffffff16815260200190815260200160002060008373ffffffffffffffffffffffffffffffffffffffff1673ffffffffffffffffffffffffffffffffffffffff16815260200190815260200160002081905550600960008273ffffffffffffffffffffffffffffffffffffffff1673ffffffffffffffffffffffffffffffffffffffff168152602001908152602001600020339080600181540180825580915050600190039060005260206000200160009091909190916101000a81548173ffffffffffffffffffffffffffffffffffffffff021916908373ffffffffffffffffffffffffffffffffffffffff1602179055506001600960008373ffffffffffffffffffffffffffffffffffffffff1673ffffffffffffffffffffffffffffffffffffffff16815260200190815260200160002080549050611dfc9190614304565b600a60008373ffffffffffffffffffffffffffffffffffffffff1673ffffffffffffffffffffffffffffffffffffffff16815260200190815260200160002060003373ffffffffffffffffffffffffffffffffffffffff1673ffffffffffffffffffffffffffffffffffffffff168152602001908152602001600020819055508073ffffffffffffffffffffffffffffffffffffffff163373ffffffffffffffffffffffffffffffffffffffff167f30b3435b456f45779984ddfa456115ee4c20d9e446979b1b9e90dbb7e12b90b760405160405180910390a350565b60036020528060005260406000206000915090505481565b60008190506001805490508110611f3d576040517f08c379a0000000000000000000000000000000000000000000000000000000008152600401611f34906143e2565b60405180910390fd5b6004600083815260200190815260200160002060003373ffffffffffffffffffffffffffffffffffffffff1673ffffffffffffffffffffffffffffffffffffffff16815260200190815260200160002060009054906101000a900460ff1615611fdb576040517f08c379a0000000000000000000000000000000000000000000000000000000008152600401611fd290614a88565b60405180910390fd5b6001600360008481526020019081526020016000206000828254611fff9190614584565b9250508190555060016004600084815260200190815260200160002060003373ffffffffffffffffffffffffffffffffffffffff1673ffffffffffffffffffffffffffffffffffffffff16815260200190815260200160002060006101000a81548160ff0219169083151502179055503373ffffffffffffffffffffffffffffffffffffffff167fc9b5b9db000d21d664ad6f78f6252c1bf358d53e66def587def640c86a5cbf58836040516120b59190613dd3565b60405180910390a25050565b6120ca336133d9565b612109576040517f08c379a0000000000000000000000000000000000000000000000000000000008152600401612100906144ba565b60405180910390fd5b3373ffffffffffffffffffffffffffffffffffffffff167fd9def9f574ceaca8c534179909ee60097126329fae5cd88460ed7b53176991e98260405161214f9190614618565b60405180910390a2806000803373ffffffffffffffffffffffffffffffffffffffff1673ffffffffffffffffffffffffffffffffffffffff16815260200190815260200160002060040190816121a591906147ba565b5050565b6000600180549050905090565b6000808290506001805490508110612203576040517f08c379a00000000000000000000000000000000000000000000000000000000081526004016121fa906143e2565b60405180910390fd5b6006600084815260200190815260200160002080549050915050919050565b600060608060608060008060008873ffffffffffffffffffffffffffffffffffffffff1673ffffffffffffffffffffffffffffffffffffffff1681526020019081526020016000206040518060a00160405290816000820154815260200160018201805461228f906145e7565b80601f01602080910402602001604051908101604052809291908181526020018280546122bb906145e7565b80156123085780601f106122dd57610100808354040283529160200191612308565b820191906000526020600020905b8154815290600101906020018083116122eb57829003601f168201915b50505050508152602001600282018054612321906145e7565b80601f016020809104026020016040519081016040528092919081815260200182805461234d906145e7565b801561239a5780601f1061236f5761010080835404028352916020019161239a565b820191906000526020600020905b81548152906001019060200180831161237d57829003601f168201915b505050505081526020016003820180546123b3906145e7565b80601f01602080910402602001604051908101604052809291908181526020018280546123df906145e7565b801561242c5780601f106124015761010080835404028352916020019161242c565b820191906000526020600020905b81548152906001019060200180831161240f57829003601f168201915b50505050508152602001600482018054612445906145e7565b80601f0160208091040260200160405190810160405280929190818152602001828054612471906145e7565b80156124be5780601f10612493576101008083540402835291602001916124be565b820191906000526020600020905b8154815290600101906020018083116124a157829003601f168201915b505050505081525050905080600001518160200151826040015183606001518460800151955095509550955095505091939590929450565b600080600860008573ffffffffffffffffffffffffffffffffffffffff1673ffffffffffffffffffffffffffffffffffffffff16815260200190815260200160002060008473ffffffffffffffffffffffffffffffffffffffff1673ffffffffffffffffffffffffffffffffffffffff16815260200190815260200160002054905060008103612687576000600760008673ffffffffffffffffffffffffffffffffffffffff1673ffffffffffffffffffffffffffffffffffffffff16815260200190815260200160002080549050036125d457600091505061268d565b8273ffffffffffffffffffffffffffffffffffffffff16600760008673ffffffffffffffffffffffffffffffffffffffff1673ffffffffffffffffffffffffffffffffffffffff16815260200190815260200160002060008154811061263d5761263c614338565b5b9060005260206000200160009054906101000a900473ffffffffffffffffffffffffffffffffffffffff1673ffffffffffffffffffffffffffffffffffffffff161491505061268d565b60019150505b92915050565b60008082905060018054905081106126e0576040517f08c379a00000000000000000000000000000000000000000000000000000000081526004016126d7906143e2565b60405180910390fd5b6004600084815260200190815260200160002060008573ffffffffffffffffffffffffffffffffffffffff1673ffffffffffffffffffffffffffffffffffffffff16815260200190815260200160002060009054906101000a900460ff1691505092915050565b6000808290506001805490508110612794576040517f08c379a000000000000000000000000000000000000000000000000000000000815260040161278b906143e2565b60405180910390fd5b6003600084815260200190815260200160002054915050919050565b60008082905060018054905081106127fd576040517f08c379a00000000000000000000000000000000000000000000000000000000081526004016127f4906143e2565b60405180910390fd5b6005600084815260200190815260200160002054915050919050565b6060600960008373ffffffffffffffffffffffffffffffffffffffff1673ffffffffffffffffffffffffffffffffffffffff1681526020019081526020016000208054806020026020016040519081016040528092919081815260200182805480156128da57602002820191906000526020600020905b8160009054906101000a900473ffffffffffffffffffffffffffffffffffffffff1673ffffffffffffffffffffffffffffffffffffffff1681526020019060010190808311612890575b50505050509050919050565b6128ef336133d9565b61292e576040517f08c379a0000000000000000000000000000000000000000000000000000000008152600401612925906144ba565b60405180910390fd5b600061293d60008360006133ec565b9050806040015173ffffffffffffffffffffffffffffffffffffffff167f5d3ca796c8e5fe75c8a7747dec3a5855fceee05ba3a1cc0a7f55a432428be6d582600001518360600151604051612993929190614aa8565b60405180910390a25050565b6060600760008373ffffffffffffffffffffffffffffffffffffffff1673ffffffffffffffffffffffffffffffffffffffff168152602001908152602001600020805480602002602001604051908101604052809291908181526020018280548015612a6057602002820191906000526020600020905b8160009054906101000a900473ffffffffffffffffffffffffffffffffffffffff1673ffffffffffffffffffffffffffffffffffffffff1681526020019060010190808311612a16575b50505050509050919050565b60026020528160005260406000208181548110612a8857600080fd5b90600052602060002001600091509150505481565b60606001805490508310612ae6576040517f08c379a0000000000000000000000000000000000000000000000000000000008152600401612add90614564565b60405180910390fd5b60008284612af49190614584565b9050600180549050811115612b0c5760018054905090505b60008482612b1a9190614304565b905060008167ffffffffffffffff811115612b3857612b37613867565b5b604051908082528060200260200182016040528015612b7157816020015b612b5e613706565b815260200190600190039081612b565790505b50905060005b82811015612d3e5760018188612b8d9190614584565b81548110612b9e57612b9d614338565b5b90600052602060002090600602016040518060e0016040529081600082015481526020016001820160009054906101000a900460ff166003811115612be657612be5613ad4565b5b6003811115612bf857612bf7613ad4565b5b81526020016001820160019054906101000a900473ffffffffffffffffffffffffffffffffffffffff1673ffffffffffffffffffffffffffffffffffffffff1673ffffffffffffffffffffffffffffffffffffffff168152602001600282018054612c62906145e7565b80601f0160208091040260200160405190810160405280929190818152602001828054612c8e906145e7565b8015612cdb5780601f10612cb057610100808354040283529160200191612cdb565b820191906000526020600020905b815481529060010190602001808311612cbe57829003601f168201915b5050505050815260200160038201548152602001600482015481526020016005820160009054906101000a900460ff161515151581525050828281518110612d2657612d25614338565b5b60200260200101819052508080600101915050612b77565b5080935050505092915050565b606060008490506001805490508110612d99576040517f08c379a0000000000000000000000000000000000000000000000000000000008152600401612d90906143e2565b60405180910390fd5b600060066000878152602001908152602001600020805480602002602001604051908101604052809291908181526020018280548015612df857602002820191906000526020600020905b815481526020019060010190808311612de4575b5050505050905080518510612e42576040517f08c379a0000000000000000000000000000000000000000000000000000000008152600401612e3990614564565b60405180910390fd5b60008486612e509190614584565b90508151811115612e6057815190505b60008682612e6e9190614304565b905060008167ffffffffffffffff811115612e8c57612e8b613867565b5b604051908082528060200260200182016040528015612ec557816020015b612eb2613706565b815260200190600190039081612eaa5790505b50905060005b828110156130b257600085828b612ee29190614584565b81518110612ef357612ef2614338565b5b6020026020010151905060018181548110612f1157612f10614338565b5b90600052602060002090600602016040518060e0016040529081600082015481526020016001820160009054906101000a900460ff166003811115612f5957612f58613ad4565b5b6003811115612f6b57612f6a613ad4565b5b81526020016001820160019054906101000a900473ffffffffffffffffffffffffffffffffffffffff1673ffffffffffffffffffffffffffffffffffffffff1673ffffffffffffffffffffffffffffffffffffffff168152602001600282018054612fd5906145e7565b80601f0160208091040260200160405190810160405280929190818152602001828054613001906145e7565b801561304e5780601f106130235761010080835404028352916020019161304e565b820191906000526020600020905b81548152906001019060200180831161303157829003601f168201915b5050505050815260200160038201548152602001600482015481526020016005820160009054906101000a900460ff16151515158152505083838151811061309957613098614338565b5b6020026020010181905250508080600101915050612ecb565b5080955050505050509392505050565b6131016040518060400160405280601881526020017f736574557365726e616d652063616c6c656420776974683a0000000000000000815250826135cb565b602081511115613146576040517f08c379a000000000000000000000000000000000000000000000000000000000815260040161313d90614b4a565b60405180910390fd5b61314f33613667565b156131e257426000803373ffffffffffffffffffffffffffffffffffffffff1673ffffffffffffffffffffffffffffffffffffffff168152602001908152602001600020600001819055503373ffffffffffffffffffffffffffffffffffffffff167f0b0376a109cbb578b709f85f6a7befcdac3ac1ab251c99ede87f30c9572ac4d360405160405180910390a2613231565b3373ffffffffffffffffffffffffffffffffffffffff167f1af4cc3acb57f067d1d582e3932be6692a4c9a31d8b3a8567dfc1c340a02d534826040516132289190614618565b60405180910390a25b806000803373ffffffffffffffffffffffffffffffffffffffff1673ffffffffffffffffffffffffffffffffffffffff168152602001908152602001600020600101908161327f91906147ba565b506132bf6040518060400160405280601081526020017f557365726e616d652073657420746f3a00000000000000000000000000000000815250826135cb565b50565b60046020528160005260406000206020528060005260406000206000915091509054906101000a900460ff1681565b6132fa336133d9565b613339576040517f08c379a0000000000000000000000000000000000000000000000000000000008152600401613330906144ba565b60405180910390fd5b3373ffffffffffffffffffffffffffffffffffffffff167f3f838a7d0889a59b2445af5389196b3948170278848eb90d8d256ab14aaf4cf08260405161337f9190614618565b60405180910390a2806000803373ffffffffffffffffffffffffffffffffffffffff1673ffffffffffffffffffffffffffffffffffffffff16815260200190815260200160002060020190816133d591906147ba565b5050565b60006133e482613667565b159050919050565b6133f4613706565b6000600180549050905060006040518060e0016040528083815260200187600381111561342457613423613ad4565b5b81526020013373ffffffffffffffffffffffffffffffffffffffff16815260200186815260200142815260200185815260200160001515815250905060018190806001815401808255809150506001900390600052602060002090600602016000909190919091506000820151816000015560208201518160010160006101000a81548160ff021916908360038111156134c1576134c0613ad4565b5b021790555060408201518160010160016101000a81548173ffffffffffffffffffffffffffffffffffffffff021916908373ffffffffffffffffffffffffffffffffffffffff160217905550606082015181600201908161352291906147ba565b506080820151816003015560a0820151816004015560c08201518160050160006101000a81548160ff0219169083151502179055505050600260003373ffffffffffffffffffffffffffffffffffffffff1673ffffffffffffffffffffffffffffffffffffffff16815260200190815260200160002082908060018154018082558091505060019003906000526020600020016000909190919091505580925050509392505050565b61366382826040516024016135e1929190614b6a565b6040516020818303038152906040527f4b5c4277000000000000000000000000000000000000000000000000000000007bffffffffffffffffffffffffffffffffffffffffffffffffffffffff19166020820180517bffffffffffffffffffffffffffffffffffffffffffffffffffffffff83818316178352505050506136c0565b5050565b6000806000808473ffffffffffffffffffffffffffffffffffffffff1673ffffffffffffffffffffffffffffffffffffffff16815260200190815260200160002060010180546136b6906145e7565b9050149050919050565b6136d7816136cf6136da6136fb565b63ffffffff16565b50565b60006a636f6e736f6c652e6c6f679050600080835160208501845afa505050565b61376d819050919050565b6040518060e00160405280600081526020016000600381111561372c5761372b613ad4565b5b8152602001600073ffffffffffffffffffffffffffffffffffffffff1681526020016060815260200160008152602001600081526020016000151581525090565b613775614ba1565b565b6000604051905090565b600080fd5b600080fd5b600073ffffffffffffffffffffffffffffffffffffffff82169050919050565b60006137b68261378b565b9050919050565b6137c6816137ab565b81146137d157600080fd5b50565b6000813590506137e3816137bd565b92915050565b6000602082840312156137ff576137fe613781565b5b600061380d848285016137d4565b91505092915050565b6000819050919050565b61382981613816565b811461383457600080fd5b50565b60008135905061384681613820565b92915050565b600080fd5b600080fd5b6000601f19601f8301169050919050565b7f4e487b7100000000000000000000000000000000000000000000000000000000600052604160045260246000fd5b61389f82613856565b810181811067ffffffffffffffff821117156138be576138bd613867565b5b80604052505050565b60006138d1613777565b90506138dd8282613896565b919050565b600067ffffffffffffffff8211156138fd576138fc613867565b5b61390682613856565b9050602081019050919050565b82818337600083830152505050565b6000613935613930846138e2565b6138c7565b90508281526020810184848401111561395157613950613851565b5b61395c848285613913565b509392505050565b600082601f8301126139795761397861384c565b5b8135613989848260208601613922565b91505092915050565b600080604083850312156139a9576139a8613781565b5b60006139b785828601613837565b925050602083013567ffffffffffffffff8111156139d8576139d7613786565b5b6139e485828601613964565b9150509250929050565b6139f781613816565b8114613a0257600080fd5b50565b600081359050613a14816139ee565b92915050565b600080600060608486031215613a3357613a32613781565b5b6000613a41868287016137d4565b9350506020613a5286828701613a05565b9250506040613a6386828701613a05565b9150509250925092565b600081519050919050565b600082825260208201905092915050565b6000819050602082019050919050565b6000819050919050565b6000613abe613ab9613ab484613816565b613a99565b613816565b9050919050565b613ace81613aa3565b82525050565b7f4e487b7100000000000000000000000000000000000000000000000000000000600052602160045260246000fd5b60048110613b1457613b13613ad4565b5b50565b6000819050613b2582613b03565b919050565b6000613b3582613b17565b9050919050565b613b4581613b2a565b82525050565b613b54816137ab565b82525050565b600081519050919050565b600082825260208201905092915050565b60005b83811015613b94578082015181840152602081019050613b79565b60008484015250505050565b6000613bab82613b5a565b613bb58185613b65565b9350613bc5818560208601613b76565b613bce81613856565b840191505092915050565b613be281613816565b82525050565b60008115159050919050565b613bfd81613be8565b82525050565b600060e083016000830151613c1b6000860182613ac5565b506020830151613c2e6020860182613b3c565b506040830151613c416040860182613b4b565b5060608301518482036060860152613c598282613ba0565b9150506080830151613c6e6080860182613bd9565b5060a0830151613c8160a0860182613ac5565b5060c0830151613c9460c0860182613bf4565b508091505092915050565b6000613cab8383613c03565b905092915050565b6000602082019050919050565b6000613ccb82613a6d565b613cd58185613a78565b935083602082028501613ce785613a89565b8060005b85811015613d235784840389528151613d048582613c9f565b9450613d0f83613cb3565b925060208a01995050600181019050613ceb565b50829750879550505050505092915050565b60006020820190508181036000830152613d4f8184613cc0565b905092915050565b600060208284031215613d6d57613d6c613781565b5b6000613d7b84828501613837565b91505092915050565b60008060408385031215613d9b57613d9a613781565b5b6000613da985828601613837565b9250506020613dba85828601613a05565b9150509250929050565b613dcd81613aa3565b82525050565b6000602082019050613de86000830184613dc4565b92915050565b600060208284031215613e0457613e03613781565b5b600082013567ffffffffffffffff811115613e2257613e21613786565b5b613e2e84828501613964565b91505092915050565b613e4081613816565b82525050565b6000602082019050613e5b6000830184613e37565b92915050565b600082825260208201905092915050565b6000613e7d82613b5a565b613e878185613e61565b9350613e97818560208601613b76565b613ea081613856565b840191505092915050565b600060a082019050613ec06000830188613e37565b8181036020830152613ed28187613e72565b90508181036040830152613ee68186613e72565b90508181036060830152613efa8185613e72565b90508181036080830152613f0e8184613e72565b90509695505050505050565b600060208284031215613f3057613f2f613781565b5b6000613f3e84828501613a05565b91505092915050565b613f5081613b2a565b82525050565b613f5f816137ab565b82525050565b613f6e81613be8565b82525050565b600060e082019050613f89600083018a613dc4565b613f966020830189613f47565b613fa36040830188613f56565b8181036060830152613fb58187613e72565b9050613fc46080830186613e37565b613fd160a0830185613dc4565b613fde60c0830184613f65565b98975050505050505050565b6000806040838503121561400157614000613781565b5b600061400f858286016137d4565b9250506020614020858286016137d4565b9150509250929050565b600060208201905061403f6000830184613f65565b92915050565b6000806040838503121561405c5761405b613781565b5b600061406a858286016137d4565b925050602061407b85828601613837565b9150509250929050565b600081519050919050565b600082825260208201905092915050565b6000819050602082019050919050565b60006140bd8383613b4b565b60208301905092915050565b6000602082019050919050565b60006140e182614085565b6140eb8185614090565b93506140f6836140a1565b8060005b8381101561412757815161410e88826140b1565b9750614119836140c9565b9250506001810190506140fa565b5085935050505092915050565b6000602082019050818103600083015261414e81846140d6565b905092915050565b6000806040838503121561416d5761416c613781565b5b600061417b858286016137d4565b925050602061418c85828601613a05565b9150509250929050565b600080604083850312156141ad576141ac613781565b5b60006141bb85828601613a05565b92505060206141cc85828601613a05565b9150509250929050565b6000806000606084860312156141ef576141ee613781565b5b60006141fd86828701613837565b935050602061420e86828701613a05565b925050604061421f86828701613a05565b9150509250925092565b600080604083850312156142405761423f613781565b5b600061424e85828601613837565b925050602061425f858286016137d4565b9150509250929050565b7f4e6f7420666f6c6c6f77696e6700000000000000000000000000000000000000600082015250565b600061429f600d83613e61565b91506142aa82614269565b602082019050919050565b600060208201905081810360008301526142ce81614292565b9050919050565b7f4e487b7100000000000000000000000000000000000000000000000000000000600052601160045260246000fd5b600061430f82613816565b915061431a83613816565b9250828203905081811115614332576143316142d5565b5b92915050565b7f4e487b7100000000000000000000000000000000000000000000000000000000600052603260045260246000fd5b7f4e487b7100000000000000000000000000000000000000000000000000000000600052603160045260246000fd5b7f496e76616c69642063617276696e672049440000000000000000000000000000600082015250565b60006143cc601283613e61565b91506143d782614396565b602082019050919050565b600060208201905081810360008301526143fb816143bf565b9050919050565b7f45746368206d6573736167652063616e6e6f7420626520656d70747900000000600082015250565b6000614438601c83613e61565b915061444382614402565b602082019050919050565b600060208201905081810360008301526144678161442b565b9050919050565b7f50726f66696c6520646f6573206e6f7420657869737400000000000000000000600082015250565b60006144a4601683613e61565b91506144af8261446e565b602082019050919050565b600060208201905081810360008301526144d381614497565b9050919050565b60006060820190506144ef6000830186613dc4565b6144fc6020830185613dc4565b818103604083015261450e8184613e72565b9050949350505050565b7f537461727420696e646578206f7574206f6620626f756e647300000000000000600082015250565b600061454e601983613e61565b915061455982614518565b602082019050919050565b6000602082019050818103600083015261457d81614541565b9050919050565b600061458f82613816565b915061459a83613816565b92508282019050808211156145b2576145b16142d5565b5b92915050565b7f4e487b7100000000000000000000000000000000000000000000000000000000600052602260045260246000fd5b600060028204905060018216806145ff57607f821691505b602082108103614612576146116145b8565b5b50919050565b600060208201905081810360008301526146328184613e72565b905092915050565b60008190508160005260206000209050919050565b60006020601f8301049050919050565b600082821b905092915050565b60006008830261469c7fffffffffffffffffffffffffffffffffffffffffffffffffffffffffffffffff8261465f565b6146a6868361465f565b95508019841693508086168417925050509392505050565b6000819050919050565b6146d183613aa3565b6146e56146dd826146be565b84845461466c565b825550505050565b600090565b6146fa6146ed565b6147058184846146c8565b505050565b5b818110156147295761471e6000826146f2565b60018101905061470b565b5050565b601f82111561476e5761473f8161463a565b6147488461464f565b81016020851015614757578190505b61476b6147638561464f565b83018261470a565b50505b505050565b600082821c905092915050565b600061479160001984600802614773565b1980831691505092915050565b60006147aa8383614780565b9150826002028217905092915050565b6147c382613b5a565b67ffffffffffffffff8111156147dc576147db613867565b5b6147e682546145e7565b6147f182828561472d565b600060209050601f8311600181146148245760008415614812578287015190505b61481c858261479e565b865550614884565b601f1984166148328661463a565b60005b8281101561485a57848901518255600182019150602085019450602081019050614835565b868310156148775784890151614873601f891682614780565b8355505b6001600288020188555050505b505050505050565b7f4e6f74206c696b65642079657400000000000000000000000000000000000000600082015250565b60006148c2600d83613e61565b91506148cd8261488c565b602082019050919050565b600060208201905081810360008301526148f1816148b5565b9050919050565b7f4c696b6520636f756e7420616c7265616479207a65726f000000000000000000600082015250565b600061492e601783613e61565b9150614939826148f8565b602082019050919050565b6000602082019050818103600083015261495d81614921565b9050919050565b7f43616e6e6f7420666f6c6c6f772073656c660000000000000000000000000000600082015250565b600061499a601283613e61565b91506149a582614964565b602082019050919050565b600060208201905081810360008301526149c98161498d565b9050919050565b7f416c726561647920666f6c6c6f77696e67000000000000000000000000000000600082015250565b6000614a06601183613e61565b9150614a11826149d0565b602082019050919050565b60006020820190508181036000830152614a35816149f9565b9050919050565b7f416c7265616479206c696b656400000000000000000000000000000000000000600082015250565b6000614a72600d83613e61565b9150614a7d82614a3c565b602082019050919050565b60006020820190508181036000830152614aa181614a65565b9050919050565b6000604082019050614abd6000830185613dc4565b8181036020830152614acf8184613e72565b90509392505050565b7f557365726e616d65206d7573742062652033322063686172616374657273206f60008201527f72206c6573730000000000000000000000000000000000000000000000000000602082015250565b6000614b34602683613e61565b9150614b3f82614ad8565b604082019050919050565b60006020820190508181036000830152614b6381614b27565b9050919050565b60006040820190508181036000830152614b848185613e72565b90508181036020830152614b988184613e72565b90509392505050565b7f4e487b7100000000000000000000000000000000000000000000000000000000600052605160045260246000fdfea264697066735822122020cd491011a5816fe76840613d9f1372d226994adcc432d58546fe4c19be2c6364736f6c634300081c0033",
  "linkReferences": {},
  "deployedLinkReferences": {}
}