{
  "_format": "hh-sol-artifact-1",
  "contractName": "carve",
  "sourceName": "contracts/carve.sol",
  "abi": [
    {
      "anonymous": false,
      "inputs": [
        {
          "indexed": true,
          "internalType": "address",
          "name": "user",
          "type": "address"
        },
        {
          "indexed": false,
          "internalType": "uint256",
          "name": "newBio",
          "type": "uint256"
        }
      ],
      "name": "BioUpdated",
      "type": "event"
    },
    {
      "anonymous": false,
      "inputs": [
        {
          "indexed": true,
          "internalType": "address",
          "name": "user",
          "type": "address"
        },
        {
          "indexed": false,
          "internalType": "uint256",
          "name": "carvingId",
          "type": "uint256"
        },
        {
          "indexed": false,
          "internalType": "uint256",
          "name": "message",
          "type": "uint256"
        }
      ],
      "name": "CarvingCreated",
      "type": "event"
    },
    {
      "anonymous": false,
      "inputs": [
        {
          "indexed": true,
          "internalType": "address",
          "name": "user",
          "type": "address"
        },
        {
          "indexed": false,
          "internalType": "uint256",
          "name": "carvingId",
          "type": "uint256"
        }
      ],
      "name": "CarvingLiked",
      "type": "event"
    },
    {
      "anonymous": false,
      "inputs": [
        {
          "indexed": true,
          "internalType": "address",
          "name": "user",
          "type": "address"
        },
        {
          "indexed": false,
          "internalType": "uint256",
          "name": "carvingId",
          "type": "uint256"
        }
      ],
      "name": "CarvingReposted",
      "type": "event"
    },
    {
      "anonymous": false,
      "inputs": [
        {
          "indexed": true,
          "internalType": "address",
          "name": "user",
          "type": "address"
        },
        {
          "indexed": false,
          "internalType": "uint256",
          "name": "carvingId",
          "type": "uint256"
        }
      ],
      "name": "CarvingUnliked",
      "type": "event"
    },
    {
      "anonymous": false,
      "inputs": [
        {
          "indexed": true,
          "internalType": "address",
          "name": "user",
          "type": "address"
        },
        {
          "indexed": false,
          "internalType": "uint256",
          "name": "carvingId",
          "type": "uint256"
        },
        {
          "indexed": false,
          "internalType": "uint256",
          "name": "etchId",
          "type": "uint256"
        },
        {
          "indexed": false,
          "internalType": "uint256",
          "name": "message",
          "type": "uint256"
        }
      ],
      "name": "EtchAdded",
      "type": "event"
    },
    {
      "anonymous": false,
      "inputs": [
        {
          "indexed": true,
          "internalType": "address",
          "name": "user",
          "type": "address"
        },
        {
          "indexed": false,
          "internalType": "string",
          "name": "newPfpURL",
          "type": "string"
        }
      ],
      "name": "PfpURLUpdated",
      "type": "event"
    },
    {
      "anonymous": false,
      "inputs": [
        {
          "indexed": true,
          "internalType": "address",
          "name": "user",
          "type": "address"
        }
      ],
      "name": "UserCreated",
      "type": "event"
    },
    {
      "anonymous": false,
      "inputs": [
        {
          "indexed": true,
          "internalType": "address",
          "name": "user",
          "type": "address"
        },
        {
          "indexed": false,
          "internalType": "uint256",
          "name": "newUsername",
          "type": "uint256"
        }
      ],
      "name": "UsernameUpdated",
      "type": "event"
    },
    {
      "inputs": [],
      "name": "MAX_PFP_URL_LENGTH",
      "outputs": [
        {
          "internalType": "uint256",
          "name": "",
          "type": "uint256"
        }
      ],
      "stateMutability": "view",
      "type": "function"
    },
    {
      "inputs": [
        {
          "internalType": "uint256",
          "name": "",
          "type": "uint256"
        },
        {
          "internalType": "uint256",
          "name": "",
          "type": "uint256"
        }
      ],
      "name": "carvingEtches",
      "outputs": [
        {
          "internalType": "uint256",
          "name": "message",
          "type": "uint256"
        },
        {
          "internalType": "address",
          "name": "etcher",
          "type": "address"
        },
        {
          "internalType": "uint256",
          "name": "timestamp",
          "type": "uint256"
        }
      ],
      "stateMutability": "view",
      "type": "function"
    },
    {
      "inputs": [
        {
          "internalType": "uint256",
          "name": "",
          "type": "uint256"
        },
        {
          "internalType": "address",
          "name": "",
          "type": "address"
        }
      ],
      "name": "carvingLikedBy",
      "outputs": [
        {
          "internalType": "bool",
          "name": "",
          "type": "bool"
        }
      ],
      "stateMutability": "view",
      "type": "function"
    },
    {
      "inputs": [
        {
          "internalType": "uint256",
          "name": "",
          "type": "uint256"
        }
      ],
      "name": "carvingLikes",
      "outputs": [
        {
          "internalType": "uint256",
          "name": "",
          "type": "uint256"
        }
      ],
      "stateMutability": "view",
      "type": "function"
    },
    {
      "inputs": [
        {
          "internalType": "uint256",
          "name": "",
          "type": "uint256"
        }
      ],
      "name": "carvings",
      "outputs": [
        {
          "internalType": "uint256",
          "name": "message",
          "type": "uint256"
        },
        {
          "internalType": "address",
          "name": "carver",
          "type": "address"
        },
        {
          "internalType": "uint256",
          "name": "timestamp",
          "type": "uint256"
        }
      ],
      "stateMutability": "view",
      "type": "function"
    },
    {
      "inputs": [
        {
          "internalType": "uint256",
          "name": "_message",
          "type": "uint256"
        }
      ],
      "name": "createCarving",
      "outputs": [],
      "stateMutability": "nonpayable",
      "type": "function"
    },
    {
      "inputs": [
        {
          "internalType": "uint256",
          "name": "_carvingId",
          "type": "uint256"
        },
        {
          "internalType": "uint256",
          "name": "_message",
          "type": "uint256"
        }
      ],
      "name": "etchUnderCarving",
      "outputs": [],
      "stateMutability": "nonpayable",
      "type": "function"
    },
    {
      "inputs": [
        {
          "internalType": "uint256",
          "name": "start",
          "type": "uint256"
        },
        {
          "internalType": "uint256",
          "name": "count",
          "type": "uint256"
        }
      ],
      "name": "getCarvings",
      "outputs": [
        {
          "components": [
            {
              "internalType": "uint256",
              "name": "message",
              "type": "uint256"
            },
            {
              "internalType": "address",
              "name": "carver",
              "type": "address"
            },
            {
              "internalType": "uint256",
              "name": "timestamp",
              "type": "uint256"
            }
          ],
          "internalType": "struct carve.Carving[]",
          "name": "",
          "type": "tuple[]"
        }
      ],
      "stateMutability": "view",
      "type": "function"
    },
    {
      "inputs": [],
      "name": "getCarvingsCount",
      "outputs": [
        {
          "internalType": "uint256",
          "name": "",
          "type": "uint256"
        }
      ],
      "stateMutability": "view",
      "type": "function"
    },
    {
      "inputs": [
        {
          "internalType": "uint256",
          "name": "_carvingId",
          "type": "uint256"
        }
      ],
      "name": "getEtchCount",
      "outputs": [
        {
          "internalType": "uint256",
          "name": "",
          "type": "uint256"
        }
      ],
      "stateMutability": "view",
      "type": "function"
    },
    {
      "inputs": [
        {
          "internalType": "uint256",
          "name": "_carvingId",
          "type": "uint256"
        },
        {
          "internalType": "uint256",
          "name": "start",
          "type": "uint256"
        },
        {
          "internalType": "uint256",
          "name": "count",
          "type": "uint256"
        }
      ],
      "name": "getEtches",
      "outputs": [
        {
          "components": [
            {
              "internalType": "uint256",
              "name": "message",
              "type": "uint256"
            },
            {
              "internalType": "address",
              "name": "etcher",
              "type": "address"
            },
            {
              "internalType": "uint256",
              "name": "timestamp",
              "type": "uint256"
            }
          ],
          "internalType": "struct carve.Etch[]",
          "name": "",
          "type": "tuple[]"
        }
      ],
      "stateMutability": "view",
      "type": "function"
    },
    {
      "inputs": [
        {
          "internalType": "uint256",
          "name": "_carvingId",
          "type": "uint256"
        }
      ],
      "name": "getLikesCount",
      "outputs": [
        {
          "internalType": "uint256",
          "name": "",
          "type": "uint256"
        }
      ],
      "stateMutability": "view",
      "type": "function"
    },
    {
      "inputs": [
        {
          "internalType": "address",
          "name": "_user",
          "type": "address"
        },
        {
          "internalType": "uint256",
          "name": "start",
          "type": "uint256"
        },
        {
          "internalType": "uint256",
          "name": "count",
          "type": "uint256"
        }
      ],
      "name": "getUserCarvings",
      "outputs": [
        {
          "components": [
            {
              "internalType": "uint256",
              "name": "message",
              "type": "uint256"
            },
            {
              "internalType": "address",
              "name": "carver",
              "type": "address"
            },
            {
              "internalType": "uint256",
              "name": "timestamp",
              "type": "uint256"
            }
          ],
          "internalType": "struct carve.Carving[]",
          "name": "",
          "type": "tuple[]"
        }
      ],
      "stateMutability": "view",
      "type": "function"
    },
    {
      "inputs": [
        {
          "internalType": "address",
          "name": "_user",
          "type": "address"
        }
      ],
      "name": "getUserProfile",
      "outputs": [
        {
          "internalType": "uint256",
          "name": "",
          "type": "uint256"
        },
        {
          "internalType": "uint256",
          "name": "",
          "type": "uint256"
        },
        {
          "internalType": "string",
          "name": "",
          "type": "string"
        }
      ],
      "stateMutability": "view",
      "type": "function"
    },
    {
      "inputs": [
        {
          "internalType": "address",
          "name": "_user",
          "type": "address"
        },
        {
          "internalType": "uint256",
          "name": "_carvingId",
          "type": "uint256"
        }
      ],
      "name": "hasLikedCarving",
      "outputs": [
        {
          "internalType": "bool",
          "name": "",
          "type": "bool"
        }
      ],
      "stateMutability": "view",
      "type": "function"
    },
    {
      "inputs": [
        {
          "internalType": "uint256",
          "name": "_carvingId",
          "type": "uint256"
        }
      ],
      "name": "likeCarving",
      "outputs": [],
      "stateMutability": "nonpayable",
      "type": "function"
    },
    {
      "inputs": [
        {
          "internalType": "uint256",
          "name": "_carvingId",
          "type": "uint256"
        }
      ],
      "name": "recarve",
      "outputs": [],
      "stateMutability": "nonpayable",
      "type": "function"
    },
    {
      "inputs": [
        {
          "internalType": "uint256",
          "name": "",
          "type": "uint256"
        }
      ],
      "name": "recarvings",
      "outputs": [
        {
          "internalType": "uint256",
          "name": "",
          "type": "uint256"
        }
      ],
      "stateMutability": "view",
      "type": "function"
    },
    {
      "inputs": [
        {
          "internalType": "uint256",
          "name": "_bio",
          "type": "uint256"
        }
      ],
      "name": "setBio",
      "outputs": [],
      "stateMutability": "nonpayable",
      "type": "function"
    },
    {
      "inputs": [
        {
          "internalType": "string",
          "name": "_pfpURL",
          "type": "string"
        }
      ],
      "name": "setPfpURL",
      "outputs": [],
      "stateMutability": "nonpayable",
      "type": "function"
    },
    {
      "inputs": [
        {
          "internalType": "uint256",
          "name": "_username",
          "type": "uint256"
        }
      ],
      "name": "setUsername",
      "outputs": [],
      "stateMutability": "nonpayable",
      "type": "function"
    },
    {
      "inputs": [
        {
          "internalType": "uint256",
          "name": "_carvingId",
          "type": "uint256"
        }
      ],
      "name": "unlikeCarving",
      "outputs": [],
      "stateMutability": "nonpayable",
      "type": "function"
    },
    {
      "inputs": [
        {
          "internalType": "address",
          "name": "",
          "type": "address"
        },
        {
          "internalType": "uint256",
          "name": "",
          "type": "uint256"
        }
      ],
      "name": "userCarvings",
      "outputs": [
        {
          "internalType": "uint256",
          "name": "",
          "type": "uint256"
        }
      ],
      "stateMutability": "view",
      "type": "function"
    },
    {
      "inputs": [
        {
          "internalType": "address",
          "name": "",
          "type": "address"
        }
      ],
      "name": "userProfiles",
      "outputs": [
        {
          "internalType": "uint256",
          "name": "username",
          "type": "uint256"
        },
        {
          "internalType": "uint256",
          "name": "bio",
          "type": "uint256"
        },
        {
          "internalType": "string",
          "name": "pfpURL",
          "type": "string"
        }
      ],
      "stateMutability": "view",
      "type": "function"
    }
  ],
  "bytecode": "0x6080604052348015600f57600080fd5b50612c6e8061001f6000396000f3fe608060405234801561001057600080fd5b50600436106101585760003560e01c806394be32de116100c3578063b1e1cb2d1161007c578063b1e1cb2d14610415578063d773cb7b14610445578063d9903f0514610475578063e9ceb11c146104a5578063f58fac62146104d5578063f67a60b51461050557610158565b806394be32de1461031b578063987ee1561461034b5780639e2e644c1461037d5780639e4eac7414610399578063a160a5df146103c9578063a3a4d1f9146103f957610158565b80634864f7e5116101155780634864f7e514610245578063498f7aea1461027757806360a3344e146102a757806365aafe13146102c357806366fcf9e2146102df578063797fc1e0146102fd57610158565b806309b0c7c21461015d57806310b8f5681461018d5780632c14c815146101a9578063315a6446146101db578063332d56d7146101f75780633cda863614610229575b600080fd5b61017760048036038101906101729190611d96565b610521565b6040516101849190611ef8565b60405180910390f35b6101a760048036038101906101a29190611f1a565b61077f565b005b6101c360048036038101906101be9190611f47565b610842565b6040516101d293929190611fa5565b60405180910390f35b6101f560048036038101906101f09190612122565b6108a9565b005b610211600480360381019061020c919061216b565b6109d6565b60405161022093929190612217565b60405180910390f35b610243600480360381019061023e9190611f1a565b610a88565b005b61025f600480360381019061025a9190611f1a565b610ca7565b60405161026e93929190611fa5565b60405180910390f35b610291600480360381019061028c9190611f1a565b610d01565b60405161029e9190612255565b60405180910390f35b6102c160048036038101906102bc9190611f47565b610d19565b005b6102dd60048036038101906102d89190611f1a565b610ef1565b005b6102e76110bb565b6040516102f49190612255565b60405180910390f35b6103056110c0565b6040516103129190612255565b60405180910390f35b61033560048036038101906103309190611f1a565b6110cd565b6040516103429190612255565b60405180910390f35b6103656004803603810190610360919061216b565b611134565b60405161037493929190612217565b60405180910390f35b61039760048036038101906103929190611f1a565b611249565b005b6103b360048036038101906103ae9190612270565b6113d7565b6040516103c091906122cb565b60405180910390f35b6103e360048036038101906103de9190611f1a565b611486565b6040516103f09190612255565b60405180910390f35b610413600480360381019061040e9190611f1a565b6114ea565b005b61042f600480360381019061042a9190611f1a565b6115c9565b60405161043c9190612255565b60405180910390f35b61045f600480360381019061045a9190612270565b6115e1565b60405161046c9190612255565b60405180910390f35b61048f600480360381019061048a9190611f47565b611612565b60405161049c9190611ef8565b60405180910390f35b6104bf60048036038101906104ba91906122e6565b6117ce565b6040516104cc919061242a565b60405180910390f35b6104ef60048036038101906104ea919061244c565b611a22565b6040516104fc91906122cb565b60405180910390f35b61051f600480360381019061051a9190611f1a565b611a51565b005b60606000600260008673ffffffffffffffffffffffffffffffffffffffff1673ffffffffffffffffffffffffffffffffffffffff1681526020019081526020016000208054806020026020016040519081016040528092919081815260200182805480156105ae57602002820191906000526020600020905b81548152602001906001019080831161059a575b50505050509050805184106105f8576040517f08c379a00000000000000000000000000000000000000000000000000000000081526004016105ef906124d8565b60405180910390fd5b600083856106069190612527565b9050815181111561061657815190505b60008582610624919061255b565b905060008167ffffffffffffffff81111561064257610641611ff7565b5b60405190808252806020026020018201604052801561067b57816020015b610668611c80565b8152602001906001900390816106605790505b50905060005b8281101561077057600185828a6106989190612527565b815181106106a9576106a861258f565b5b6020026020010151815481106106c2576106c161258f565b5b9060005260206000209060030201604051806060016040529081600082015481526020016001820160009054906101000a900473ffffffffffffffffffffffffffffffffffffffff1673ffffffffffffffffffffffffffffffffffffffff1673ffffffffffffffffffffffffffffffffffffffff1681526020016002820154815250508282815181106107585761075761258f565b5b60200260200101819052508080600101915050610681565b50809450505050509392505050565b60018054905081106107c6576040517f08c379a00000000000000000000000000000000000000000000000000000000081526004016107bd9061260a565b60405180910390fd5b60016005600083815260200190815260200160002060008282546107ea9190612527565b925050819055503373ffffffffffffffffffffffffffffffffffffffff167f1f2318d8a4b183153be801602931a7618a474ae82a8f4de31745de9b88b812c8826040516108379190612255565b60405180910390a250565b6006602052816000526040600020818154811061085e57600080fd5b9060005260206000209060030201600091509150508060000154908060010160009054906101000a900473ffffffffffffffffffffffffffffffffffffffff16908060020154905083565b6108b233611b3f565b6108f1576040517f08c379a00000000000000000000000000000000000000000000000000000000081526004016108e890612676565b60405180910390fd5b608081511115610936576040517f08c379a000000000000000000000000000000000000000000000000000000000815260040161092d90612708565b60405180910390fd5b3373ffffffffffffffffffffffffffffffffffffffff167f25ba221a050a88ea7a5ee0fb3f5a111256700f9c5d334da25a14f986cd646f2a8260405161097c9190612728565b60405180910390a2806000803373ffffffffffffffffffffffffffffffffffffffff1673ffffffffffffffffffffffffffffffffffffffff16815260200190815260200160002060020190816109d29190612956565b5050565b6000602052806000526040600020600091509050806000015490806001015490806002018054610a0590612779565b80601f0160208091040260200160405190810160405280929190818152602001828054610a3190612779565b8015610a7e5780601f10610a5357610100808354040283529160200191610a7e565b820191906000526020600020905b815481529060010190602001808311610a6157829003601f168201915b5050505050905083565b6001805490508110610acf576040517f08c379a0000000000000000000000000000000000000000000000000000000008152600401610ac69061260a565b60405180910390fd5b6004600082815260200190815260200160002060003373ffffffffffffffffffffffffffffffffffffffff1673ffffffffffffffffffffffffffffffffffffffff16815260200190815260200160002060009054906101000a900460ff16610b6c576040517f08c379a0000000000000000000000000000000000000000000000000000000008152600401610b6390612a74565b60405180910390fd5b6000600360008381526020019081526020016000205411610bc2576040517f08c379a0000000000000000000000000000000000000000000000000000000008152600401610bb990612ae0565b60405180910390fd5b6001600360008381526020019081526020016000206000828254610be6919061255b565b9250508190555060006004600083815260200190815260200160002060003373ffffffffffffffffffffffffffffffffffffffff1673ffffffffffffffffffffffffffffffffffffffff16815260200190815260200160002060006101000a81548160ff0219169083151502179055503373ffffffffffffffffffffffffffffffffffffffff167f0dce267b7394146bcd9440db5b2b81d45e7c43ee4667daba50d2c096afa9b8d082604051610c9c9190612255565b60405180910390a250565b60018181548110610cb757600080fd5b90600052602060002090600302016000915090508060000154908060010160009054906101000a900473ffffffffffffffffffffffffffffffffffffffff16908060020154905083565b60056020528060005260406000206000915090505481565b6001805490508210610d60576040517f08c379a0000000000000000000000000000000000000000000000000000000008152600401610d579061260a565b60405180910390fd5b60008111610da3576040517f08c379a0000000000000000000000000000000000000000000000000000000008152600401610d9a90612b4c565b60405180910390fd5b600060405180606001604052808381526020013373ffffffffffffffffffffffffffffffffffffffff168152602001428152509050600660008481526020019081526020016000208190806001815401808255809150506001900390600052602060002090600302016000909190919091506000820151816000015560208201518160010160006101000a81548173ffffffffffffffffffffffffffffffffffffffff021916908373ffffffffffffffffffffffffffffffffffffffff160217905550604082015181600201555050600060016006600086815260200190815260200160002080549050610e97919061255b565b90503373ffffffffffffffffffffffffffffffffffffffff167f86be868576a5f8009886aa82714841d31cb1551fd3dc65f071f1248226bbd15b858386604051610ee393929190612b6c565b60405180910390a250505050565b6001805490508110610f38576040517f08c379a0000000000000000000000000000000000000000000000000000000008152600401610f2f9061260a565b60405180910390fd5b6004600082815260200190815260200160002060003373ffffffffffffffffffffffffffffffffffffffff1673ffffffffffffffffffffffffffffffffffffffff16815260200190815260200160002060009054906101000a900460ff1615610fd6576040517f08c379a0000000000000000000000000000000000000000000000000000000008152600401610fcd90612bef565b60405180910390fd5b6001600360008381526020019081526020016000206000828254610ffa9190612527565b9250508190555060016004600083815260200190815260200160002060003373ffffffffffffffffffffffffffffffffffffffff1673ffffffffffffffffffffffffffffffffffffffff16815260200190815260200160002060006101000a81548160ff0219169083151502179055503373ffffffffffffffffffffffffffffffffffffffff167fc9b5b9db000d21d664ad6f78f6252c1bf358d53e66def587def640c86a5cbf58826040516110b09190612255565b60405180910390a250565b608081565b6000600180549050905090565b60006001805490508210611116576040517f08c379a000000000000000000000000000000000000000000000000000000000815260040161110d9061260a565b60405180910390fd5b60066000838152602001908152602001600020805490509050919050565b600080606060008060008673ffffffffffffffffffffffffffffffffffffffff1673ffffffffffffffffffffffffffffffffffffffff16815260200190815260200160002060405180606001604052908160008201548152602001600182015481526020016002820180546111a890612779565b80601f01602080910402602001604051908101604052809291908181526020018280546111d490612779565b80156112215780601f106111f657610100808354040283529160200191611221565b820191906000526020600020905b81548152906001019060200180831161120457829003601f168201915b5050505050815250509050806000015181602001518260400151935093509350509193909250565b600060405180606001604052808381526020013373ffffffffffffffffffffffffffffffffffffffff16815260200142815250905060018190806001815401808255809150506001900390600052602060002090600302016000909190919091506000820151816000015560208201518160010160006101000a81548173ffffffffffffffffffffffffffffffffffffffff021916908373ffffffffffffffffffffffffffffffffffffffff16021790555060408201518160020155505060006001808054905061131a919061255b565b9050600260003373ffffffffffffffffffffffffffffffffffffffff1673ffffffffffffffffffffffffffffffffffffffff1681526020019081526020016000208190806001815401808255809150506001900390600052602060002001600090919091909150553373ffffffffffffffffffffffffffffffffffffffff167f23beed274a3c51556fa8cd6330d497cd8e8b96b427223e6c15c3f0201521f58082856040516113ca929190612c0f565b60405180910390a2505050565b60006001805490508210611420576040517f08c379a00000000000000000000000000000000000000000000000000000000081526004016114179061260a565b60405180910390fd5b6004600083815260200190815260200160002060008473ffffffffffffffffffffffffffffffffffffffff1673ffffffffffffffffffffffffffffffffffffffff16815260200190815260200160002060009054906101000a900460ff16905092915050565b600060018054905082106114cf576040517f08c379a00000000000000000000000000000000000000000000000000000000081526004016114c69061260a565b60405180910390fd5b60036000838152602001908152602001600020549050919050565b6114f333611b3f565b611532576040517f08c379a000000000000000000000000000000000000000000000000000000000815260040161152990612676565b60405180910390fd5b3373ffffffffffffffffffffffffffffffffffffffff167f0eb8eb0d3d03d1b2d95f643ba19059afcaefee4e0386ccb58f4f4c8eb7367470826040516115789190612255565b60405180910390a2806000803373ffffffffffffffffffffffffffffffffffffffff1673ffffffffffffffffffffffffffffffffffffffff1681526020019081526020016000206001018190555050565b60036020528060005260406000206000915090505481565b600260205281600052604060002081815481106115fd57600080fd5b90600052602060002001600091509150505481565b6060600180549050831061165b576040517f08c379a0000000000000000000000000000000000000000000000000000000008152600401611652906124d8565b60405180910390fd5b600082846116699190612527565b90506001805490508111156116815760018054905090505b6000848261168f919061255b565b905060008167ffffffffffffffff8111156116ad576116ac611ff7565b5b6040519080825280602002602001820160405280156116e657816020015b6116d3611c80565b8152602001906001900390816116cb5790505b50905060005b828110156117c157600181886117029190612527565b815481106117135761171261258f565b5b9060005260206000209060030201604051806060016040529081600082015481526020016001820160009054906101000a900473ffffffffffffffffffffffffffffffffffffffff1673ffffffffffffffffffffffffffffffffffffffff1673ffffffffffffffffffffffffffffffffffffffff1681526020016002820154815250508282815181106117a9576117a861258f565b5b602002602001018190525080806001019150506116ec565b5080935050505092915050565b60606001805490508410611817576040517f08c379a000000000000000000000000000000000000000000000000000000000815260040161180e9061260a565b60405180910390fd5b600060066000868152602001908152602001600020805480602002602001604051908101604052809291908181526020016000905b828210156118e85783829060005260206000209060030201604051806060016040529081600082015481526020016001820160009054906101000a900473ffffffffffffffffffffffffffffffffffffffff1673ffffffffffffffffffffffffffffffffffffffff1673ffffffffffffffffffffffffffffffffffffffff1681526020016002820154815250508152602001906001019061184c565b50505050905080518410611931576040517f08c379a0000000000000000000000000000000000000000000000000000000008152600401611928906124d8565b60405180910390fd5b6000838561193f9190612527565b9050815181111561194f57815190505b6000858261195d919061255b565b905060008167ffffffffffffffff81111561197b5761197a611ff7565b5b6040519080825280602002602001820160405280156119b457816020015b6119a1611cb7565b8152602001906001900390816119995790505b50905060005b82811015611a13578481896119cf9190612527565b815181106119e0576119df61258f565b5b60200260200101518282815181106119fb576119fa61258f565b5b602002602001018190525080806001019150506119ba565b50809450505050509392505050565b60046020528160005260406000206020528060005260406000206000915091509054906101000a900460ff1681565b611a5a33611b8d565b15611aa7573373ffffffffffffffffffffffffffffffffffffffff167f0b0376a109cbb578b709f85f6a7befcdac3ac1ab251c99ede87f30c9572ac4d360405160405180910390a2611af6565b3373ffffffffffffffffffffffffffffffffffffffff167f969830e853f6d5de5676815edb861fe9de610066402c3c39ddea88954ff18e0a82604051611aed9190612255565b60405180910390a25b806000803373ffffffffffffffffffffffffffffffffffffffff1673ffffffffffffffffffffffffffffffffffffffff1681526020019081526020016000206000018190555050565b6000806000808473ffffffffffffffffffffffffffffffffffffffff1673ffffffffffffffffffffffffffffffffffffffff1681526020019081526020016000206000015414159050919050565b6000806000808473ffffffffffffffffffffffffffffffffffffffff1673ffffffffffffffffffffffffffffffffffffffff1681526020019081526020016000206002018054611bdc90612779565b9050148015611c2c575060008060008473ffffffffffffffffffffffffffffffffffffffff1673ffffffffffffffffffffffffffffffffffffffff16815260200190815260200160002060000154145b8015611c79575060008060008473ffffffffffffffffffffffffffffffffffffffff1673ffffffffffffffffffffffffffffffffffffffff16815260200190815260200160002060010154145b9050919050565b604051806060016040528060008152602001600073ffffffffffffffffffffffffffffffffffffffff168152602001600081525090565b604051806060016040528060008152602001600073ffffffffffffffffffffffffffffffffffffffff168152602001600081525090565b6000604051905090565b600080fd5b600080fd5b600073ffffffffffffffffffffffffffffffffffffffff82169050919050565b6000611d2d82611d02565b9050919050565b611d3d81611d22565b8114611d4857600080fd5b50565b600081359050611d5a81611d34565b92915050565b6000819050919050565b611d7381611d60565b8114611d7e57600080fd5b50565b600081359050611d9081611d6a565b92915050565b600080600060608486031215611daf57611dae611cf8565b5b6000611dbd86828701611d4b565b9350506020611dce86828701611d81565b9250506040611ddf86828701611d81565b9150509250925092565b600081519050919050565b600082825260208201905092915050565b6000819050602082019050919050565b611e1e81611d60565b82525050565b611e2d81611d22565b82525050565b606082016000820151611e496000850182611e15565b506020820151611e5c6020850182611e24565b506040820151611e6f6040850182611e15565b50505050565b6000611e818383611e33565b60608301905092915050565b6000602082019050919050565b6000611ea582611de9565b611eaf8185611df4565b9350611eba83611e05565b8060005b83811015611eeb578151611ed28882611e75565b9750611edd83611e8d565b925050600181019050611ebe565b5085935050505092915050565b60006020820190508181036000830152611f128184611e9a565b905092915050565b600060208284031215611f3057611f2f611cf8565b5b6000611f3e84828501611d81565b91505092915050565b60008060408385031215611f5e57611f5d611cf8565b5b6000611f6c85828601611d81565b9250506020611f7d85828601611d81565b9150509250929050565b611f9081611d60565b82525050565b611f9f81611d22565b82525050565b6000606082019050611fba6000830186611f87565b611fc76020830185611f96565b611fd46040830184611f87565b949350505050565b600080fd5b600080fd5b6000601f19601f8301169050919050565b7f4e487b7100000000000000000000000000000000000000000000000000000000600052604160045260246000fd5b61202f82611fe6565b810181811067ffffffffffffffff8211171561204e5761204d611ff7565b5b80604052505050565b6000612061611cee565b905061206d8282612026565b919050565b600067ffffffffffffffff82111561208d5761208c611ff7565b5b61209682611fe6565b9050602081019050919050565b82818337600083830152505050565b60006120c56120c084612072565b612057565b9050828152602081018484840111156120e1576120e0611fe1565b5b6120ec8482856120a3565b509392505050565b600082601f83011261210957612108611fdc565b5b81356121198482602086016120b2565b91505092915050565b60006020828403121561213857612137611cf8565b5b600082013567ffffffffffffffff81111561215657612155611cfd565b5b612162848285016120f4565b91505092915050565b60006020828403121561218157612180611cf8565b5b600061218f84828501611d4b565b91505092915050565b600081519050919050565b600082825260208201905092915050565b60005b838110156121d25780820151818401526020810190506121b7565b60008484015250505050565b60006121e982612198565b6121f381856121a3565b93506122038185602086016121b4565b61220c81611fe6565b840191505092915050565b600060608201905061222c6000830186611f87565b6122396020830185611f87565b818103604083015261224b81846121de565b9050949350505050565b600060208201905061226a6000830184611f87565b92915050565b6000806040838503121561228757612286611cf8565b5b600061229585828601611d4b565b92505060206122a685828601611d81565b9150509250929050565b60008115159050919050565b6122c5816122b0565b82525050565b60006020820190506122e060008301846122bc565b92915050565b6000806000606084860312156122ff576122fe611cf8565b5b600061230d86828701611d81565b935050602061231e86828701611d81565b925050604061232f86828701611d81565b9150509250925092565b600081519050919050565b600082825260208201905092915050565b6000819050602082019050919050565b60608201600082015161237b6000850182611e15565b50602082015161238e6020850182611e24565b5060408201516123a16040850182611e15565b50505050565b60006123b38383612365565b60608301905092915050565b6000602082019050919050565b60006123d782612339565b6123e18185612344565b93506123ec83612355565b8060005b8381101561241d57815161240488826123a7565b975061240f836123bf565b9250506001810190506123f0565b5085935050505092915050565b6000602082019050818103600083015261244481846123cc565b905092915050565b6000806040838503121561246357612462611cf8565b5b600061247185828601611d81565b925050602061248285828601611d4b565b9150509250929050565b7f537461727420696e646578206f7574206f6620626f756e647300000000000000600082015250565b60006124c26019836121a3565b91506124cd8261248c565b602082019050919050565b600060208201905081810360008301526124f1816124b5565b9050919050565b7f4e487b7100000000000000000000000000000000000000000000000000000000600052601160045260246000fd5b600061253282611d60565b915061253d83611d60565b9250828201905080821115612555576125546124f8565b5b92915050565b600061256682611d60565b915061257183611d60565b9250828203905081811115612589576125886124f8565b5b92915050565b7f4e487b7100000000000000000000000000000000000000000000000000000000600052603260045260246000fd5b7f496e76616c69642063617276696e672049440000000000000000000000000000600082015250565b60006125f46012836121a3565b91506125ff826125be565b602082019050919050565b60006020820190508181036000830152612623816125e7565b9050919050565b7f50726f66696c6520646f6573206e6f7420657869737400000000000000000000600082015250565b60006126606016836121a3565b915061266b8261262a565b602082019050919050565b6000602082019050818103600083015261268f81612653565b9050919050565b7f50667055524c2065786365656473206d6178696d756d206c656e677468206f6660008201527f2031323820636861726163746572730000000000000000000000000000000000602082015250565b60006126f2602f836121a3565b91506126fd82612696565b604082019050919050565b60006020820190508181036000830152612721816126e5565b9050919050565b6000602082019050818103600083015261274281846121de565b905092915050565b7f4e487b7100000000000000000000000000000000000000000000000000000000600052602260045260246000fd5b6000600282049050600182168061279157607f821691505b6020821081036127a4576127a361274a565b5b50919050565b60008190508160005260206000209050919050565b60006020601f8301049050919050565b600082821b905092915050565b60006008830261280c7fffffffffffffffffffffffffffffffffffffffffffffffffffffffffffffffff826127cf565b61281686836127cf565b95508019841693508086168417925050509392505050565b6000819050919050565b600061285361284e61284984611d60565b61282e565b611d60565b9050919050565b6000819050919050565b61286d83612838565b6128816128798261285a565b8484546127dc565b825550505050565b600090565b612896612889565b6128a1818484612864565b505050565b5b818110156128c5576128ba60008261288e565b6001810190506128a7565b5050565b601f82111561290a576128db816127aa565b6128e4846127bf565b810160208510156128f3578190505b6129076128ff856127bf565b8301826128a6565b50505b505050565b600082821c905092915050565b600061292d6000198460080261290f565b1980831691505092915050565b6000612946838361291c565b9150826002028217905092915050565b61295f82612198565b67ffffffffffffffff81111561297857612977611ff7565b5b6129828254612779565b61298d8282856128c9565b600060209050601f8311600181146129c057600084156129ae578287015190505b6129b8858261293a565b865550612a20565b601f1984166129ce866127aa565b60005b828110156129f6578489015182556001820191506020850194506020810190506129d1565b86831015612a135784890151612a0f601f89168261291c565b8355505b6001600288020188555050505b505050505050565b7f4e6f74206c696b65642079657400000000000000000000000000000000000000600082015250565b6000612a5e600d836121a3565b9150612a6982612a28565b602082019050919050565b60006020820190508181036000830152612a8d81612a51565b9050919050565b7f4c696b6520636f756e7420616c7265616479207a65726f000000000000000000600082015250565b6000612aca6017836121a3565b9150612ad582612a94565b602082019050919050565b60006020820190508181036000830152612af981612abd565b9050919050565b7f45746368206d6573736167652063616e6e6f7420626520656d70747900000000600082015250565b6000612b36601c836121a3565b9150612b4182612b00565b602082019050919050565b60006020820190508181036000830152612b6581612b29565b9050919050565b6000606082019050612b816000830186611f87565b612b8e6020830185611f87565b612b9b6040830184611f87565b949350505050565b7f416c7265616479206c696b656400000000000000000000000000000000000000600082015250565b6000612bd9600d836121a3565b9150612be482612ba3565b602082019050919050565b60006020820190508181036000830152612c0881612bcc565b9050919050565b6000604082019050612c246000830185611f87565b612c316020830184611f87565b939250505056fea2646970667358221220dfd3306d79097b8ec2ff02b806d34aa442748056cc3bad9f97624fccd65680e364736f6c634300081c0033",
  "linkReferences": {},
  "deployedLinkReferences": {}
}