{
  "_format": "hh-sol-artifact-1",
  "contractName": "carve",
  "sourceName": "contracts/carve.sol",
  "abi": [
    {
      "anonymous": false,
      "inputs": [
        {
          "indexed": true,
          "internalType": "address",
          "name": "user",
          "type": "address"
        },
        {
          "indexed": false,
          "internalType": "string",
          "name": "newBackgroundURL",
          "type": "string"
        }
      ],
      "name": "BackgroundURLUpdated",
      "type": "event"
    },
    {
      "anonymous": false,
      "inputs": [
        {
          "indexed": true,
          "internalType": "address",
          "name": "user",
          "type": "address"
        },
        {
          "indexed": false,
          "internalType": "string",
          "name": "newBio",
          "type": "string"
        }
      ],
      "name": "BioUpdated",
      "type": "event"
    },
    {
      "anonymous": false,
      "inputs": [
        {
          "indexed": true,
          "internalType": "address",
          "name": "user",
          "type": "address"
        },
        {
          "indexed": false,
          "internalType": "CarvingId",
          "name": "carvingId",
          "type": "uint256"
        },
        {
          "indexed": false,
          "internalType": "string",
          "name": "message",
          "type": "string"
        }
      ],
      "name": "CarvingCreated",
      "type": "event"
    },
    {
      "anonymous": false,
      "inputs": [
        {
          "indexed": true,
          "internalType": "address",
          "name": "user",
          "type": "address"
        },
        {
          "indexed": false,
          "internalType": "CarvingId",
          "name": "carvingId",
          "type": "uint256"
        }
      ],
      "name": "CarvingLiked",
      "type": "event"
    },
    {
      "anonymous": false,
      "inputs": [
        {
          "indexed": true,
          "internalType": "address",
          "name": "user",
          "type": "address"
        },
        {
          "indexed": false,
          "internalType": "CarvingId",
          "name": "carvingId",
          "type": "uint256"
        }
      ],
      "name": "CarvingRecarved",
      "type": "event"
    },
    {
      "anonymous": false,
      "inputs": [
        {
          "indexed": true,
          "internalType": "address",
          "name": "user",
          "type": "address"
        },
        {
          "indexed": false,
          "internalType": "CarvingId",
          "name": "carvingId",
          "type": "uint256"
        }
      ],
      "name": "CarvingUnliked",
      "type": "event"
    },
    {
      "anonymous": false,
      "inputs": [
        {
          "indexed": true,
          "internalType": "address",
          "name": "user",
          "type": "address"
        },
        {
          "indexed": false,
          "internalType": "CarvingId",
          "name": "carvingId",
          "type": "uint256"
        },
        {
          "indexed": false,
          "internalType": "CarvingId",
          "name": "etchId",
          "type": "uint256"
        },
        {
          "indexed": false,
          "internalType": "string",
          "name": "message",
          "type": "string"
        }
      ],
      "name": "EtchAdded",
      "type": "event"
    },
    {
      "anonymous": false,
      "inputs": [
        {
          "indexed": true,
          "internalType": "address",
          "name": "user",
          "type": "address"
        },
        {
          "indexed": false,
          "internalType": "string",
          "name": "newPfpURL",
          "type": "string"
        }
      ],
      "name": "PfpURLUpdated",
      "type": "event"
    },
    {
      "anonymous": false,
      "inputs": [
        {
          "indexed": true,
          "internalType": "address",
          "name": "user",
          "type": "address"
        }
      ],
      "name": "UserCreated",
      "type": "event"
    },
    {
      "anonymous": false,
      "inputs": [
        {
          "indexed": true,
          "internalType": "address",
          "name": "follower",
          "type": "address"
        },
        {
          "indexed": true,
          "internalType": "address",
          "name": "followedUser",
          "type": "address"
        }
      ],
      "name": "UserFollowed",
      "type": "event"
    },
    {
      "anonymous": false,
      "inputs": [
        {
          "indexed": true,
          "internalType": "address",
          "name": "follower",
          "type": "address"
        },
        {
          "indexed": true,
          "internalType": "address",
          "name": "unfollowedUser",
          "type": "address"
        }
      ],
      "name": "UserUnfollowed",
      "type": "event"
    },
    {
      "anonymous": false,
      "inputs": [
        {
          "indexed": true,
          "internalType": "address",
          "name": "user",
          "type": "address"
        },
        {
          "indexed": false,
          "internalType": "string",
          "name": "newUsername",
          "type": "string"
        }
      ],
      "name": "UsernameUpdated",
      "type": "event"
    },
    {
      "inputs": [
        {
          "internalType": "CarvingId",
          "name": "",
          "type": "uint256"
        },
        {
          "internalType": "uint256",
          "name": "",
          "type": "uint256"
        }
      ],
      "name": "carvingEtches",
      "outputs": [
        {
          "internalType": "CarvingId",
          "name": "",
          "type": "uint256"
        }
      ],
      "stateMutability": "view",
      "type": "function"
    },
    {
      "inputs": [
        {
          "internalType": "CarvingId",
          "name": "",
          "type": "uint256"
        }
      ],
      "name": "carvingLikeCounts",
      "outputs": [
        {
          "internalType": "uint256",
          "name": "",
          "type": "uint256"
        }
      ],
      "stateMutability": "view",
      "type": "function"
    },
    {
      "inputs": [
        {
          "internalType": "CarvingId",
          "name": "",
          "type": "uint256"
        },
        {
          "internalType": "address",
          "name": "",
          "type": "address"
        }
      ],
      "name": "carvingLikedBy",
      "outputs": [
        {
          "internalType": "bool",
          "name": "",
          "type": "bool"
        }
      ],
      "stateMutability": "view",
      "type": "function"
    },
    {
      "inputs": [
        {
          "internalType": "CarvingId",
          "name": "",
          "type": "uint256"
        }
      ],
      "name": "carvingRecarveCounts",
      "outputs": [
        {
          "internalType": "uint256",
          "name": "",
          "type": "uint256"
        }
      ],
      "stateMutability": "view",
      "type": "function"
    },
    {
      "inputs": [
        {
          "internalType": "uint256",
          "name": "",
          "type": "uint256"
        }
      ],
      "name": "carvings",
      "outputs": [
        {
          "internalType": "CarvingId",
          "name": "id",
          "type": "uint256"
        },
        {
          "internalType": "CarvingId",
          "name": "originalCarvingId",
          "type": "uint256"
        },
        {
          "internalType": "uint256",
          "name": "sentAt",
          "type": "uint256"
        },
        {
          "internalType": "address",
          "name": "carver",
          "type": "address"
        },
        {
          "internalType": "enum carve.CarvingType",
          "name": "carvingType",
          "type": "uint8"
        },
        {
          "internalType": "bool",
          "name": "hidden",
          "type": "bool"
        },
        {
          "internalType": "string",
          "name": "message",
          "type": "string"
        }
      ],
      "stateMutability": "view",
      "type": "function"
    },
    {
      "inputs": [
        {
          "internalType": "string",
          "name": "_message",
          "type": "string"
        }
      ],
      "name": "createCarving",
      "outputs": [],
      "stateMutability": "nonpayable",
      "type": "function"
    },
    {
      "inputs": [
        {
          "internalType": "CarvingId",
          "name": "_carvingId",
          "type": "uint256"
        },
        {
          "internalType": "string",
          "name": "_message",
          "type": "string"
        }
      ],
      "name": "etchUnderCarving",
      "outputs": [],
      "stateMutability": "nonpayable",
      "type": "function"
    },
    {
      "inputs": [
        {
          "internalType": "address",
          "name": "_userToFollow",
          "type": "address"
        }
      ],
      "name": "follow",
      "outputs": [],
      "stateMutability": "nonpayable",
      "type": "function"
    },
    {
      "inputs": [
        {
          "internalType": "uint256",
          "name": "start",
          "type": "uint256"
        },
        {
          "internalType": "uint256",
          "name": "count",
          "type": "uint256"
        }
      ],
      "name": "getCarvings",
      "outputs": [
        {
          "components": [
            {
              "internalType": "CarvingId",
              "name": "id",
              "type": "uint256"
            },
            {
              "internalType": "CarvingId",
              "name": "originalCarvingId",
              "type": "uint256"
            },
            {
              "internalType": "uint256",
              "name": "sentAt",
              "type": "uint256"
            },
            {
              "internalType": "address",
              "name": "carver",
              "type": "address"
            },
            {
              "internalType": "enum carve.CarvingType",
              "name": "carvingType",
              "type": "uint8"
            },
            {
              "internalType": "bool",
              "name": "hidden",
              "type": "bool"
            },
            {
              "internalType": "string",
              "name": "message",
              "type": "string"
            }
          ],
          "internalType": "struct carve.Carving[]",
          "name": "",
          "type": "tuple[]"
        }
      ],
      "stateMutability": "view",
      "type": "function"
    },
    {
      "inputs": [],
      "name": "getCarvingsCount",
      "outputs": [
        {
          "internalType": "uint256",
          "name": "",
          "type": "uint256"
        }
      ],
      "stateMutability": "view",
      "type": "function"
    },
    {
      "inputs": [
        {
          "internalType": "CarvingId",
          "name": "_carvingId",
          "type": "uint256"
        }
      ],
      "name": "getEtchCount",
      "outputs": [
        {
          "internalType": "uint256",
          "name": "",
          "type": "uint256"
        }
      ],
      "stateMutability": "view",
      "type": "function"
    },
    {
      "inputs": [
        {
          "internalType": "CarvingId",
          "name": "_carvingId",
          "type": "uint256"
        },
        {
          "internalType": "uint256",
          "name": "start",
          "type": "uint256"
        },
        {
          "internalType": "uint256",
          "name": "count",
          "type": "uint256"
        }
      ],
      "name": "getEtches",
      "outputs": [
        {
          "components": [
            {
              "internalType": "CarvingId",
              "name": "id",
              "type": "uint256"
            },
            {
              "internalType": "CarvingId",
              "name": "originalCarvingId",
              "type": "uint256"
            },
            {
              "internalType": "uint256",
              "name": "sentAt",
              "type": "uint256"
            },
            {
              "internalType": "address",
              "name": "carver",
              "type": "address"
            },
            {
              "internalType": "enum carve.CarvingType",
              "name": "carvingType",
              "type": "uint8"
            },
            {
              "internalType": "bool",
              "name": "hidden",
              "type": "bool"
            },
            {
              "internalType": "string",
              "name": "message",
              "type": "string"
            }
          ],
          "internalType": "struct carve.Carving[]",
          "name": "",
          "type": "tuple[]"
        }
      ],
      "stateMutability": "view",
      "type": "function"
    },
    {
      "inputs": [
        {
          "internalType": "address",
          "name": "user",
          "type": "address"
        }
      ],
      "name": "getFollowers",
      "outputs": [
        {
          "internalType": "address[]",
          "name": "",
          "type": "address[]"
        }
      ],
      "stateMutability": "view",
      "type": "function"
    },
    {
      "inputs": [
        {
          "internalType": "address",
          "name": "user",
          "type": "address"
        }
      ],
      "name": "getFollowings",
      "outputs": [
        {
          "internalType": "address[]",
          "name": "",
          "type": "address[]"
        }
      ],
      "stateMutability": "view",
      "type": "function"
    },
    {
      "inputs": [
        {
          "internalType": "CarvingId",
          "name": "_carvingId",
          "type": "uint256"
        }
      ],
      "name": "getLikesCount",
      "outputs": [
        {
          "internalType": "uint256",
          "name": "",
          "type": "uint256"
        }
      ],
      "stateMutability": "view",
      "type": "function"
    },
    {
      "inputs": [
        {
          "internalType": "CarvingId",
          "name": "_carvingId",
          "type": "uint256"
        }
      ],
      "name": "getRecarvesCount",
      "outputs": [
        {
          "internalType": "uint256",
          "name": "",
          "type": "uint256"
        }
      ],
      "stateMutability": "view",
      "type": "function"
    },
    {
      "inputs": [
        {
          "internalType": "address",
          "name": "_user",
          "type": "address"
        },
        {
          "internalType": "uint256",
          "name": "start",
          "type": "uint256"
        },
        {
          "internalType": "uint256",
          "name": "count",
          "type": "uint256"
        }
      ],
      "name": "getUserCarvings",
      "outputs": [
        {
          "components": [
            {
              "internalType": "CarvingId",
              "name": "id",
              "type": "uint256"
            },
            {
              "internalType": "CarvingId",
              "name": "originalCarvingId",
              "type": "uint256"
            },
            {
              "internalType": "uint256",
              "name": "sentAt",
              "type": "uint256"
            },
            {
              "internalType": "address",
              "name": "carver",
              "type": "address"
            },
            {
              "internalType": "enum carve.CarvingType",
              "name": "carvingType",
              "type": "uint8"
            },
            {
              "internalType": "bool",
              "name": "hidden",
              "type": "bool"
            },
            {
              "internalType": "string",
              "name": "message",
              "type": "string"
            }
          ],
          "internalType": "struct carve.Carving[]",
          "name": "",
          "type": "tuple[]"
        }
      ],
      "stateMutability": "view",
      "type": "function"
    },
    {
      "inputs": [
        {
          "internalType": "address",
          "name": "_user",
          "type": "address"
        }
      ],
      "name": "getUserCarvingsCount",
      "outputs": [
        {
          "internalType": "uint256",
          "name": "",
          "type": "uint256"
        }
      ],
      "stateMutability": "view",
      "type": "function"
    },
    {
      "inputs": [
        {
          "internalType": "address",
          "name": "_user",
          "type": "address"
        }
      ],
      "name": "getUserProfile",
      "outputs": [
        {
          "internalType": "uint256",
          "name": "createdAt",
          "type": "uint256"
        },
        {
          "internalType": "string",
          "name": "username",
          "type": "string"
        },
        {
          "internalType": "string",
          "name": "bio",
          "type": "string"
        },
        {
          "internalType": "string",
          "name": "pfpURL",
          "type": "string"
        },
        {
          "internalType": "string",
          "name": "backgroundURL",
          "type": "string"
        }
      ],
      "stateMutability": "view",
      "type": "function"
    },
    {
      "inputs": [
        {
          "internalType": "address",
          "name": "_user",
          "type": "address"
        },
        {
          "internalType": "CarvingId",
          "name": "_carvingId",
          "type": "uint256"
        }
      ],
      "name": "hasLikedCarving",
      "outputs": [
        {
          "internalType": "bool",
          "name": "",
          "type": "bool"
        }
      ],
      "stateMutability": "view",
      "type": "function"
    },
    {
      "inputs": [
        {
          "internalType": "address",
          "name": "follower",
          "type": "address"
        },
        {
          "internalType": "address",
          "name": "followee",
          "type": "address"
        }
      ],
      "name": "isFollowing",
      "outputs": [
        {
          "internalType": "bool",
          "name": "",
          "type": "bool"
        }
      ],
      "stateMutability": "view",
      "type": "function"
    },
    {
      "inputs": [
        {
          "internalType": "CarvingId",
          "name": "_carvingId",
          "type": "uint256"
        }
      ],
      "name": "likeCarving",
      "outputs": [],
      "stateMutability": "nonpayable",
      "type": "function"
    },
    {
      "inputs": [
        {
          "internalType": "CarvingId",
          "name": "_carvingId",
          "type": "uint256"
        }
      ],
      "name": "recarve",
      "outputs": [],
      "stateMutability": "nonpayable",
      "type": "function"
    },
    {
      "inputs": [
        {
          "internalType": "string",
          "name": "_backgroundURL",
          "type": "string"
        }
      ],
      "name": "setBackgroundURL",
      "outputs": [],
      "stateMutability": "nonpayable",
      "type": "function"
    },
    {
      "inputs": [
        {
          "internalType": "string",
          "name": "_bio",
          "type": "string"
        }
      ],
      "name": "setBio",
      "outputs": [],
      "stateMutability": "nonpayable",
      "type": "function"
    },
    {
      "inputs": [
        {
          "internalType": "string",
          "name": "_pfpURL",
          "type": "string"
        }
      ],
      "name": "setPfpURL",
      "outputs": [],
      "stateMutability": "nonpayable",
      "type": "function"
    },
    {
      "inputs": [
        {
          "internalType": "string",
          "name": "_username",
          "type": "string"
        }
      ],
      "name": "setUsername",
      "outputs": [],
      "stateMutability": "nonpayable",
      "type": "function"
    },
    {
      "inputs": [
        {
          "internalType": "address",
          "name": "_userToUnfollow",
          "type": "address"
        }
      ],
      "name": "unfollow",
      "outputs": [],
      "stateMutability": "nonpayable",
      "type": "function"
    },
    {
      "inputs": [
        {
          "internalType": "CarvingId",
          "name": "_carvingId",
          "type": "uint256"
        }
      ],
      "name": "unlikeCarving",
      "outputs": [],
      "stateMutability": "nonpayable",
      "type": "function"
    },
    {
      "inputs": [
        {
          "internalType": "address",
          "name": "",
          "type": "address"
        },
        {
          "internalType": "uint256",
          "name": "",
          "type": "uint256"
        }
      ],
      "name": "userCarvings",
      "outputs": [
        {
          "internalType": "CarvingId",
          "name": "",
          "type": "uint256"
        }
      ],
      "stateMutability": "view",
      "type": "function"
    },
    {
      "inputs": [
        {
          "internalType": "address",
          "name": "",
          "type": "address"
        }
      ],
      "name": "userProfiles",
      "outputs": [
        {
          "internalType": "uint256",
          "name": "createdAt",
          "type": "uint256"
        },
        {
          "internalType": "string",
          "name": "username",
          "type": "string"
        },
        {
          "internalType": "string",
          "name": "bio",
          "type": "string"
        },
        {
          "internalType": "string",
          "name": "pfpURL",
          "type": "string"
        },
        {
          "internalType": "string",
          "name": "backgroundURL",
          "type": "string"
        }
      ],
      "stateMutability": "view",
      "type": "function"
    }
  ],
  "bytecode": "0x6080604052348015600f57600080fd5b50614c8d8061001f6000396000f3fe608060405234801561001057600080fd5b50600436106101e55760003560e01c8063797fc1e01161010f578063c8024b20116100a2578063e9ceb11c11610071578063e9ceb11c14610642578063ed59313a14610672578063f58fac621461068e578063fb7e06d8146106be576101e5565b8063c8024b2014610596578063cca22f79146105b2578063d773cb7b146105e2578063d9903f0514610612576101e5565b80639e4eac74116100de5780639e4eac74146104d6578063a160a5df14610506578063b943763d14610536578063c2fe202214610566576101e5565b8063797fc1e01461042457806394be32de14610442578063987ee1561461047257806399ec3a42146104a6576101e5565b8063318279d1116101875780634dbf27cc116101565780634dbf27cc146103a05780636374fccf146103bc57806365aafe13146103ec5780636c0afaaf14610408576101e5565b8063318279d1146102ea578063332d56d71461031a5780633cda86361461034e5780634864f7e51461036a576101e5565b806310b8f568116101c357806310b8f56814610252578063234441ff1461026e5780632c14c8151461029e578063315a6446146102ce576101e5565b8063015a4ead146101ea5780630390a8831461020657806309b0c7c214610222575b600080fd5b61020460048036038101906101ff9190613870565b6106da565b005b610220600480360381019061021b9190613a19565b610e6c565b005b61023c60048036038101906102379190613aa1565b610ffa565b6040516102499190613dbc565b60405180910390f35b61026c60048036038101906102679190613dde565b611350565b005b61028860048036038101906102839190613870565b611461565b6040516102959190613e1a565b60405180910390f35b6102b860048036038101906102b39190613e35565b6114ad565b6040516102c59190613e84565b60405180910390f35b6102e860048036038101906102e39190613e9f565b6114de565b005b61030460048036038101906102ff9190613dde565b6115c6565b6040516103119190613e1a565b60405180910390f35b610334600480360381019061032f9190613870565b6115de565b604051610345959493929190613f32565b60405180910390f35b61036860048036038101906103639190613dde565b611834565b005b610384600480360381019061037f9190613fa1565b611a59565b6040516103979796959493929190613ffb565b60405180910390f35b6103ba60048036038101906103b59190613870565b611b6d565b005b6103d660048036038101906103d19190613dde565b611f60565b6040516103e39190613e1a565b60405180910390f35b61040660048036038101906104019190613dde565b611f78565b005b610422600480360381019061041d9190613e9f565b612148565b005b61042c612230565b6040516104399190613e1a565b60405180910390f35b61045c60048036038101906104579190613dde565b61223d565b6040516104699190613e1a565b60405180910390f35b61048c60048036038101906104879190613870565b6122a9565b60405161049d959493929190613f32565b60405180910390f35b6104c060048036038101906104bb9190614071565b61257d565b6040516104cd91906140b1565b60405180910390f35b6104f060048036038101906104eb91906140cc565b61271a565b6040516104fd91906140b1565b60405180910390f35b610520600480360381019061051b9190613dde565b6127ce565b60405161052d9190613e1a565b60405180910390f35b610550600480360381019061054b9190613dde565b612837565b60405161055d9190613e1a565b60405180910390f35b610580600480360381019061057b9190613870565b6128a0565b60405161058d91906141bb565b60405180910390f35b6105b060048036038101906105ab9190613e9f565b61296d565b005b6105cc60048036038101906105c79190613870565b612a26565b6040516105d991906141bb565b60405180910390f35b6105fc60048036038101906105f791906141dd565b612af3565b6040516106099190613e84565b60405180910390f35b61062c6004803603810190610627919061421d565b612b24565b6040516106399190613dbc565b60405180910390f35b61065c6004803603810190610657919061425d565b612dd2565b6040516106699190613dbc565b60405180910390f35b61068c60048036038101906106879190613e9f565b613149565b005b6106a860048036038101906106a391906142b0565b613349565b6040516106b591906140b1565b60405180910390f35b6106d860048036038101906106d39190613e9f565b613378565b005b6106e4338261257d565b610723576040517f08c379a000000000000000000000000000000000000000000000000000000000815260040161071a9061433c565b60405180910390fd5b6000600860003373ffffffffffffffffffffffffffffffffffffffff1673ffffffffffffffffffffffffffffffffffffffff16815260200190815260200160002060008373ffffffffffffffffffffffffffffffffffffffff1673ffffffffffffffffffffffffffffffffffffffff16815260200190815260200160002054905060006001600760003373ffffffffffffffffffffffffffffffffffffffff1673ffffffffffffffffffffffffffffffffffffffff168152602001908152602001600020805490506107f5919061438b565b90506000600760003373ffffffffffffffffffffffffffffffffffffffff1673ffffffffffffffffffffffffffffffffffffffff168152602001908152602001600020828154811061084a576108496143bf565b5b9060005260206000200160009054906101000a900473ffffffffffffffffffffffffffffffffffffffff16905080600760003373ffffffffffffffffffffffffffffffffffffffff1673ffffffffffffffffffffffffffffffffffffffff16815260200190815260200160002084815481106108c9576108c86143bf565b5b9060005260206000200160006101000a81548173ffffffffffffffffffffffffffffffffffffffff021916908373ffffffffffffffffffffffffffffffffffffffff160217905550600760003373ffffffffffffffffffffffffffffffffffffffff1673ffffffffffffffffffffffffffffffffffffffff1681526020019081526020016000208054806109605761095f6143ee565b5b6001900381819060005260206000200160006101000a81549073ffffffffffffffffffffffffffffffffffffffff0219169055905582600860003373ffffffffffffffffffffffffffffffffffffffff1673ffffffffffffffffffffffffffffffffffffffff16815260200190815260200160002060008373ffffffffffffffffffffffffffffffffffffffff1673ffffffffffffffffffffffffffffffffffffffff16815260200190815260200160002081905550600860003373ffffffffffffffffffffffffffffffffffffffff1673ffffffffffffffffffffffffffffffffffffffff16815260200190815260200160002060008573ffffffffffffffffffffffffffffffffffffffff1673ffffffffffffffffffffffffffffffffffffffff168152602001908152602001600020600090556000600a60008673ffffffffffffffffffffffffffffffffffffffff1673ffffffffffffffffffffffffffffffffffffffff16815260200190815260200160002060003373ffffffffffffffffffffffffffffffffffffffff1673ffffffffffffffffffffffffffffffffffffffff16815260200190815260200160002054905060006001600960008873ffffffffffffffffffffffffffffffffffffffff1673ffffffffffffffffffffffffffffffffffffffff16815260200190815260200160002080549050610b68919061438b565b90506000600960008873ffffffffffffffffffffffffffffffffffffffff1673ffffffffffffffffffffffffffffffffffffffff1681526020019081526020016000208281548110610bbd57610bbc6143bf565b5b9060005260206000200160009054906101000a900473ffffffffffffffffffffffffffffffffffffffff16905080600960008973ffffffffffffffffffffffffffffffffffffffff1673ffffffffffffffffffffffffffffffffffffffff1681526020019081526020016000208481548110610c3c57610c3b6143bf565b5b9060005260206000200160006101000a81548173ffffffffffffffffffffffffffffffffffffffff021916908373ffffffffffffffffffffffffffffffffffffffff160217905550600960008873ffffffffffffffffffffffffffffffffffffffff1673ffffffffffffffffffffffffffffffffffffffff168152602001908152602001600020805480610cd357610cd26143ee565b5b6001900381819060005260206000200160006101000a81549073ffffffffffffffffffffffffffffffffffffffff0219169055905582600a60008973ffffffffffffffffffffffffffffffffffffffff1673ffffffffffffffffffffffffffffffffffffffff16815260200190815260200160002060008373ffffffffffffffffffffffffffffffffffffffff1673ffffffffffffffffffffffffffffffffffffffff16815260200190815260200160002081905550600a60008873ffffffffffffffffffffffffffffffffffffffff1673ffffffffffffffffffffffffffffffffffffffff16815260200190815260200160002060003373ffffffffffffffffffffffffffffffffffffffff1673ffffffffffffffffffffffffffffffffffffffff168152602001908152602001600020600090558673ffffffffffffffffffffffffffffffffffffffff163373ffffffffffffffffffffffffffffffffffffffff167fe7339343c6edff57f2d15278c419523844cea30ae5ee2146aa22cb9e3107dab760405160405180910390a350505050505050565b60008290506001805490508110610eb8576040517f08c379a0000000000000000000000000000000000000000000000000000000008152600401610eaf90614469565b60405180910390fd5b6000825111610efc576040517f08c379a0000000000000000000000000000000000000000000000000000000008152600401610ef3906144d5565b60405180910390fd5b610f0533613460565b610f44576040517f08c379a0000000000000000000000000000000000000000000000000000000008152600401610f3b90614541565b60405180910390fd5b6000610f5260038486613473565b90506006600085815260200190815260200160002081600001519080600181540180825580915050600190039060005260206000200160009091909190915055806060015173ffffffffffffffffffffffffffffffffffffffff167f949d956e521b9458935a243e9f4dbec94f18632d25c6d3495be1a8838ac13af1826020015183600001518460c00151604051610fec93929190614561565b60405180910390a250505050565b60606000600260008673ffffffffffffffffffffffffffffffffffffffff1673ffffffffffffffffffffffffffffffffffffffff16815260200190815260200160002080548060200260200160405190810160405280929190818152602001828054801561108757602002820191906000526020600020905b815481526020019060010190808311611073575b50505050509050805184106110d1576040517f08c379a00000000000000000000000000000000000000000000000000000000081526004016110c8906145eb565b60405180910390fd5b600083856110df919061460b565b905081518111156110ef57815190505b600085826110fd919061438b565b905060008167ffffffffffffffff81111561111b5761111a6138ee565b5b60405190808252806020026020018201604052801561115457816020015b61114161378d565b8152602001906001900390816111395790505b50905060005b8281101561134157600085828a611171919061460b565b81518110611182576111816143bf565b5b60200260200101519050600181815481106111a05761119f6143bf565b5b90600052602060002090600502016040518060e00160405290816000820154815260200160018201548152602001600282015481526020016003820160009054906101000a900473ffffffffffffffffffffffffffffffffffffffff1673ffffffffffffffffffffffffffffffffffffffff1673ffffffffffffffffffffffffffffffffffffffff1681526020016003820160149054906101000a900460ff16600381111561125257611251613b79565b5b600381111561126457611263613b79565b5b81526020016003820160159054906101000a900460ff161515151581526020016004820180546112939061466e565b80601f01602080910402602001604051908101604052809291908181526020018280546112bf9061466e565b801561130c5780601f106112e15761010080835404028352916020019161130c565b820191906000526020600020905b8154815290600101906020018083116112ef57829003601f168201915b505050505081525050838381518110611328576113276143bf565b5b602002602001018190525050808060010191505061115a565b50809450505050509392505050565b6000819050600180549050811061139c576040517f08c379a000000000000000000000000000000000000000000000000000000000815260040161139390614469565b60405180910390fd5b6113a533613460565b6113e4576040517f08c379a00000000000000000000000000000000000000000000000000000000081526004016113db90614541565b60405180910390fd5b6001600560008481526020019081526020016000206000828254611408919061460b565b925050819055503373ffffffffffffffffffffffffffffffffffffffff167fc6f05f73e1566e0afb9211badaef43d9f5e9b1add102080584cb8f0e1149308f836040516114559190613e84565b60405180910390a25050565b6000600260008373ffffffffffffffffffffffffffffffffffffffff1673ffffffffffffffffffffffffffffffffffffffff168152602001908152602001600020805490509050919050565b600660205281600052604060002081815481106114c957600080fd5b90600052602060002001600091509150505481565b6114e733613460565b611526576040517f08c379a000000000000000000000000000000000000000000000000000000000815260040161151d90614541565b60405180910390fd5b3373ffffffffffffffffffffffffffffffffffffffff167f25ba221a050a88ea7a5ee0fb3f5a111256700f9c5d334da25a14f986cd646f2a8260405161156c919061469f565b60405180910390a2806000803373ffffffffffffffffffffffffffffffffffffffff1673ffffffffffffffffffffffffffffffffffffffff16815260200190815260200160002060030190816115c29190614841565b5050565b60056020528060005260406000206000915090505481565b60006020528060005260406000206000915090508060000154908060010180546116079061466e565b80601f01602080910402602001604051908101604052809291908181526020018280546116339061466e565b80156116805780601f1061165557610100808354040283529160200191611680565b820191906000526020600020905b81548152906001019060200180831161166357829003601f168201915b5050505050908060020180546116959061466e565b80601f01602080910402602001604051908101604052809291908181526020018280546116c19061466e565b801561170e5780601f106116e35761010080835404028352916020019161170e565b820191906000526020600020905b8154815290600101906020018083116116f157829003601f168201915b5050505050908060030180546117239061466e565b80601f016020809104026020016040519081016040528092919081815260200182805461174f9061466e565b801561179c5780601f106117715761010080835404028352916020019161179c565b820191906000526020600020905b81548152906001019060200180831161177f57829003601f168201915b5050505050908060040180546117b19061466e565b80601f01602080910402602001604051908101604052809291908181526020018280546117dd9061466e565b801561182a5780601f106117ff5761010080835404028352916020019161182a565b820191906000526020600020905b81548152906001019060200180831161180d57829003601f168201915b5050505050905085565b60008190506001805490508110611880576040517f08c379a000000000000000000000000000000000000000000000000000000000815260040161187790614469565b60405180910390fd5b6004600083815260200190815260200160002060003373ffffffffffffffffffffffffffffffffffffffff1673ffffffffffffffffffffffffffffffffffffffff16815260200190815260200160002060009054906101000a900460ff1661191d576040517f08c379a00000000000000000000000000000000000000000000000000000000081526004016119149061495f565b60405180910390fd5b6000600360008481526020019081526020016000205411611973576040517f08c379a000000000000000000000000000000000000000000000000000000000815260040161196a906149cb565b60405180910390fd5b6001600360008481526020019081526020016000206000828254611997919061438b565b9250508190555060006004600084815260200190815260200160002060003373ffffffffffffffffffffffffffffffffffffffff1673ffffffffffffffffffffffffffffffffffffffff16815260200190815260200160002060006101000a81548160ff0219169083151502179055503373ffffffffffffffffffffffffffffffffffffffff167f0dce267b7394146bcd9440db5b2b81d45e7c43ee4667daba50d2c096afa9b8d083604051611a4d9190613e84565b60405180910390a25050565b60018181548110611a6957600080fd5b90600052602060002090600502016000915090508060000154908060010154908060020154908060030160009054906101000a900473ffffffffffffffffffffffffffffffffffffffff16908060030160149054906101000a900460ff16908060030160159054906101000a900460ff1690806004018054611aea9061466e565b80601f0160208091040260200160405190810160405280929190818152602001828054611b169061466e565b8015611b635780601f10611b3857610100808354040283529160200191611b63565b820191906000526020600020905b815481529060010190602001808311611b4657829003601f168201915b5050505050905087565b3373ffffffffffffffffffffffffffffffffffffffff168173ffffffffffffffffffffffffffffffffffffffff1603611bdb576040517f08c379a0000000000000000000000000000000000000000000000000000000008152600401611bd290614a37565b60405180910390fd5b611be5338261257d565b15611c25576040517f08c379a0000000000000000000000000000000000000000000000000000000008152600401611c1c90614aa3565b60405180910390fd5b600760003373ffffffffffffffffffffffffffffffffffffffff1673ffffffffffffffffffffffffffffffffffffffff168152602001908152602001600020819080600181540180825580915050600190039060005260206000200160009091909190916101000a81548173ffffffffffffffffffffffffffffffffffffffff021916908373ffffffffffffffffffffffffffffffffffffffff1602179055506001600760003373ffffffffffffffffffffffffffffffffffffffff1673ffffffffffffffffffffffffffffffffffffffff16815260200190815260200160002080549050611d14919061438b565b600860003373ffffffffffffffffffffffffffffffffffffffff1673ffffffffffffffffffffffffffffffffffffffff16815260200190815260200160002060008373ffffffffffffffffffffffffffffffffffffffff1673ffffffffffffffffffffffffffffffffffffffff16815260200190815260200160002081905550600960008273ffffffffffffffffffffffffffffffffffffffff1673ffffffffffffffffffffffffffffffffffffffff168152602001908152602001600020339080600181540180825580915050600190039060005260206000200160009091909190916101000a81548173ffffffffffffffffffffffffffffffffffffffff021916908373ffffffffffffffffffffffffffffffffffffffff1602179055506001600960008373ffffffffffffffffffffffffffffffffffffffff1673ffffffffffffffffffffffffffffffffffffffff16815260200190815260200160002080549050611e83919061438b565b600a60008373ffffffffffffffffffffffffffffffffffffffff1673ffffffffffffffffffffffffffffffffffffffff16815260200190815260200160002060003373ffffffffffffffffffffffffffffffffffffffff1673ffffffffffffffffffffffffffffffffffffffff168152602001908152602001600020819055508073ffffffffffffffffffffffffffffffffffffffff163373ffffffffffffffffffffffffffffffffffffffff167f30b3435b456f45779984ddfa456115ee4c20d9e446979b1b9e90dbb7e12b90b760405160405180910390a350565b60036020528060005260406000206000915090505481565b60008190506001805490508110611fc4576040517f08c379a0000000000000000000000000000000000000000000000000000000008152600401611fbb90614469565b60405180910390fd5b6004600083815260200190815260200160002060003373ffffffffffffffffffffffffffffffffffffffff1673ffffffffffffffffffffffffffffffffffffffff16815260200190815260200160002060009054906101000a900460ff1615612062576040517f08c379a000000000000000000000000000000000000000000000000000000000815260040161205990614b0f565b60405180910390fd5b6001600360008481526020019081526020016000206000828254612086919061460b565b9250508190555060016004600084815260200190815260200160002060003373ffffffffffffffffffffffffffffffffffffffff1673ffffffffffffffffffffffffffffffffffffffff16815260200190815260200160002060006101000a81548160ff0219169083151502179055503373ffffffffffffffffffffffffffffffffffffffff167fc9b5b9db000d21d664ad6f78f6252c1bf358d53e66def587def640c86a5cbf588360405161213c9190613e84565b60405180910390a25050565b61215133613460565b612190576040517f08c379a000000000000000000000000000000000000000000000000000000000815260040161218790614541565b60405180910390fd5b3373ffffffffffffffffffffffffffffffffffffffff167fd9def9f574ceaca8c534179909ee60097126329fae5cd88460ed7b53176991e9826040516121d6919061469f565b60405180910390a2806000803373ffffffffffffffffffffffffffffffffffffffff1673ffffffffffffffffffffffffffffffffffffffff168152602001908152602001600020600401908161222c9190614841565b5050565b6000600180549050905090565b600080829050600180549050811061228a576040517f08c379a000000000000000000000000000000000000000000000000000000000815260040161228190614469565b60405180910390fd5b6006600084815260200190815260200160002080549050915050919050565b600060608060608060008060008873ffffffffffffffffffffffffffffffffffffffff1673ffffffffffffffffffffffffffffffffffffffff1681526020019081526020016000206040518060a0016040529081600082015481526020016001820180546123169061466e565b80601f01602080910402602001604051908101604052809291908181526020018280546123429061466e565b801561238f5780601f106123645761010080835404028352916020019161238f565b820191906000526020600020905b81548152906001019060200180831161237257829003601f168201915b505050505081526020016002820180546123a89061466e565b80601f01602080910402602001604051908101604052809291908181526020018280546123d49061466e565b80156124215780601f106123f657610100808354040283529160200191612421565b820191906000526020600020905b81548152906001019060200180831161240457829003601f168201915b5050505050815260200160038201805461243a9061466e565b80601f01602080910402602001604051908101604052809291908181526020018280546124669061466e565b80156124b35780601f10612488576101008083540402835291602001916124b3565b820191906000526020600020905b81548152906001019060200180831161249657829003601f168201915b505050505081526020016004820180546124cc9061466e565b80601f01602080910402602001604051908101604052809291908181526020018280546124f89061466e565b80156125455780601f1061251a57610100808354040283529160200191612545565b820191906000526020600020905b81548152906001019060200180831161252857829003601f168201915b505050505081525050905080600001518160200151826040015183606001518460800151955095509550955095505091939590929450565b600080600860008573ffffffffffffffffffffffffffffffffffffffff1673ffffffffffffffffffffffffffffffffffffffff16815260200190815260200160002060008473ffffffffffffffffffffffffffffffffffffffff1673ffffffffffffffffffffffffffffffffffffffff1681526020019081526020016000205490506000810361270e576000600760008673ffffffffffffffffffffffffffffffffffffffff1673ffffffffffffffffffffffffffffffffffffffff168152602001908152602001600020805490500361265b576000915050612714565b8273ffffffffffffffffffffffffffffffffffffffff16600760008673ffffffffffffffffffffffffffffffffffffffff1673ffffffffffffffffffffffffffffffffffffffff1681526020019081526020016000206000815481106126c4576126c36143bf565b5b9060005260206000200160009054906101000a900473ffffffffffffffffffffffffffffffffffffffff1673ffffffffffffffffffffffffffffffffffffffff1614915050612714565b60019150505b92915050565b6000808290506001805490508110612767576040517f08c379a000000000000000000000000000000000000000000000000000000000815260040161275e90614469565b60405180910390fd5b6004600084815260200190815260200160002060008573ffffffffffffffffffffffffffffffffffffffff1673ffffffffffffffffffffffffffffffffffffffff16815260200190815260200160002060009054906101000a900460ff1691505092915050565b600080829050600180549050811061281b576040517f08c379a000000000000000000000000000000000000000000000000000000000815260040161281290614469565b60405180910390fd5b6003600084815260200190815260200160002054915050919050565b6000808290506001805490508110612884576040517f08c379a000000000000000000000000000000000000000000000000000000000815260040161287b90614469565b60405180910390fd5b6005600084815260200190815260200160002054915050919050565b6060600960008373ffffffffffffffffffffffffffffffffffffffff1673ffffffffffffffffffffffffffffffffffffffff16815260200190815260200160002080548060200260200160405190810160405280929190818152602001828054801561296157602002820191906000526020600020905b8160009054906101000a900473ffffffffffffffffffffffffffffffffffffffff1673ffffffffffffffffffffffffffffffffffffffff1681526020019060010190808311612917575b50505050509050919050565b61297633613460565b6129b5576040517f08c379a00000000000000000000000000000000000000000000000000000000081526004016129ac90614541565b60405180910390fd5b60006129c46000836000613473565b9050806060015173ffffffffffffffffffffffffffffffffffffffff167f5d3ca796c8e5fe75c8a7747dec3a5855fceee05ba3a1cc0a7f55a432428be6d582600001518360c00151604051612a1a929190614b2f565b60405180910390a25050565b6060600760008373ffffffffffffffffffffffffffffffffffffffff1673ffffffffffffffffffffffffffffffffffffffff168152602001908152602001600020805480602002602001604051908101604052809291908181526020018280548015612ae757602002820191906000526020600020905b8160009054906101000a900473ffffffffffffffffffffffffffffffffffffffff1673ffffffffffffffffffffffffffffffffffffffff1681526020019060010190808311612a9d575b50505050509050919050565b60026020528160005260406000208181548110612b0f57600080fd5b90600052602060002001600091509150505481565b60606001805490508310612b6d576040517f08c379a0000000000000000000000000000000000000000000000000000000008152600401612b64906145eb565b60405180910390fd5b60008284612b7b919061460b565b9050600180549050811115612b935760018054905090505b60008482612ba1919061438b565b905060008167ffffffffffffffff811115612bbf57612bbe6138ee565b5b604051908082528060200260200182016040528015612bf857816020015b612be561378d565b815260200190600190039081612bdd5790505b50905060005b82811015612dc55760018188612c14919061460b565b81548110612c2557612c246143bf565b5b90600052602060002090600502016040518060e00160405290816000820154815260200160018201548152602001600282015481526020016003820160009054906101000a900473ffffffffffffffffffffffffffffffffffffffff1673ffffffffffffffffffffffffffffffffffffffff1673ffffffffffffffffffffffffffffffffffffffff1681526020016003820160149054906101000a900460ff166003811115612cd757612cd6613b79565b5b6003811115612ce957612ce8613b79565b5b81526020016003820160159054906101000a900460ff16151515158152602001600482018054612d189061466e565b80601f0160208091040260200160405190810160405280929190818152602001828054612d449061466e565b8015612d915780601f10612d6657610100808354040283529160200191612d91565b820191906000526020600020905b815481529060010190602001808311612d7457829003601f168201915b505050505081525050828281518110612dad57612dac6143bf565b5b60200260200101819052508080600101915050612bfe565b5080935050505092915050565b606060008490506001805490508110612e20576040517f08c379a0000000000000000000000000000000000000000000000000000000008152600401612e1790614469565b60405180910390fd5b600060066000878152602001908152602001600020805480602002602001604051908101604052809291908181526020018280548015612e7f57602002820191906000526020600020905b815481526020019060010190808311612e6b575b5050505050905080518510612ec9576040517f08c379a0000000000000000000000000000000000000000000000000000000008152600401612ec0906145eb565b60405180910390fd5b60008486612ed7919061460b565b90508151811115612ee757815190505b60008682612ef5919061438b565b905060008167ffffffffffffffff811115612f1357612f126138ee565b5b604051908082528060200260200182016040528015612f4c57816020015b612f3961378d565b815260200190600190039081612f315790505b50905060005b8281101561313957600085828b612f69919061460b565b81518110612f7a57612f796143bf565b5b6020026020010151905060018181548110612f9857612f976143bf565b5b90600052602060002090600502016040518060e00160405290816000820154815260200160018201548152602001600282015481526020016003820160009054906101000a900473ffffffffffffffffffffffffffffffffffffffff1673ffffffffffffffffffffffffffffffffffffffff1673ffffffffffffffffffffffffffffffffffffffff1681526020016003820160149054906101000a900460ff16600381111561304a57613049613b79565b5b600381111561305c5761305b613b79565b5b81526020016003820160159054906101000a900460ff1615151515815260200160048201805461308b9061466e565b80601f01602080910402602001604051908101604052809291908181526020018280546130b79061466e565b80156131045780601f106130d957610100808354040283529160200191613104565b820191906000526020600020905b8154815290600101906020018083116130e757829003601f168201915b5050505050815250508383815181106131205761311f6143bf565b5b6020026020010181905250508080600101915050612f52565b5080955050505050509392505050565b6131886040518060400160405280601881526020017f736574557365726e616d652063616c6c656420776974683a000000000000000081525082613652565b6020815111156131cd576040517f08c379a00000000000000000000000000000000000000000000000000000000081526004016131c490614bd1565b60405180910390fd5b6131d6336136ee565b1561326957426000803373ffffffffffffffffffffffffffffffffffffffff1673ffffffffffffffffffffffffffffffffffffffff168152602001908152602001600020600001819055503373ffffffffffffffffffffffffffffffffffffffff167f0b0376a109cbb578b709f85f6a7befcdac3ac1ab251c99ede87f30c9572ac4d360405160405180910390a26132b8565b3373ffffffffffffffffffffffffffffffffffffffff167f1af4cc3acb57f067d1d582e3932be6692a4c9a31d8b3a8567dfc1c340a02d534826040516132af919061469f565b60405180910390a25b806000803373ffffffffffffffffffffffffffffffffffffffff1673ffffffffffffffffffffffffffffffffffffffff16815260200190815260200160002060010190816133069190614841565b506133466040518060400160405280601081526020017f557365726e616d652073657420746f3a0000000000000000000000000000000081525082613652565b50565b60046020528160005260406000206020528060005260406000206000915091509054906101000a900460ff1681565b61338133613460565b6133c0576040517f08c379a00000000000000000000000000000000000000000000000000000000081526004016133b790614541565b60405180910390fd5b3373ffffffffffffffffffffffffffffffffffffffff167f3f838a7d0889a59b2445af5389196b3948170278848eb90d8d256ab14aaf4cf082604051613406919061469f565b60405180910390a2806000803373ffffffffffffffffffffffffffffffffffffffff1673ffffffffffffffffffffffffffffffffffffffff168152602001908152602001600020600201908161345c9190614841565b5050565b600061346b826136ee565b159050919050565b61347b61378d565b6000600180549050905060006040518060e001604052808381526020018581526020014281526020013373ffffffffffffffffffffffffffffffffffffffff1681526020018760038111156134d3576134d2613b79565b5b8152602001600015158152602001868152509050600181908060018154018082558091505060019003906000526020600020906005020160009091909190915060008201518160000155602082015181600101556040820151816002015560608201518160030160006101000a81548173ffffffffffffffffffffffffffffffffffffffff021916908373ffffffffffffffffffffffffffffffffffffffff16021790555060808201518160030160146101000a81548160ff021916908360038111156135a3576135a2613b79565b5b021790555060a08201518160030160156101000a81548160ff02191690831515021790555060c08201518160040190816135dd9190614841565b505050600260003373ffffffffffffffffffffffffffffffffffffffff1673ffffffffffffffffffffffffffffffffffffffff16815260200190815260200160002082908060018154018082558091505060019003906000526020600020016000909190919091505580925050509392505050565b6136ea8282604051602401613668929190614bf1565b6040516020818303038152906040527f4b5c4277000000000000000000000000000000000000000000000000000000007bffffffffffffffffffffffffffffffffffffffffffffffffffffffff19166020820180517bffffffffffffffffffffffffffffffffffffffffffffffffffffffff8381831617835250505050613747565b5050565b6000806000808473ffffffffffffffffffffffffffffffffffffffff1673ffffffffffffffffffffffffffffffffffffffff168152602001908152602001600020600101805461373d9061466e565b9050149050919050565b61375e81613756613761613782565b63ffffffff16565b50565b60006a636f6e736f6c652e6c6f679050600080835160208501845afa505050565b6137f4819050919050565b6040518060e00160405280600081526020016000815260200160008152602001600073ffffffffffffffffffffffffffffffffffffffff168152602001600060038111156137de576137dd613b79565b5b8152602001600015158152602001606081525090565b6137fc614c28565b565b6000604051905090565b600080fd5b600080fd5b600073ffffffffffffffffffffffffffffffffffffffff82169050919050565b600061383d82613812565b9050919050565b61384d81613832565b811461385857600080fd5b50565b60008135905061386a81613844565b92915050565b60006020828403121561388657613885613808565b5b60006138948482850161385b565b91505092915050565b6000819050919050565b6138b08161389d565b81146138bb57600080fd5b50565b6000813590506138cd816138a7565b92915050565b600080fd5b600080fd5b6000601f19601f8301169050919050565b7f4e487b7100000000000000000000000000000000000000000000000000000000600052604160045260246000fd5b613926826138dd565b810181811067ffffffffffffffff82111715613945576139446138ee565b5b80604052505050565b60006139586137fe565b9050613964828261391d565b919050565b600067ffffffffffffffff821115613984576139836138ee565b5b61398d826138dd565b9050602081019050919050565b82818337600083830152505050565b60006139bc6139b784613969565b61394e565b9050828152602081018484840111156139d8576139d76138d8565b5b6139e384828561399a565b509392505050565b600082601f830112613a00576139ff6138d3565b5b8135613a108482602086016139a9565b91505092915050565b60008060408385031215613a3057613a2f613808565b5b6000613a3e858286016138be565b925050602083013567ffffffffffffffff811115613a5f57613a5e61380d565b5b613a6b858286016139eb565b9150509250929050565b613a7e8161389d565b8114613a8957600080fd5b50565b600081359050613a9b81613a75565b92915050565b600080600060608486031215613aba57613ab9613808565b5b6000613ac88682870161385b565b9350506020613ad986828701613a8c565b9250506040613aea86828701613a8c565b9150509250925092565b600081519050919050565b600082825260208201905092915050565b6000819050602082019050919050565b6000819050919050565b6000613b45613b40613b3b8461389d565b613b20565b61389d565b9050919050565b613b5581613b2a565b82525050565b613b648161389d565b82525050565b613b7381613832565b82525050565b7f4e487b7100000000000000000000000000000000000000000000000000000000600052602160045260246000fd5b60048110613bb957613bb8613b79565b5b50565b6000819050613bca82613ba8565b919050565b6000613bda82613bbc565b9050919050565b613bea81613bcf565b82525050565b60008115159050919050565b613c0581613bf0565b82525050565b600081519050919050565b600082825260208201905092915050565b60005b83811015613c45578082015181840152602081019050613c2a565b60008484015250505050565b6000613c5c82613c0b565b613c668185613c16565b9350613c76818560208601613c27565b613c7f816138dd565b840191505092915050565b600060e083016000830151613ca26000860182613b4c565b506020830151613cb56020860182613b4c565b506040830151613cc86040860182613b5b565b506060830151613cdb6060860182613b6a565b506080830151613cee6080860182613be1565b5060a0830151613d0160a0860182613bfc565b5060c083015184820360c0860152613d198282613c51565b9150508091505092915050565b6000613d328383613c8a565b905092915050565b6000602082019050919050565b6000613d5282613af4565b613d5c8185613aff565b935083602082028501613d6e85613b10565b8060005b85811015613daa5784840389528151613d8b8582613d26565b9450613d9683613d3a565b925060208a01995050600181019050613d72565b50829750879550505050505092915050565b60006020820190508181036000830152613dd68184613d47565b905092915050565b600060208284031215613df457613df3613808565b5b6000613e02848285016138be565b91505092915050565b613e148161389d565b82525050565b6000602082019050613e2f6000830184613e0b565b92915050565b60008060408385031215613e4c57613e4b613808565b5b6000613e5a858286016138be565b9250506020613e6b85828601613a8c565b9150509250929050565b613e7e81613b2a565b82525050565b6000602082019050613e996000830184613e75565b92915050565b600060208284031215613eb557613eb4613808565b5b600082013567ffffffffffffffff811115613ed357613ed261380d565b5b613edf848285016139eb565b91505092915050565b600082825260208201905092915050565b6000613f0482613c0b565b613f0e8185613ee8565b9350613f1e818560208601613c27565b613f27816138dd565b840191505092915050565b600060a082019050613f476000830188613e0b565b8181036020830152613f598187613ef9565b90508181036040830152613f6d8186613ef9565b90508181036060830152613f818185613ef9565b90508181036080830152613f958184613ef9565b90509695505050505050565b600060208284031215613fb757613fb6613808565b5b6000613fc584828501613a8c565b91505092915050565b613fd781613832565b82525050565b613fe681613bcf565b82525050565b613ff581613bf0565b82525050565b600060e082019050614010600083018a613e75565b61401d6020830189613e75565b61402a6040830188613e0b565b6140376060830187613fce565b6140446080830186613fdd565b61405160a0830185613fec565b81810360c08301526140638184613ef9565b905098975050505050505050565b6000806040838503121561408857614087613808565b5b60006140968582860161385b565b92505060206140a78582860161385b565b9150509250929050565b60006020820190506140c66000830184613fec565b92915050565b600080604083850312156140e3576140e2613808565b5b60006140f18582860161385b565b9250506020614102858286016138be565b9150509250929050565b600081519050919050565b600082825260208201905092915050565b6000819050602082019050919050565b60006141448383613b6a565b60208301905092915050565b6000602082019050919050565b60006141688261410c565b6141728185614117565b935061417d83614128565b8060005b838110156141ae5781516141958882614138565b97506141a083614150565b925050600181019050614181565b5085935050505092915050565b600060208201905081810360008301526141d5818461415d565b905092915050565b600080604083850312156141f4576141f3613808565b5b60006142028582860161385b565b925050602061421385828601613a8c565b9150509250929050565b6000806040838503121561423457614233613808565b5b600061424285828601613a8c565b925050602061425385828601613a8c565b9150509250929050565b60008060006060848603121561427657614275613808565b5b6000614284868287016138be565b935050602061429586828701613a8c565b92505060406142a686828701613a8c565b9150509250925092565b600080604083850312156142c7576142c6613808565b5b60006142d5858286016138be565b92505060206142e68582860161385b565b9150509250929050565b7f4e6f7420666f6c6c6f77696e6700000000000000000000000000000000000000600082015250565b6000614326600d83613ee8565b9150614331826142f0565b602082019050919050565b6000602082019050818103600083015261435581614319565b9050919050565b7f4e487b7100000000000000000000000000000000000000000000000000000000600052601160045260246000fd5b60006143968261389d565b91506143a18361389d565b92508282039050818111156143b9576143b861435c565b5b92915050565b7f4e487b7100000000000000000000000000000000000000000000000000000000600052603260045260246000fd5b7f4e487b7100000000000000000000000000000000000000000000000000000000600052603160045260246000fd5b7f496e76616c69642063617276696e672049440000000000000000000000000000600082015250565b6000614453601283613ee8565b915061445e8261441d565b602082019050919050565b6000602082019050818103600083015261448281614446565b9050919050565b7f45746368206d6573736167652063616e6e6f7420626520656d70747900000000600082015250565b60006144bf601c83613ee8565b91506144ca82614489565b602082019050919050565b600060208201905081810360008301526144ee816144b2565b9050919050565b7f50726f66696c6520646f6573206e6f7420657869737400000000000000000000600082015250565b600061452b601683613ee8565b9150614536826144f5565b602082019050919050565b6000602082019050818103600083015261455a8161451e565b9050919050565b60006060820190506145766000830186613e75565b6145836020830185613e75565b81810360408301526145958184613ef9565b9050949350505050565b7f537461727420696e646578206f7574206f6620626f756e647300000000000000600082015250565b60006145d5601983613ee8565b91506145e08261459f565b602082019050919050565b60006020820190508181036000830152614604816145c8565b9050919050565b60006146168261389d565b91506146218361389d565b92508282019050808211156146395761463861435c565b5b92915050565b7f4e487b7100000000000000000000000000000000000000000000000000000000600052602260045260246000fd5b6000600282049050600182168061468657607f821691505b6020821081036146995761469861463f565b5b50919050565b600060208201905081810360008301526146b98184613ef9565b905092915050565b60008190508160005260206000209050919050565b60006020601f8301049050919050565b600082821b905092915050565b6000600883026147237fffffffffffffffffffffffffffffffffffffffffffffffffffffffffffffffff826146e6565b61472d86836146e6565b95508019841693508086168417925050509392505050565b6000819050919050565b61475883613b2a565b61476c61476482614745565b8484546146f3565b825550505050565b600090565b614781614774565b61478c81848461474f565b505050565b5b818110156147b0576147a5600082614779565b600181019050614792565b5050565b601f8211156147f5576147c6816146c1565b6147cf846146d6565b810160208510156147de578190505b6147f26147ea856146d6565b830182614791565b50505b505050565b600082821c905092915050565b6000614818600019846008026147fa565b1980831691505092915050565b60006148318383614807565b9150826002028217905092915050565b61484a82613c0b565b67ffffffffffffffff811115614863576148626138ee565b5b61486d825461466e565b6148788282856147b4565b600060209050601f8311600181146148ab5760008415614899578287015190505b6148a38582614825565b86555061490b565b601f1984166148b9866146c1565b60005b828110156148e1578489015182556001820191506020850194506020810190506148bc565b868310156148fe57848901516148fa601f891682614807565b8355505b6001600288020188555050505b505050505050565b7f4e6f74206c696b65642079657400000000000000000000000000000000000000600082015250565b6000614949600d83613ee8565b915061495482614913565b602082019050919050565b600060208201905081810360008301526149788161493c565b9050919050565b7f4c696b6520636f756e7420616c7265616479207a65726f000000000000000000600082015250565b60006149b5601783613ee8565b91506149c08261497f565b602082019050919050565b600060208201905081810360008301526149e4816149a8565b9050919050565b7f43616e6e6f7420666f6c6c6f772073656c660000000000000000000000000000600082015250565b6000614a21601283613ee8565b9150614a2c826149eb565b602082019050919050565b60006020820190508181036000830152614a5081614a14565b9050919050565b7f416c726561647920666f6c6c6f77696e67000000000000000000000000000000600082015250565b6000614a8d601183613ee8565b9150614a9882614a57565b602082019050919050565b60006020820190508181036000830152614abc81614a80565b9050919050565b7f416c7265616479206c696b656400000000000000000000000000000000000000600082015250565b6000614af9600d83613ee8565b9150614b0482614ac3565b602082019050919050565b60006020820190508181036000830152614b2881614aec565b9050919050565b6000604082019050614b446000830185613e75565b8181036020830152614b568184613ef9565b90509392505050565b7f557365726e616d65206d7573742062652033322063686172616374657273206f60008201527f72206c6573730000000000000000000000000000000000000000000000000000602082015250565b6000614bbb602683613ee8565b9150614bc682614b5f565b604082019050919050565b60006020820190508181036000830152614bea81614bae565b9050919050565b60006040820190508181036000830152614c0b8185613ef9565b90508181036020830152614c1f8184613ef9565b90509392505050565b7f4e487b7100000000000000000000000000000000000000000000000000000000600052605160045260246000fdfea264697066735822122006fd2c7fe1c82ef1458e35b1de7d700c2473a9dee8c5de76312eb96a3a21e2f764736f6c634300081c0033",
  "linkReferences": {},
  "deployedLinkReferences": {}
}